:020000040800F2
:1000000000CA00209D010008133900089B2C00083D
:10001000D9370008C9100008DD970008000000006B
:100020000000000000000000000000007D890008C2
:10003000E128000800000000AB080008958A0008CD
:10004000B7010008B7010008B7010008B7010008B0
:10005000B7010008B7010008B7010008B7010008A0
:10006000B7010008B7010008B7010008B701000890
:10007000B7010008B7010008ED1E00082D1F000899
:10008000B70100086D1F0008B7010008B70100089C
:10009000CD110008B7010008B7010008B70100083A
:1000A000198B0008B7010008B7010008B701000864
:1000B000618B0008D98B0008B7010008B701000860
:1000C000B7010008B7010008B7010008B701000830
:1000D000B7010008B7010008B9900008299200088C
:1000E000B7010008B7010008B7010008B701000810
:1000F000B7010008B7010008B7010008AD1F0008EC
:10010000B7010008B7010008B7010008B7010008EF
:10011000798D0008FD8D0008B7010008B7010008BF
:10012000DD1F0008B7010008B7010008B70100088B
:10013000B7010008B7010008B7010008B7010008BF
:100140009D140008B7010008B7010008B7010008B6
:10015000B7010008B70100084520000865950008B0
:10016000B7010008B7010008B7010008B70100088F
:10017000B7010008B7010008B7010008B70100087F
:10018000B7010008B7010008DFF80CD000F022FB2F
:100190000048004735A6000800CA002006488047EE
:1001A00006480047FEE7FEE7FEE7FEE7FEE7FEE75C
:1001B000FEE7FEE7FEE7FEE7B18A000889010008D6
:1001C00072B6704762B67047EFF3108072B6704730
:1001D00080F31088704730BF704720BF7047B0FA77
:1001E00080F0704790FAA0F0B0FA80F0704790FA73
:1001F000A0F070472DE9F05F0546002092469B462F
:1002000088460646814640241BE02846414647462C
:10021000224600F09AF953465A46C01A914110D32B
:1002200011461846224600F081F92D1A67EB0108A5
:100230004F4622460120002100F078F917EB000913
:100240004E41201EA4F10104DFDC484631462A4617
:100250004346BDE8F09F40EA01039B0703D009E055
:1002600008C9121F08C0042AFAD203E011F8013BA2
:1002700000F8013B521EF9D27047D2B201E000F8FB
:10028000012B491EFBD270470022F6E710B513463A
:100290000A4604461946FFF7F0FF204610BD421CEF
:1002A00010F8011B0029FBD1801A70472DE9FE4F81
:1002B00081EA030404F0004421F0004100944FF06F
:1002C000000B23F0004350EA01045ED052EA03041D
:1002D0005BD0C3F30A54C1F30A552C44A4F2F3349F
:1002E0000194A0FB0254C1F3130141F48011C3F344
:1002F000130343F4801301FB024400FB034E840A02
:10030000970A44EA815447EA8357A4FB0768029599
:100310008D0A05FB07854FEA932C04FB0C54270537
:10032000029D4FEA065847EA1637B5EB08056EEB13
:10033000070C870E920E47EA811742EA8312A7FB49
:100340000201B6EB0B0164EB00042B0D43EA0C3306
:100350005E1844EB1C50DA465146E7FB0201C5F338
:1003600013044FEA0B3343EA14534FEA0432019C5F
:1003700043EA0603A4F10C040294009CCDE900B406
:1003800000F002F903B0BDE8F08F00200146F9E764
:100390002DE9F04D81EA030404F0004B21F0004503
:1003A00014464FF0000A23F0004150EA050220D025
:1003B00054EA01021DD0C5F30A570246C5F31303E0
:1003C000C1F31300C1F30A5640F4801543F48013BF
:1003D000A7EB0608101BD64608F2FD3873EB0500A4
:1003E00002D308F1010801E092185B41B8F1000F57
:1003F00003DA00200146BDE8F08D00204FF48011A3
:10040000064684460EE0171B73EB050705D3121B47
:1004100063EB050306434CEA010C49084FEA300040
:1004200092185B4150EA0107EDD152EA030012D065
:1004300082EA040083EA0501084305D0101BAB41A2
:1004400006D20122002306E000224FF0004302E022
:100450006FF0010253101AEB06004CEB085110EB41
:100460000A0041EB0B01BDE8F04D00F07EB80EB57F
:10047000C10F80EAE0700844CA07002140F233430C
:100480008DE80E000A460B4600F07EF803B000BD72
:1004900070B5C1F30A5201F000450024C1F3130105
:1004A00040F2FF3341F480119A4201DA002070BD1E
:1004B00040F233439A42A2F2334203DC524200F04C
:1004C00044F800E090402C43F1D0404270BDC1F3AD
:1004D0000A5210B5C1F3130140F2FF3341F4801109
:1004E0009A4201DA002010BD40F233439A42A2F250
:1004F000334203DC524200F028F810BD904010BD9A
:1005000030B50B46014600202022012409E021FAE3
:1005100002F59D4205D303FA02F5491B04FA02F5E0
:100520002844151EA2F10102F1DC30BD202A04DBB3
:10053000203A00FA02F1002070479140C2F12003F6
:1005400020FA03F3194390407047202A04DB203A35
:1005500021FA02F00021704721FA02F3D040C2F1E3
:100560002002914008431946704710B5141E73F1DC
:10057000000408DA401C41F1000192185B411A4363
:1005800001D120F0010010BD2DE9F04D92469B46AF
:1005900011B1B1FA81F202E0B0FA80F22032904655
:1005A000FFF7C4FF04460F4640EA0A0041EA0B0188
:1005B00053465A46084313D0114653EA010019D056
:1005C000C8F140025046FFF7C0FF05460E465046B0
:1005D00059464246FFF7AAFF084305D0012004E030
:1005E00020463946BDE8F08D0020054346EAE07616
:1005F0002C4337430A986305E40AA0EB0800002265
:10060000FD0A44EA47540A3002D500200146E9E7D2
:10061000010510196941DDE9084500196941BDE886
:10062000F04DA2E72DE9FE4F804681EA0300C00F9E
:100630000C46009021F0004123F00045B8EB020089
:10064000A94105D24046214690461C460B4602462B
:1006500023F00040104347D0270DC7F30A00C3F32F
:100660000A510290401A019040286BDAC3F313003C
:1006700040F4801B0098924620B10023D2EB030A7D
:1006800063EB0B0B01985946C0F140025046FFF74F
:100690004DFF06460D4650465946019A00F0ACF80B
:1006A00010EB08006141002487EA115284EAE773E5
:1006B0001A4340D0009A62B3019A012A4FEA0752C6
:1006C00015DC001B61EB02014FF0004202EA075209
:1006D000CDE90042001C41F5801132462B46FFF760
:1006E00053FF03B0BDE8F08F40462146F9E7001BF9
:1006F00061EB0201001C41F5801300185B412018DA
:10070000A2F5001747EB030140EAD570B6196D4119
:1007100011E06D084FEA360645EAC0754FEA075208
:10072000001B61EB0201001C41F5801149084FEAF2
:1007300030000019514132462B4603B0BDE8F04F5E
:10074000FFF713BF0098012240000023D0EB020204
:1007500063EBE073009821464FEAE074B8EB0000C9
:1007600061EB0401E9E783F000435BE781F00041BE
:1007700058E7C1F30A52C1F3130140F2FF3341F4C9
:1007800080119A4202DA00200146704740F233435A
:100790009A42A2F2334202DC5242FFF7D6BEFFF782
:1007A000C5BE000030B5041E71F1000404DB4FF03B
:1007B0000044404264EB0101141E73F1000405DBA8
:1007C0001C464FF00043524263EB0403994208BFBA
:1007D000904230BD064C074D06E0E06840F0010352
:1007E00094E8070098471034AC42F6D3FFF7D0FCEA
:1007F0000CB200082CB20008202A06DBCB17203AE6
:1008000041FA02F043EAE07306E041FA02F3D04015
:10081000C2F12002914008431946704770B58C1808
:1008200010F8015B15F0070301D110F8013B2A1104
:1008300006D110F8012B03E010F8016B01F8016BF1
:100840005B1EF9D12B0705D40023521E0DD401F8ED
:10085000013BFAE710F8013BCB1A921C03E013F8B6
:10086000015B01F8015B521EF9D5A142D8D30020EB
:1008700070BD000022484FF6FF710170002080F328
:1008800009882048016881F308881F484FF080518B
:10089000016062B6FEE71C484FF08051016070476E
:1008A00019484FF080510160704772B6EFF309802C
:1008B00050B11EF0100F08BF20ED108A203880E8DC
:1008C000F00F12490968086000B5114880475DF8CB
:1008D00004EB104810490A7802700C480F490A6866
:1008E0000260106890E8F00F20301EF0100F08BF73
:1008F000B0EC108A80F309884EF0040E62B670479F
:1009000022ED00E0C001002004ED00E0B80100206D
:10091000BD4C00084601002047010020BC0100201A
:1009200000B58DB00121042007F0BEFA01210802B4
:1009300007F0EAFA0F200B9003208DF8300000201A
:100940008DF833000BA9234802F02CF90020079002
:100950000A9009904FF48030089007A800F04AF8F8
:100960000020019001208DF808008DF8090000207A
:100970000390059004208DF8180001A9164800F096
:1009800067F8072301220A21134800F08BF8072398
:1009900002220B21104800F085F8072303220C21C6
:1009A0000D4800F07FF8072304220D210A4800F0CB
:1009B00079F80121084800F040F80121064800F0CC
:1009C00031F80121044800F009F8034800F0C6F8A6
:1009D0000DB000BD000802400020014021B1826836
:1009E00042F00102826003E0826822F0010282602C
:1009F000704700000021084A1168084A1140D0E9F8
:100A000000231A4383681A43C3681A431143044AF4
:100A1000C2F804137047000004230140E030FCFFDB
:100A20000020014021B1826842F48072826003E0BC
:100A3000826822F480728260704721B1826842F439
:100A40000072826003E0826822F400728260704764
:100A500030B50246002000235068104C20400D792C
:100A60000C6844EA05242043506090680C4C2040F8
:100A7000D1E903542C438D682C434D7944EA450455
:100A800020439060D06A20F470000C7D641EE4B2B4
:100A9000234340EA0350D06230BD0000FFFEFFFC5C
:100AA000FDF7FFC0F0B504460D4600200021092DDA
:100AB00011DDE068A5F10A0606EB4607072606FAEF
:100AC00007F18843A5F10A0606EB460603FA06F18C
:100AD0000843E0600CE0206905EB4507072606FAAD
:100AE00007F1884305EB450603FA06F10843206148
:100AF000072A0FDA606B561E06EB86071F2606FADA
:100B000007F18843561E06EB860605FA06F10843F0
:100B1000606322E00D2A0FDA206BD61F06EB8607F2
:100B20001F2606FA07F18843D61F06EB860605FA4C
:100B300006F10843206310E0E06AA2F10D0606EB1F
:100B400086071F2606FA07F18843A2F10D0606EB79
:100B5000860605FA06F10843E062F0BD816841F0BF
:100B6000804181607047000070B540480078801E69
:100B700081B23F4800F062FF0446E5B2260A3B48D6
:100B80000078801E3A49085CA84234D13748007882
:100B9000401E085CB0422ED108464078042817D089
:100BA00006DC01280BD002280CD003281CD10CE055
:100BB000052810D0062811D0102815D111E007F013
:100BC000AFFA17E007F02AFB14E007F0C5FB11E0CD
:100BD00007F020FC0EE007F099FC0BE007F0DAFCD0
:100BE00008E007F025FD05E021494878042109F0D7
:100BF0006BFC00BF36E01E48407804281DD006DCA0
:100C000001280BD002280ED003282AD110E0052895
:100C100018D006281BD0102823D11DE00821012060
:100C200009F052FC1DE00821022009F04DFC18E0FB
:100C30000821032009F048FC13E00821042009F0F2
:100C400043FC0EE00821052009F03EFC09E00821E4
:100C5000062009F039FC04E00821102009F034FCDA
:100C600000BF00BF09F01AFF70BD00005B0000204C
:100C7000348900202DED028B00BF07F051F8DCE035
:100C80006E48807A012809D16C48407C002864D1E4
:100C90006A48007C012802D101F045FEC7E06748A0
:100CA000807C072857D2DFE800F00C0D56560E0462
:100CB0000800322001F04CFE4EE0322001F03DFEF3
:100CC0004AE000BF00BF5D4890F8270000283FD1F0
:100CD0005A4991F9260007F069F8B0EE408A574862
:100CE000C068008800EE100AB8EE400A30EE080A2C
:100CF000BDEEC00A10EE100A04B25048C068008869
:100D000000EE100AB8EE400A30EE480ABDEEC00A06
:100D100010EE100A05B2642C01DD642000E02046CC
:100D20000446002C01DA002000E020460446642D31
:100D300001DD642000E028460546002D01DA002090
:100D400000E028460546A9B2A0B201F0E0FD01E0AE
:100D500001F0E9FD00E000BF69E03848407C01286F
:100D600065D13648007C012802D101F0DCFD5EE04F
:100D70003248807C072858D2DFE800F00C0D575726
:100D80000E040800322001F0E3FD4FE0322001F0B4
:100D9000D4FD4BE000BF00BF284890F83C0098BB52
:100DA000264991F93B10484207F000F8B0EE408A1E
:100DB0002248C068008800EE100AB8EE400A30EE03
:100DC000080ABDEEC00A10EE100A04B21B48C06843
:100DD000008800EE100AB8EE400A30EE480ABDEE78
:100DE000C00A10EE100A05B2642C01DD642000E098
:100DF00020460446002C01DA002000E0204604468C
:100E0000642D02DD642001E00CE028460546002D3B
:100E100001DA002000E028460546A9B2A0B201F0A0
:100E20006AFD01E001F07FFD00E000BF00BF0A2382
:100E300000221146104609F0FFFA21E7B005002014
:100E40001FB5684607F080F8019804B010BD70B572
:100E50000446002034E122F810400D88054105F0D9
:100E600001030C2875D2DFE800F00620354C637EC4
:100E700094ABC5DBF7F57BB94E8802F1180525F870
:100E80001060002618352E5405260C352E544E8B36
:100E90000C3525F8106007E0002602F1180525F84A
:100EA0001060303525F8106007E16BB98E8802F1CB
:100EB000180525F81060002618352E540C352E54D0
:100EC0000C3525F8106004E0002602F1180525F81D
:100ED0001060F2E07BB9CE8802F1180525F81060A9
:100EE000002618352E5404260C352E5400260C35B9
:100EF00025F8106004E0002602F1180525F81060BE
:100F0000DBE07BB90E8902F1180525F81060002698
:100F100018352E5401260C352E5400260C3525F894
:100F2000106004E0002602F1180525F81060C4E006
:100F300083B94E8902F1180525F81060002618358E
:100F40002E5406260C352E548E8B0C3525F8106049
:100F500008E0B1E0002602F1180525F810603035F0
:100F600025F81060A9E073B98E8902F1180525F8FB
:100F70001060022618352E540C352E5400260C35E0
:100F800025F8106004E0002602F1180525F810602D
:100F900093E07BB9CE8902F1180525F8106002268E
:100FA00018352E5403260C352E5400260C3525F802
:100FB000106004E0002602F1180525F810607CE0BE
:100FC0007BB90E8A02F1180525F810600126183544
:100FD0002E5405260C352E54CE8B0C3525F810607A
:100FE00007E0002602F1180525F81060303525F8D5
:100FF000106062E073B94E8A02F1180525F810609E
:10100000012618352E5400260C352E540C3525F8A3
:10101000106004E0002602F1180525F810604CE08D
:101020007BB98E8A02F1180525F810600126183563
:101030002E5404260C352E5400260C3525F810604D
:1010400007E0002602F1180525F81060303525F874
:10105000106032E016E0FFE773B9CE8A02F118059E
:1010600025F81060012618352E540C352E54002614
:101070000C3525F8106004E0002602F1180525F86B
:1010800010601AE07BB90E8B02F1180525F810608C
:10109000012618352E5406260C352E540E8C0C3590
:1010A00025F8106007E0002602F1180525F8106009
:1010B000303525F8106000E000BF00BF431CD8B2F7
:1010C0000C28FFF6C8AE70BD00BFFEE72DE9F04169
:1010D0008AB004460D4616461F46DDF840800121C1
:1010E000022006F0E1FE0121480606F0EDFE4FF475
:1010F0004070089002208DF8240000208DF8260012
:1011000003208DF8250001208DF8270008A92D481F
:1011100001F048FD092208212A4801F08BFD09222F
:101120001146284801F086FD00208DF81A008DF840
:101130001B008DF81C0001208DF81D0000208DF88B
:101140001E008DF81F008DF816808DF817408DF861
:1011500018608DF81950ADF8147005A91A4800F000
:1011600036FA00208DF80E008DF80F0001208DF862
:1011700010000020ADF80400ADF80600ADF808003E
:10118000ADF80A00ADF80C0001208DF8110001A89F
:1011900000F090F9012202210B4800F00FFA142010
:1011A0008DF8000001208DF8010000208DF802006C
:1011B00001208DF80300684602F0B8FB00200AB059
:1011C000BDE8F081000402400064004030B587B003
:1011D0000024524A0021524800F083FA4F48006828
:1011E0000C2829D100BF0BE04C48C07A80F0FF00EA
:1011F000204100F0010080F001004A490855641CBC
:10120000082CF1DB00240DE04448007B80F0FF0057
:10121000204100F0010080F00101424A04F1080081
:101220001154641C042CEFDB3C48407B552803D14F
:1012300004213D4800F07CF838480068062817D1A2
:101240003648C07A40B2394988713448007B41B28F
:101250003648C1713148407B41B2344801722F4851
:10126000807B08B1012100E000213048417253E049
:101270002A48006803281FD100252C48807C0428B8
:1012800000D103E02948807C00B902252748807CF2
:10129000012800D1012521480095C07AC04382B2BF
:1012A0000423082101A800F0E7FB152201A91F482B
:1012B0001330FEF7D0FF2FE01848006804281FD134
:1012C00000251A48807C042800D103E01748807C60
:1012D00000B901251548807C012800D102250F485E
:1012E0000095C07AC04382B20423082101A800F00F
:1012F000C3FB152201A90D482830FEF7ACFF0BE017
:1013000006480068052807D10448C17A007B41EAF5
:1013100000200649096C088007B030BD1C9D0020E4
:10132000006400407000002096000020B0050020FE
:10133000F0B585B007460D460024102000900190BE
:1013400000208DF808008DF80A5000BF05E0395DD7
:101350000DF10B000155601C84B2AC42F7DB69460D
:101360000C4800F036FA0646002401E0601C84B206
:101370003146084800F0C0FA18B940F6FF708442C0
:10138000F4DB40F6FF70844202DB012005B0F0BDC3
:101390000020FBE7006400402DE9F0418AB00446DC
:1013A0000D4616461F46DDF840800121022006F05A
:1013B0007BFD01214FF0C06006F086FD60200890A3
:1013C00002208DF8240000208DF8260003208DF8DF
:1013D000250001208DF8270008A92E4801F0E2FB26
:1013E000092205212B4801F025FC09220621294864
:1013F00001F020FC00208DF81A008DF81B008DF8FC
:101400001C0001208DF81D0000208DF81E008DF8B5
:101410001F008DF816808DF817408DF818608DF834
:101420001950ADF8147005A91B4800F0D0F80E2033
:101430008DF80E0000208DF80F0001208DF81000AF
:101440000020ADF80400ADF80600ADF80800ADF8D6
:101450000A00ADF80C0001208DF8110001A800F081
:1014600029F8012202210C4800F0A8F840208DF84C
:10147000000001208DF8010002208DF802000120FB
:101480008DF80300684602F051FA00200AB0BDE86A
:10149000F0810000000402400068004010B5034ADB
:1014A0000021034800F01DF910BD00001C9D002024
:1014B0000068004010B50021837A012202FA03F18E
:1014C0003D4A126842F001023B4B1A603A4A1C3214
:1014D00012688A43384B1C331A60027BCAB9364AF9
:1014E0000C3212688A43344B0C331A604288C3882A
:1014F00042EA0343304A4032847A42F83430028868
:10150000838842EA03432C4A4032847A02EBC402C5
:101510005360027B012A19D1274A0C3212680A4310
:10152000254B0C331A604288038842EA0343224A5F
:101530004032847A42F83430C288838842EA0343D6
:101540001D4A4032847A02EBC4025360C27A3AB92F
:10155000194A121D12688A43174B1B1D1A6006E0B8
:10156000154A121D12680A43134B1B1D1A6002898B
:1015700032B9114A143212688A430F4B14331A607D
:101580000289012A06D10C4A143212680A430A4B16
:1015900014331A60427B012A06D1074A1C321268B2
:1015A0000A43054B1C331A60034A126822F00102F9
:1015B000014B1A6010BD0000006600401AB143697B
:1015C0000B43436102E043698B434361704730B58D
:1015D000024600200023146824F0020414601468FA
:1015E00044F00104146000E05B1C546804F0010442
:1015F0001CB94FF6FF74A342F6D1546804F00104FD
:101600000CB900206CE08C79012C04D1146844F0F2
:101610008004146003E0146824F080041460CC7922
:10162000012C04D1146844F04004146003E01468F1
:1016300024F0400414600C7A012C04D1146844F0A6
:101640002004146003E0146824F0200414604C7A31
:10165000012C04D1146844F01004146003E01468F1
:1016600024F0100414608C7A012C04D1146844F026
:101670000804146003E0146824F008041460CC7AB1
:10168000012C04D1146844F00404146003E01468CD
:1016900024F0040414608C78A407CD7844EA05642F
:1016A0000D7944EA05444D7944EA05540D886D1ED0
:1016B0002C43D461146824F001041460002300E07A
:1016C0005B1C546804F001041CB14FF6FF74A34284
:1016D000F6D1546804F001040CB1002000E00120B0
:1016E00030BD10B500F5D87303EB01131B6803F090
:1016F00004031372137A53B900F5D87303EB011383
:101700001B6840F2FF7404EA5353136009E000F5CC
:10171000D87303EB01131B686FF0604404EAD30332
:10172000536000F5D87303EB01131B6803F0020349
:10173000537200F5D87303EB01135B6803F00F03DA
:10174000937200F5D87303EB01135B681B0AD37423
:1017500000F5D87303EB01139B68D37200F5D873BF
:1017600003EB01139B681C0A147300F5D87303EB99
:1017700001139B681C0C547300F5D87303EB011321
:101780009B681B0E937300F5D87303EB0113DB68A2
:10179000D37300F5D87303EB0113DB681C0A1474D0
:1017A00000F5D87303EB0113DB681C0C547400F5CF
:1017B000D87303EB0113DB681B0E937421B9C36864
:1017C00043F02003C36003E0036943F02003036197
:1017D00010BD10B502460020936803F08063B3F19A
:1017E000806F00D110E0936803F00063B3F1006FE5
:1017F00001D1012008E0936803F08053B3F1805FCA
:1018000001D1022000E00420042874D002F5C07346
:1018100003EB00131B6803F0010402F5C07303EB34
:1018200000131C600B7A7BB94B7A0C8843EA445353
:1018300002F5C07404EB00142468234302F5C0745D
:1018400004EB0014236010E00B7A4C6843EAC403F5
:101850004C7A234302F5C07404EB0014246823433C
:1018600002F5C07404EB001423608B7A03F00F03BD
:101870008B7202F5C07303EB00135B6823F00F0457
:1018800002F5C07303EB00135C6002F5C07303EB59
:1018900000135B688C7A234302F5C07404EB0014D8
:1018A00063608B7B1C064B7B44EA03440B7B44EA5E
:1018B0000323CC7A234302F5C07404EB0014A36025
:1018C0008B7C1C064B7C44EA03440B7C44EA0323D8
:1018D000CC7B234302F5C07404EB0014E36002F5F3
:1018E000C07303EB00131B6843F0010402F5C073DF
:1018F00003EB00131C6010BD10B50246002321B19C
:10190000012907D002290FD109E090681D4C00EA97
:1019100004030BE090681C4C00EA040306E09068A6
:101920001A4C00EA040301E0002300BF00BF184C7A
:10193000181BA34216D007DC83B16FF080601844F7
:1019400070B1022818D111E0B0F5007F10D0114C11
:10195000204448B1B0F5003F0ED10BE002230DE06A
:1019600000230BE0002309E0002307E0012305E04A
:10197000012303E0012301E0002300BF00BFD8B230
:1019800010BD000003000004000300080000031065
:10199000000100080001FFF710B500F01FF800F08B
:1019A00019F810BD10B5002400BF00BFFEF70CFCF5
:1019B000044600BF00BF1021054801F00FFF00BF23
:1019C00000BF2046FEF704FC00BF00BF10BD0000B2
:1019D0007C9F002010B5FFF7E5FF10BD10B500207B
:1019E0000249086000F00AF810BD0000EC00002079
:1019F0000149086070470000EC00002010B5FFF7B7
:101A00001FFA04460848006840F0807006490860E4
:101A10000020064948600846006840F00100086060
:101A20002046FFF7E5FF10BDFCED00E0001000E0F0
:101A30000149486870470000001000E030B50246D8
:101A40000B464FF6FF70002112E0555C6840002401
:101A50000AE000F0010525B140104AF20105684096
:101A600000E04010651CACB2082CF2DB4D1CA9B2A2
:101A70009942EADB30BD00002DE9FF4F87B00D46EB
:101A80009A46DDF850B00024099E0027A046681E43
:101A9000012101FA00F900BF00208DF804008DF843
:101AA00015008DF816008DF817008DF81800002726
:101AB000804600240CE046FA04F000F0010028B152
:101AC0009DF81600401CC0B28DF81600601C84B250
:101AD000AC42F0DB00240AE046FA04F000F001001A
:101AE00010B9781C87B200E02C46601C84B2AC426E
:101AF000F2DB00240CE006FA04F000EA090020B949
:101B000008F101001FFA80F800E02C46601C84B246
:101B1000AC42F0DB3C4611E046FA04F000F0010074
:101B200050B99DF804200DF1050084549DF804007F
:101B3000401CC0B28DF80400601C84B2A5EB080004
:101B4000A042E9DC9DF8040000281FDD01208DF88B
:101B500015009DF80400012818DD002411E00DF1A6
:101B60000500611C415C005D081A012800D106E0F7
:101B70009DF81500401CC0B28DF8150000BF601C18
:101B800084B29DF80400401EA042E8DC9DF81600D7
:101B900030B900208DF8170001208DF81800D1E031
:101BA0009DF8040000286BDD9DF815000128F6D192
:101BB000BBF1020F10D144460BE006FA04F000EA34
:101BC000090018B129FA04F0864300E02C46601C95
:101BD00084B2AC42F1DB5FE7BBF1010F10D13C46B0
:101BE0000BE046FA04F000F0010018B10120A0401B
:101BF000864300E02C46601C84B2AC42F1DB4BE72C
:101C0000BBF1000F38D1B84510DD3C460BE046FA79
:101C100004F000F0010018B10120A040864300E06C
:101C20002C46601C84B2AC42F1DB8BE0B84510DA84
:101C300044460BE006FA04F000EA090018B129FA5C
:101C400004F0864300E02C46601C84B2AC42F1DB19
:101C500022E7B84576D144460AE006FA04F000EAE5
:101C6000090018B929FA04F0304386B2601C84B226
:101C7000E81BA042F1DC65E001208DF8180061E06E
:101C80009DF81600504550DD9DF81600A84203D17E
:101C900000208DF8170055E0BBF1020F0ED144462D
:101CA00004E029FA04F08643601C84B29DF8160013
:101CB000A0EB0A004044A042F3DCEDE6BBF1010FCB
:101CC0000ED13C4604E00120A0408643601C84B253
:101CD0009DF81600A0EB0A003844A042F3DCDBE6D6
:101CE000BBF1000F2ED1B8450EDD3C4604E00120CB
:101CF000A0408643601C84B29DF81600A0EB0A0049
:101D00003844A042F3DCC7E6B8451BDA444604E099
:101D100029FA04F08643601C84B29DF81600A0EBFB
:101D20000A004044A042F3DCB6E69DF81600A84243
:101D300005DCA8EB070040B28DF8170002E0012097
:101D40008DF81800152201A90548FEF784FA15221E
:101D500001A90798FEF77FFA0BB0BDE8F08F0000ED
:101D6000849D002070B50446204601F0A6F820B1FD
:101D70000020616808F0EEFD70BD2568002605E0D2
:101D80006E682946002008F0E5FD35466068A842E7
:101D9000F6D1606820600020616808F0DBFD00BFBC
:101DA000EAE7000010B58AB0002400BF00BF00BF02
:101DB000FEF70AFA044600BF00BF2A480078401C1C
:101DC0002849087000BF00BF2046FEF701FA00BF97
:101DD00000BF00BF09A8032100220592CDE906211A
:101DE000089010464FF4007133221F4BCDE90132A9
:101DF000CDE90310102000231C4A1DA100901F48AC
:101E000002F018FA00BF00BF00BFFEF7DDF904467C
:101E100000BF00BF13480078401E124908700846F2
:101E20000078A0B916480088002809DD00BF00BF6F
:101E30002046FEF7CDF900BF00BF04F029FA0DE0FF
:101E400000BF00BF2046FEF7C3F900BF06E000BF99
:101E500000BF2046FEF7BCF900BF00BF00BF0AB0BC
:101E600010BD000060010020487A00204D8D000860
:101E700054657374207461736B00000084790020D2
:101E80002401002005E00A2301220021084608F071
:101E9000D3FAF8E70446002510E0681C85B2142D3B
:101EA00002D1002500F0B6FF2146054800F0E7FE0C
:101EB000052300221146104608F0BEFAEDE70000A7
:101EC000B00500200CE007480068C0430649C1F88F
:101ED0008C024FF4967300221146104608F0ACFABB
:101EE000F1E700008C0242420000424210B501F0CE
:101EF000C5FE0B490B4800F093F968B1012240F28E
:101F00002661094807F0C4FB0549064800F0B2F80D
:101F10000021044800F0C8F801F0C6FE10BD000022
:101F200000800018586002400048004010B501F0E1
:101F3000A5FE0B490B4800F073F968B1012240F28D
:101F40002661094807F0A4FB0549064800F092F80D
:101F50000021044800F0A8F801F0A6FE10BD000022
:101F60002080002070600240004C004010B501F05D
:101F700085FE0B490B4800F053F968B1012240F28D
:101F80002661094807F084FB0549064800F072F80D
:101F90000021044800F088F801F086FE10BD000022
:101FA00000802020A06002400044004010B501F0F5
:101FB00065FE0849084800F033F938B1054906487C
:101FC00000F058F80021044800F06EF801F06CFEB3
:101FD00010BD000000800028B86002402DE9F041EB
:101FE00000261449144800F01BF900B3002418E03F
:101FF000002507E0114800EBC50030F81400064446
:10200000681CC5B21E2DF5DB1E2096FBF0F7384686
:10201000FEF72DFA0A4A02EBC40203C20026601C36
:10202000C4B2042CE4DB0349034800F023F8BDE804
:10203000F0810000208000101064024048820020DF
:102040003883002010B50849084800F0E9F850B17D
:102050000549064800F00EF80021044800F024F875
:1020600001200349087010BD00800028B8640240B8
:10207000D00000200246094B9A4201D2084801E0F4
:102080000648103801F000531BB1064B0B40C360EB
:1020900002E0044B0B408360704700001064024074
:1020A000006002407D0F7D0F21B1026842F0010205
:1020B000026003E0026822F0010202607047000043
:1020C000016821F00101016000210160416081602F
:1020D000C1600161212141614A49884204D13D2109
:1020E000484A103A91608CE046491831884205D13F
:1020F0004FF47461434A103A916082E041493031B3
:10210000884205D14FF474113E4A103A916078E04C
:102110003C494831884205D14FF07461394A103A40
:1021200091606EE037496031884204D13649354AC2
:10213000103AD16065E033497831884204D133499F
:10214000304A103AD1605CE02E499031884204D187
:102150002F492C4A103AD16053E02A49A8318842CD
:1021600005D14FF03D51274A103AD16049E0294945
:10217000884204D13D21274A083A116041E02549AF
:102180001831884205D14FF47461224A083A11602F
:1021900037E020493031884205D14FF474111D4A8F
:1021A000083A11602DE01B494831884205D14FF0B3
:1021B0007461184A083A116023E016496031884278
:1021C00004D11149134A121F11601AE011497831E4
:1021D000884204D10D490F4A121F116011E00D49C8
:1021E0009031884204D10A490A4A121F116008E05E
:1021F0000849A831884204D14FF03D51054A121FC9
:1022000011607047106002403D000020400F002028
:1022100000003D20106402400146486880B27047CB
:1022200070B50246002000240025124EB24201D2B1
:10223000114B01E00F4B103B104E0E4036B11E26E5
:1022400006EAD124166806EA040502E0566906F09B
:10225000800501F000560EB15C6800E01C68084E75
:10226000344004EA010616B10DB1012000E000205F
:1022700070BD000010640240006002403C0F3C0F43
:102280007D0F7D0F10B501F080034BB122B1436982
:1022900043F08003436103E0436923F0800343611B
:1022A00080290BD02AB1036801F01E042343036088
:1022B00004E0036801F01E04A343036010BD0000A6
:1022C00010B500220268134B1A40CC680B682343F8
:1022D0004C6923438C692343CC6923430C6A234311
:1022E0004C6A23438C6A23434C6B23438C6B2343FC
:1022F0001A430260426922F00702D1E90B342343FA
:102300001A4342610B6943604B6883608B68C3600A
:1023100010BD00003F801CF04160704700B591B0D7
:102320000121480505F0C0FD00213A48FFF7BCFE39
:102330003848FFF7C5FE4FF0006001903648029024
:102340003648039040200490FA2005900020069023
:102350004FF4806007900020089009904FF480703F
:102360000A9000200C9003200D9000040B90002098
:102370000E900F9001A92748FFF7A2FF00212548E2
:10238000FFF792FE012210212248FFF77BFF002178
:1023900020481838FFF788FE1E481838FFF790FECF
:1023A0004FF0006001901C4802901D4803900020EF
:1023B0000490FA200590002006904FF4806007906A
:1023C0000020089009904FF480700A9000200C9033
:1023D00003200D9000040B9000200E900F9001A997
:1023E0000C481838FFF76CFF01210A481838FFF72E
:1023F0005BFE11208DF8400002208DF841008DF821
:10240000420001208DF8430010A801F08FFA11B0AE
:1024100000BD0000A0600240044400404686002049
:102420004C85002000B591B00121480505F03CFD28
:1024300000213A48FFF738FE3848FFF741FE4FF0D9
:102440000060019036480290364803904020049086
:10245000FA200590002006904FF48060079000203D
:10246000089009904FF480700A9000200C9003208F
:102470000D9000040B9000200E900F9001A92748AA
:10248000FFF71EFF00212548FFF70EFE0122102155
:102490002248FFF7F7FE002120483038FFF704FEFE
:1024A0001E483038FFF70CFE4FF0006001901C48CA
:1024B00002901D48039000200490FA20059000200F
:1024C00006904FF4806007900020089009904FF428
:1024D00080700A9000200C9003200D9000040B9057
:1024E00000200E900F9001A90C483038FFF7E8FE4D
:1024F00001210A483038FFF7D7FD0E208DF8400043
:1025000002208DF841008DF8420001208DF8430033
:1025100010A801F00BFA11B000BD00005860024095
:10252000044800402E8A00203489002000B591B074
:102530000121480505F0B8FC00213A48FFF7B4FD39
:102540003848FFF7BDFD4FF000600190364802901B
:102550003648039040200490FA2005900020069011
:102560004FF4806007900020089009904FF480702D
:102570000A9000200C9003200D9000040B90002086
:102580000E900F9001A92748FFF79AFE00212548D9
:10259000FFF78AFD012210212248FFF773FE002178
:1025A00020483038FFF780FD1E483038FFF788FD9F
:1025B0004FF0006001901C4802901D4803900020DD
:1025C0000490FA200590002006904FF48060079058
:1025D0000020089009904FF480700A9000200C9021
:1025E00003200D9000040B9000200E900F9001A985
:1025F0000C483038FFF764FE01210A483038FFF7F5
:1026000053FD0F208DF8400002208DF841008DF819
:10261000420001208DF8430010A801F087F911B0A5
:1026200000BD000070600240044C00405883002050
:102630005284002000B591B00121480505F034FC1A
:1026400000213A48FFF730FD3848FFF739FD4FF0D9
:102650000060019036480290364803904020049074
:10266000FA200590002006904FF48060079000202B
:10267000089009904FF480700A9000200C9003207D
:102680000D9000040B9000200E900F9001A9274898
:10269000FFF716FE00212548FFF706FD0122102155
:1026A0002248FFF7EFFD00212048A838FFF7FCFC87
:1026B0001E48A838FFF704FD4FF0006001901C4849
:1026C00002901D48039000200490FA2005900020FD
:1026D00006904FF4806007900020089009904FF416
:1026E00080700A9000200C9003200D9000040B9045
:1026F00000200E900F9001A90C48A838FFF7E0FDCC
:1027000001210A48A838FFF7CFFC2F208DF84000A0
:1027100002208DF841008DF8420001208DF8430021
:1027200010A801F003F911B000BD0000B86002402C
:1027300004500040228C0020288B002000B591B06E
:102740000121880505F0B0FB00213A48FFF7ACFCF9
:102750003848FFF7B5FC4FF02060019036480290F2
:102760003648039040200490FA20059000200690FF
:102770004FF4806007900020089009904FF480701B
:102780000A9000200C9003200D9000040B90002074
:102790000E900F9001A92748FFF792FD00212548D0
:1027A000FFF782FC012210212248FFF76BFD002178
:1027B00020489038FFF778FC1E489038FFF780FCDF
:1027C0004FF0206001901C4802901D4803900020AB
:1027D0000490FA200590002006904FF48060079046
:1027E0000020089009904FF480700A9000200C900F
:1027F00003200D9000040B9000200E900F9001A973
:102800000C489038FFF75CFD01210A489038FFF72B
:102810004BFC46208DF8400002208DF841008DF8D9
:10282000420001208DF8430010A801F07FF811B09C
:1028300000BD0000B8640240041401403A88002042
:102840004087002000B591B00121880505F02CFBE0
:1028500000212048FFF728FC1E48FFF731FC00202C
:1028600001901D4802901D4803900020049078209C
:102870000590002006904FF480600790400008907B
:102880000990C0100A9000200C9003200D900004C5
:102890000B9000200E900F9001A90E48FFF710FD3D
:1028A000012210210B48FFF7EDFC01210948FFF739
:1028B000FBFB38208DF8400002208DF841000320FA
:1028C0008DF8420001208DF8430010A801F02EF889
:1028D00011B000BD106402404C200140488200202D
:1028E000704710B504462046FFF73CFA00206168A7
:1028F00008F030F810BD70B504460D4621460120A1
:1029000000F0E2FF2946022000F0F1FF70BD70B533
:1029100004460D462146012000F0E9FF2946022029
:1029200000F0D2FF70BD10B50021012000F0DFFFE4
:102930000021022000F0DBFF10BD10B50446214647
:10294000012000F0C1FF2146022000F0BDFF10BDB4
:1029500010B504462146012000F0C9FF214602209F
:1029600000F0C5FF10BD00002DE9F04707460D46F9
:10297000C8217A48FDF788FCC8217948FDF784FC16
:1029800000207649A1F8C800764908807349A1F86B
:10299000CA0064217448FDF777FC64217348FDF791
:1029A00073FC0026724800F079FA002005E04FF031
:1029B000FF316E4A42F82010401C6428F7DB39468C
:1029C0006B4805F061FA0120674921F81700B4E06F
:1029D000674800680088A8427FD1761C6448D0F818
:1029E00000804FF0000964215D48FDF74DFC002098
:1029F0005C4908800EE0B8F80020484609F101095A
:102A0000574921F8102057480088401C5549088034
:102A1000D8F80480B8F800000028ECD151480188AB
:102A20004F4805F061FE4F480288314651A000F042
:102A3000BBF9002412E04B480088401EA04206D19A
:102A4000474830F8141052A000F094F905E04448CB
:102A500030F8141050A000F08DF9641C4148008833
:102A60008442E8DB012E12D1002006E03C4931F817
:102A700010103A4A22F81010401C3A49098888423E
:102A8000F4DB384800883549A1F8C80018E033481D
:102A9000B0F8C80033490988884211DD002006E0FB
:102AA0002F4931F810102D4A22F81010401C2D49E2
:102AB00009888842F4DB2B4800882849A1F8C8001F
:102AC0002B4805F061F90020274921F81500401E28
:102AD000264941F8250030E0FFE7254800680088D6
:102AE0002E4908800846008807F064FF0446A4B118
:102AF00020881E49294A128841F822002088274947
:102B00000880084601881A4805F0BEF901201649D8
:102B1000224A128821F812000EE0154805F034F917
:102B2000002011491D4A128821F81200401E0F4949
:102B30001A4A128841F8220000BF0D4800F0BDF982
:102B400000283FF445AF0A48FFF7CBFE1448FFF7D3
:102B5000C8FE0249A1F8CA60BDE8F087E40400207D
:102B60001C0400201800002054030020C401002091
:102B700010000020B5DA3A5B25645DCCF5C2B7BE23
:102B8000B62CBDDAB5E3CAFD3A5B25645D000000F2
:102B900025640D0A0000000025642D0004000020BB
:102BA00008000020F0B50A4600210023002400BFE1
:102BB0003DE0012505FA01F3156805EA03049C428E
:102BC00034D105684F000326BE40B5430560157932
:102BD0004E00B5400668354305601579012D02D0D9
:102BE0001579022D16D185684F000326BE40B543E6
:102BF000856055794E00B5408668354385604568E7
:102C000001268E40B5434560456896798E40B6B240
:102C100035434560C5684F000326BE40B543C560D7
:102C2000D5794E00B540C6683543C560491C1029AA
:102C3000BFD3F0BDF0B5002300244D07ED0E02FA1E
:102C400005F3CE1000F1200555F826504E07F70E7B
:102C50000F26BE40B543CF1000F1200646F827509E
:102C6000CE1000F1200555F8265045EA0304CE1099
:102C700000F1200545F82640F0BD4183704770B54E
:102C800004460D46284602F0E1F9064606EB8606A4
:102C90002146304600F0D6FD70BD00BFFEE70000C3
:102CA0000FB470B5C2B004464FF4807102A8FDF7AE
:102CB000EBFA48A8019002A8019A479906F03CFF58
:102CC0000020019002A8FDF7EAFA86B21448844277
:102CD00002D10120134908601348844202D1012027
:102CE000124908601248844203D101200F49343947
:102CF000086000250DE000BF4021204606F091FC51
:102D00000028F9D002A8415D204606F051FD681C5C
:102D100085B2B542EFDB42B070BC5DF814FB000039
:102D2000004400409082414200480040BC024042C2
:102D3000004C00400FB410B59AB0642101A8FDF713
:102D4000A3FA1DA8009001A8009A1C9906F0F4FEB1
:102D50000020009001A8FDF7A2FA84B2214601A844
:102D600007F0A4FE0A2007F081FE1AB010BC5DF83F
:102D700014FB00000FB400B5C1B04FF4807101A87E
:102D8000FDF782FA43A8009001A8009A429906F044
:102D9000D3FE0020009001A90248FFF781FF41B057
:102DA0005DF814FB004400400FB410B5C2B04FF4FE
:102DB000807102A8FDF768FA45A8019002A8019A5F
:102DC000449906F0B9FE002001900A4CA0880090BA
:102DD000E378A278218808A0FFF7CCFF02A90A486F
:102DE000FFF75EFF09A0FFF7C5FF42B010BC5DF81A
:102DF00014FB0000B00500205B25643A25643A25E9
:102E0000643A25645D000000004400400D0A0D0A8C
:102E10000000000010B500F001F810BD4AF6AA202D
:102E20000149086070470000003000402DE9F04182
:102E300086B0074688461546002401970020029078
:102E40008DF80C008DF80E5000BF06E018F8041045
:102E50000DF10F000155601C84B2AC42F6DB01A9F4
:102E60000D48FEF7B6FC0646002401E0601C84B263
:102E700031460948FEF740FD18B940F6FF7084421C
:102E8000F4DB40F6FF70844203DB012006B0BDE8AE
:102E9000F0810020FAE700000064004070B50546AC
:102EA0000821002007F068FD044604B970BD2C60BD
:102EB0006C600020606000BFF8E70146D1E90020A7
:102EC000904201D1012070470020FCE71CB5012190
:102ED000202004F0E9FF0121022004F0E5FF012198
:102EE000402004F0E1FF0121084604F0DDFF01214C
:102EF000042004F0D9FF0121082004F0D5FF0121AE
:102F0000102004F0D1FF4FF68070009000208DF863
:102F1000040003208DF8050001208DF807006946A4
:102F20004848FFF73FFE0320009000208DF8040082
:102F300003208DF8050001208DF8070069464248FE
:102F4000FFF730FE4FF47040009000208DF8040031
:102F500003208DF8050001208DF8070069463B48E5
:102F6000FFF720FE1020009001208DF804000020C3
:102F70008DF8060003208DF8050001208DF807006C
:102F800069463348FFF70EFE9820009001208DF827
:102F9000040000208DF8060003208DF805000120B4
:102FA0008DF8070069462B48FFF7FCFD00202A49F1
:102FB00008602A49C1F890027920009001208DF81C
:102FC000040000208DF8060003208DF80500012084
:102FD0008DF8070069461B48FFF7E4FD00202049F3
:102FE00008604FF6F860009001208DF80400002082
:102FF0008DF8060003208DF8050001208DF80700EC
:1030000069461148FFF7CEFD0120164908600020EF
:10301000091D0860091D08600120091D0860091DBF
:103020000860104918310860091D0860091D086012
:10303000091D0860091D0860091D0860091D086058
:103040001CBD0000001002400018024000140240A5
:1030500000000240000402408C8240420080404256
:10306000940242428C02434298B000BF012007F014
:1030700009FD012007F0A0FFEFA0FFF75BFE01E3D1
:10308000F1A0FFF791FE02E00A2007F0EFFCF14803
:10309000B0F856000128F7D10020EE49A1F85600FB
:1030A0000846B0F85000EC49096C0988884206D1FE
:1030B000EAA0FFF73FFEE9A0FFF776FEE2E2E5486F
:1030C000B0F8500030B9EEA0FFF734FEECA0FFF7E7
:1030D0006BFED7E2DF48B0F85000642808DD6421B9
:1030E000EDA0FFF727FE6421EBA0FFF75DFEC9E22C
:1030F000D848B0F85000F0490880D749096C0888D2
:10310000ED490988FFF730FCECA0FFF74DFEEA48D7
:103110000188EEA0FFF70EFE032007F0B3FCF04895
:10312000B0F8CA0030B9EFA0FFF724FEF3A0FFF714
:1031300001FEA0E2EA48B0F8CA10F7A0FFF71AFEB5
:10314000E748B0F8CA10FAA0FFF7F4FD022007F034
:1031500099FC0020C049087400267CE23220BE4958
:10316000C9680880DE4830F816706946384604F0B1
:1031700085FF3946F3A0FFF7FDFDB648A0F854706F
:103180009EB13946F2A0FFF7D5FD02E0052007F019
:103190006DFCB148006C0088B842F7D1D048B0F857
:1031A000C800401EB04200D15BE200244EE206A8F7
:1031B00030F81410CA4A701C32F8100081427CD1D9
:1031C0000CA8005DA8B9A448407C58B10120A249D0
:1031D0000874FFF7A8FB00209F4948744FF4FA7069
:1031E00007F044FCDEA0FFF7C5FDDFA0FFF7A2FD5E
:1031F0002BE00CA8005D012816D19748407C0128DF
:103200000BD0012094490874FFF78DFB01209249EF
:1032100048744FF4FA7007F029FCD5A0FFF7AAFD17
:10322000D5A0FFF787FD10E00CA8005D02280CD1A7
:103230008948407C48B14FF4967007F017FCD0A045
:10324000FFF798FDD0A0FFF775FD0FA8005D48B906
:10325000002081498874CEA0FFF78CFDCEA0FFF737
:1032600069FDE8E10FA8005D012808D17A4988745A
:10327000CBA0FFF77FFDCCA0FFF75CFDDBE10FA843
:10328000005D042808D174498874C9A0FFF772FD55
:10329000C9A0FFF74FFDCEE10FA8005D052879D149
:1032A00001206D490874FFF73EFB12A830F8141096
:1032B000C3A0FFF73FFDC82000E0C6E107F0D6FB42
:1032C000052065498874002008740846407C10B9C0
:1032D00001F1130501E0604D283502E00A2007F0F6
:1032E000C5FB287D0028F9D002E00A2007F0BEFBCC
:1032F000A87C0328F9DB12A830F81400B4280ED1FA
:1033000002E00A2007F0B2FB287D0028F9D002E095
:103310000A2007F0ABFBA87C0328F9DB21E012A808
:1033200030F81400B0F5877F1BD102E00A2007F0C7
:103330009DFB287D0028F9D002E00A2007F096FBCB
:10334000A87C0328F9DB02E00A2007F08FFB287D28
:103350000028F9D002E00A2007F088FBA87C0328A7
:10336000F9DB01203C490874FFF7DDFAC82007F0BB
:103370007DFB042038498874C82007F077FB0020C3
:103380003549087412A830F8141090A0FFF7F2FC29
:1033900051E1FFE70FA8005D06284AD101202E4920
:1033A0000874FFF7C0FA12A830F814108AA0FFF7CB
:1033B000C1FCC82007F05AFB06202749887400206A
:1033C00008740846407C10B901F1130501E0224D54
:1033D000283502E00A2007F049FB287D0028F9D0B3
:1033E00002E00A2007F042FBA87C0328F9DB12A8C0
:1033F00030F81400B4280ED102E00A2007F036FBA2
:10340000287D0028F9D002E00A2007F02FFBA87CD5
:103410000328F9DBFAE012A830F81400B0F5877F32
:1034200008D102E00A2007F021FB287D0028F9D00E
:10343000DBE000E1EAE00000CFB5CDB3D7D4BCECCF
:10344000CDEAB3C900000000B5C8B4FDC8CECEF1C6
:10345000210000005A9E0020B0050020C4BFB1EA40
:10346000B1EAC7A9BACDB5B1C7B0B1EAC7A9CFE033
:10347000CDAC2CC8CECEF1CDEAB3C9A3A1000000DB
:10348000C4BFB1EAB1EAC7A9CEAA302CB2D9D7F7E6
:10349000B7C7B7A8A3A10000C4BFB1EAB1EAC7A9E2
:1034A000B2BBC4DCB4F3D3DA25642CB2D9D7F7B7F6
:1034B000C7B7A8A3A100000000000020C2B7BEB695
:1034C000CBD1CBF7CDEAB3C921000000D7BCB1B84E
:1034D000C7B0CDF92564BAC5B1EAC7A9000000009C
:1034E000E4040020CEB4D5D2B5BDD3D0D0A7C2B7A6
:1034F000BEB6A3A10D0A0D0A00000000CEB4D5D2BD
:10350000B5BDD3D0D0A7C2B7BEB62CC7EBD6D8D0E6
:10351000C2C9E8D6C3000000B9B2D5D2B5BD256492
:10352000CCF5C2B7BEB6A3A10D0A0D0A000000007B
:10353000B9B2D5D2B5BD2564CCF5C2B7BEB6A3A18C
:1035400000000000B1EAC7A9BAC53A5B25645D0076
:10355000B5C8B4FD2564BAC5B1EAC7A92100000009
:10356000C7B0BDF82D000000C7B0BDF800000000D6
:10357000BAF3CDCB2D000000BAF3CDCB0000000094
:10358000C6BDD2C62D000000C6BDD2C600000000D8
:10359000D7F3B7D6B2E62D00D7F3B7D6B2E6000020
:1035A000D3D2B7D6B2E62D00D3D2B7D6B2E600005A
:1035B000D6B1D0D02D000000D6B1D0D00000000090
:1035C000D7F3D0FD2564B6C800000000D7F3D0FDC6
:1035D0005B25645DB6C82D00D3D2D0FD2564B6C886
:1035E000000000000A2007F041FAA87C0328F9DB5C
:1035F00002E00A2007F03AFA287D0028F9D002E01C
:103600000A2007F033FAA87C0328F9DB01201E49C1
:103610000874FFF788F9C82007F028FA04201A492F
:103620008874C82007F022FA12A830F8141017A0E6
:10363000FFF7A0FB00BF00201349087406A830F86C
:10364000141015A0FFF796FB03E0641C0C2CFFF68A
:10365000AEAD00BF761C1348B0F8C800B0423FF7CB
:103660007DAD00BF0120084908740FA0FFF762FB81
:103670000DA0FFF799FB0A2300221146104606F021
:10368000DBFE00BFFCE40000B0050020D3D2D0FD7B
:103690005B25645DB6C82D005B25645D0D0A0D0ACF
:1036A00000000000E4040020B5BDB4EFD6D5B5E3BA
:1036B000A3ACC8CECEF1CDEAB3C9000010B5024626
:1036C0004FF6FF70088000202EE0431C32F81340B4
:1036D00021F8134032F813302BB90B8801248440B1
:1036E00023430B8004E00B8801248440A3430B8018
:1036F000431C012B02D1538B4B8312E0431C052B3F
:1037000002D1938B8B830CE0431C082B02D1D38B0B
:10371000CB8306E0431C0C2B02D1138C0B8400E0FE
:1037200000E000BF431CD8B20C28CEDB10BD10B5A2
:10373000024600200884C8838883488300BF48E08D
:1037400002F1180333F81040431C21F8134002F132
:1037500030031B5C53B902F13C031B5C052B05D104
:1037600002F1480333F810304B832FE002F13003AD
:103770001B5C53B902F13C031B5C062B05D102F123
:10378000480333F810308B8320E002F130031B5CD8
:10379000012B0AD102F13C031B5C052B05D102F180
:1037A000480333F81030CB8310E002F130031B5C88
:1037B000012B0AD102F13C031B5C062B05D102F15F
:1037C000480333F810300B8400E000E000BF431CD6
:1037D000D8B20C28B4DB10BD00BFFEE730B50546FB
:1037E0000C4622460021284600F001F830BD2DE9A4
:1037F000F04105460B4694460027002402E03F02B4
:103800001F43641C042CFAD3604605F003062946C6
:1038100046B1344603E001F8013B401E641C08B188
:10382000042CF8D30A4601E080C2001F0428FBD212
:10383000114602E001F8013B401E0028FAD1BDE824
:10384000F08100002DE9F043024610461D4B4EF674
:1038500060244FF47A75002600274FF0000C4FF0DB
:103860000008B0FBF3F9B9F1000F03D0B0FBF3F996
:103870001FFA89F6B0FBF3F903FB1900B0FBF4F96A
:10388000B9F1000F03D0B0FBF4F91FFA89F7B0FBD0
:10389000F4F904FB1900B0FBF5F9B9F1000F03D0FE
:1038A000B0FBF5F91FFA89FCB0FBF5F905FB190926
:1038B0001FFA89F80E808F7081F803C0A1F8048088
:1038C000BDE8F08380EE360038B505460C46002092
:1038D00000908DF8005001208DF80100E0B28DF8C5
:1038E0000200032269460220FFF7A0FA38BD38B56E
:1038F00005460C46002000908DF800508DF8010020
:10390000E0B28DF80200032269460220FFF78EFA2A
:1039100038BD704700F01F0201219140024A43095F
:1039200042F823107047000080E200E070B50021EB
:1039300000230F22C4781CB3174C246804F4E064FD
:10394000C4F5E064C4F30721C1F10404E3B20A4101
:1039500044789C40E1B28478144021430C07210E46
:103960000E4C05786155047804F01F050124AC4025
:1039700005786D11AD0005F1E025C5F8004109E0BD
:10398000047804F01F050124AC40054D067876113B
:1039900045F8264070BD00000CED00E000E400E0BA
:1039A00080E100E002490143024A116070470000D3
:1039B0000000FA050CED00E01548164816481748B7
:1039C000174818481848194819481A481A481B48EF
:1039D0001B481C481C481D481D481E481E481F48BF
:1039E0001F4820482048214821482248224823488F
:1039F000234824482448254825482648264827485F
:103A00002748284828482948294800BF704700000F
:103A10009CB00008FCAF000800B0000804B000082B
:103A200008B000080CB0000810B0000814B000087E
:103A300018B000081CB0000820B0000824B000082E
:103A400028B000082CB0000830B0000834B00008DE
:103A500038B000083CB0000840B0000844B000088E
:103A600048B000084CB0000850B0000854B000083E
:103A700058B000085CB0000860B0000864B00008EE
:103A800068B000086CB0000870B0000874B000089E
:103A900078B000087CB0000880B0000884B000084E
:103AA00088B000088CB0000890B0000894B00008FE
:103AB00098B0000810B50348006810B101480068CC
:103AC000804710BD0401002070B5044600F0C2F824
:103AD000002048490870484908704849087048491A
:103AE00008604849086048490870484908704849D2
:103AF00008704849086048490860484908604849D2
:103B00000870484800680A21B0FBF1F04649086097
:103B10004648006858B14648056845B143480668BC
:103B200003E0761E002028602D1D002EF9D1002014
:103B300040490860404908604049086040490860C1
:103B400040490860404908604049086040490870A1
:103B500002F006FA02F0E6FA204601F095FB208812
:103B600000B170BD204601F077FF208800B1F8E772
:103B7000204601F099FF208800B1F2E7204602F0CC
:103B800065F8208800B1ECE7204602F019FA208899
:103B900000B1E6E7204602F039FC208800B1E0E7FA
:103BA000204602F05BFF208800B1DAE7204601F0F2
:103BB000BFFE208800B1D4E7204601F0D7FC208862
:103BC00000B1CEE7204603F0B9FE208800B1C8E777
:103BD000204602F087FE208800B1C2E7204603F0AD
:103BE00009FF208800B1BCE701F076FAFFF7E4FE98
:103BF00000BFB6E718010020190100206001002075
:103C0000B8010020BC01002046010020470100202F
:103C10004801002054010020580100205C010020D0
:103C2000680100205CB00008640100202CB000088E
:103C300028B00008F8000020FC000020000100204F
:103C400004010020080100200C01002010010020C8
:103C500096010020064800680649096800EB8100CB
:103C6000054908600846006820F0070008607047B2
:103C700028B000082CB00008C001002008480078D7
:103C8000012800D0704707480078FA2800DBF9E7E0
:103C900004480078401C0349087000BFF2E70000A8
:103CA000190100201801002010B500242D480078CB
:103CB000012800D010BD00BFFCF786FA044600BF03
:103CC0002948007828B900BF2046FCF781FA00BFD8
:103CD000F0E725480078401E234908700846007820
:103CE000002805DD00BF2046FCF772FA00BFE1E7BF
:103CF0001E480078002805DD00BF2046FCF768FA62
:103D000000BFD7E702F018F9194908700846007893
:103D100000EB4000174951F8200017490860084699
:103D2000006816490968884205D100BF2046FCF7A3
:103D30004FFA00BFBEE710480068D0F89000401C62
:103D40000D490968C1F890000D480068401C0C49F5
:103D50000860FCF7A5FD00BF2046FCF739FA00BF5C
:103D600000BFA7E719010020180100206001002012
:103D700047010020B0B50020BC010020B8010020A0
:103D80008C01002010B500241F480078002800DDB9
:103D900010BD1E480078002800DDF9E700BFFCF7E1
:103DA00013FA044600BF02F0C7F819490870084624
:103DB000007800EB4000174951F8200016490860D0
:103DC0000846006815490968884205D100BF2046A9
:103DD000FCF7FEF900BFDBE70F480068D0F8900061
:103DE000401C0D490968C1F890000D480068401C4E
:103DF0000B490860FCF74FFD00BF2046FCF7E8F9CF
:103E000000BF00BFC4E700001801002060010020CF
:103E100047010020B0B50020BC010020B8010020FF
:103E20008C01002070B50446002518480078002851
:103E300003DD46F66250208070BD154800780128E9
:103E400003D045F689602080F6E712480078FA280A
:103E500003DB45F209202080EEE700BF00BFFCF73E
:103E6000B3F9054600BF00BF0A480078401C094965
:103E7000087002F037FA00BF00BF2846FCF7A8F927
:103E800000BF00BF0020208000BFD5E71801002040
:103E900019010020600100202DE9F04105460C4683
:103EA0001646002700BF00BFFCF78EF9074600BF8B
:103EB00000BF012D03D000200D49087002E0012051
:103EC0000B49087014B10B48046006E00A4800680A
:103ED0000A21B0FBF1F00749086000BF00BF384677
:103EE000FCF776F900BF00BF00203080BDE8F0810C
:103EF00068010020640100205CB0000870B5044631
:103F0000002520480078002803DD46F66550208013
:103F100070BD1D480078012803D045F689602080D7
:103F2000F6E71A48007818B946F664502080EFE7A3
:103F300000BF00BFFCF748F9054600BF00BF1348AB
:103F40000078401E114908700846007800280ADDF4
:103F500000BF00BF2846FCF73BF900BF00BF46F694
:103F600063502080D4E702F0CBF900BF00BF2846A1
:103F7000FCF72EF900BF00BFFFF704FF00202080F0
:103F800000BFC5E7180100201901002060010020D2
:103F900010B5044612480078E8B901F0CDFF114988
:103FA000087008460078104908700E48007800EB49
:103FB00040000E4951F820000D490860084600688D
:103FC0000C490860012006490870FCF753FC43F6D1
:103FD0009920208002E045F68A60208010BD000014
:103FE000190100204701002046010020B0B5002043
:103FF000BC010020B80100202DE9F04107464FF038
:10400000000800BF00BFFCF7DFF8804600BF00BF1C
:1040100000203D4908603D4908803D4908803D49F0
:1040200008603D4908603D4908603D4908603D49D8
:10403000088100BF00BF4046FCF7CAF800BF00BFC0
:1040400000BF00BFFCF7C0F8804600BF00BF364885
:10405000046800BF00BF4046FCF7BAF800BF00BFCD
:1040600021E000BF00BFFCF7AFF8804600BF00BFF3
:1040700000207834E06320602063A061A082E082A9
:104080006062A062FDF7D4FC2062783C04F1640613
:104090000020B081D4F8BC4000BF00BF4046FCF710
:1040A00097F800BF00BF002CDBD100BF00BFFCF7BA
:1040B0008BF8804600BF00BF1C48056800BF00BFEA
:1040C0004046FCF785F800BF00BF12E000BF00BF0C
:1040D000FCF77AF8804600BF00BF05F120060020FB
:1040E000B081AD6900BF00BF4046FCF771F800BF6A
:1040F00000BF002DEAD103F0FDFA03F077FD0020A8
:104100003880BDE8F08100002C010020260100204D
:1041100076010020880100209C010020A8010020D9
:1041200058010020A4B50020900100204C0100207F
:10413000F8B5044600266946324800F08FFDBDF808
:10414000000018B1BDF800002080F8BD6A460021CB
:10415000022000F0F7FDBDF8000018B1BDF8000026
:104160002080F2E700BF00BFFCF72EF8064600BF34
:1041700000BF00202449086000BF00BF3046FCF7A4
:1041800027F800BF00BF00252048006820490968C3
:10419000884205D91D4800681D490968B0FBF1F542
:1041A00025B91A4800680A21B0FBF1F56A460021DA
:1041B000284600F0C7FD6946124800F063FABDF8D2
:1041C000000018B1BDF800002080BEE700BF00BFAE
:1041D000FBF7FAFF064600BF00BF00200D4908604C
:1041E000094800680C49086001200C49087000BFAC
:1041F00000BF3046FBF7ECFF00BF00BF002020806F
:1042000000BFA2E738BA0020780100205CB00008A7
:1042100044B00008880100207C01002084010020B7
:1042200010B50348006810B101480068804710BD10
:10423000080100202DE9FF4F87B004469046DDE9D4
:104240001BA5DDE91496179F00200390874800788E
:10425000002805DD47F24A1028800BB0BDE8F08F3A
:104260001CB947F2AD102880F7E7B8F1000F03D171
:1042700047F24F102880F0E71EB946F62F602880DD
:10428000EBE77B480068874203D246F6306028801F
:10429000E3E71698B84203D346F631602880DCE79E
:1042A000B9F1400F03D346F273202880D5E7B9F166
:1042B000000F06D16F48844203D046F27320288055
:1042C000CBE7B9F13F0F06D16B48844203D046F2E9
:1042D00073202880C1E7204602F0D0FB0020288010
:1042E0000AF0010090B10AF0020078B105960020B2
:1042F000069008E00021059801600598001D0590D2
:104300000698401C06900698B842F3D3169806EB20
:1043100080000490CDE9007A32464046049B0A9919
:1043200000F06EFB0590C4F828800A98E0620898B7
:10433000206284F83790059820600498A06019984E
:104340006065199818B94D480068A06501E0199892
:10435000A0651A9860606662A763A4F83CA04FF05D
:10436000000B08E0002104F17C0040F82B100BF159
:10437000010000F0FF0BBBF1000FF3D004F164006B
:10438000189901F0DDFB204600F082F800BF00BF65
:1043900000BFFBF719FF039000BF00BF384800784B
:1043A000401C3749087000BF00BF0398FBF710FF9F
:1043B00000BF00BF00BF94F8370001F0DDFD2046CC
:1043C00001F0F8FE204602F00FFB2E480088401C4A
:1043D0002C4908802C48007801282DD000BF00BF50
:1043E00000BFFBF7F1FE039000BF00BF2448007838
:1043F000401E2349087008460078A0B92348008869
:10440000002809DD00BF00BF0398FBF7E1FE00BFF5
:1044100000BF01F03DFF0DE000BF00BF0398FBF7B8
:10442000D7FE00BF06E000BF00BF0398FBF7D0FE39
:1044300000BF00BF00BF10E700BF00BF00BFFBF719
:10444000C3FE039000BF00BF0D480078401E0C491A
:10445000087000BF00BF0398FBF7BAFE00BF00BFA3
:1044600000BFFFF78FFC00BFF7E600001801002037
:1044700058B00008E0B400201CB400206401002003
:104480006001002094010020190100202401002077
:1044900010B504460348006818B120460149096870
:1044A000884710BDF800002070B504460D46002670
:1044B00067480078002803DD47F24E10288070BD61
:1044C0006448844203D147F24C102880F7E76248E1
:1044D000844203D147F24D102880F0E77CB900BF39
:1044E00000BFFBF771FE064600BF00BF5B480468D3
:1044F00000BF00BF3046FBF76BFE00BF00BF00BF30
:1045000000BF00BFFBF760FE064600BF00BF544877
:104510000078401C5249087000BF00BF3046FBF7CE
:1045200057FE00BF00BF00BF94F8360008282DD208
:10453000DFE800F004090E10080A0F11204601F010
:1045400079FE54E053E000BF204603F0B7F84EE098
:1045500000BF00BF00BF204603F0B0F894F834005D
:10456000082810D2DFE800F004070508090A0B0646
:1045700000BF00BF08E000BF00BF00BF00BF204673
:1045800001F02BFC00E000BF00BF30E000BF00BF27
:1045900000BFFBF719FE064600BF00BF3048007899
:1045A000401E2F49087008460078A0B92D480088A1
:1045B000002809DD00BF00BF3046FBF709FE00BF41
:1045C00000BF01F065FE0DE000BF00BF3046FBF705
:1045D000FFFD00BF06E000BF00BF3046FBF7F8FD5F
:1045E00000BF00BF00BF46F62D60288067E700BF10
:1045F00004F1640001F082FA204600F037F820460A
:1046000002F00AFA18480088401E17490880204620
:1046100002F034FAFF2084F8360000BF00BF00BF6C
:10462000FBF7D2FD064600BF00BF0D480078401ED4
:104630000B49087000BF00BF3046FBF7C9FD00BF43
:1046400000BF00BF00202880FFF79CFB00BF36E7BB
:10465000180100201CB40020E0B40020B8010020A4
:1046600060010020240100209401002010B50446C0
:104670000348006818B1204601490968884710BD01
:10468000FC0000207FB504460D46002600BF00BF99
:10469000FBF79AFD064600BF00BF1CB11548006835
:1046A00084420AD100BF00BF3046FBF791FD00BF36
:1046B00000BF47F2571028807FBD00BF00BF3046C3
:1046C000FBF786FD00BF00BF0B48007800280BDD1C
:1046D000002000900190034602462146CDE90205E4
:1046E000064800F07BFFE7E72946204602F03EFB44
:1046F00000BFE1E7B80100201801002054524553E3
:1047000010B504460348006818B1204601490968FD
:10471000884710BD000100202DE9F04780460E4675
:1047200014461D464FF000097D480078002805DD3D
:1047300046F2AE1028800020BDE8F0871EB1B6F525
:10474000004F02D100E000BF04E045F6256028805C
:104750000020F1E700BF0CB10020206000BF00BFC7
:10476000FBF732FD814600BF00BF6E480068406C19
:10477000A8B36C480068406C401E6A4909684864E8
:1047800068480068476C1CB166480068006C20608F
:10479000FDF74EF963490968096C401A61490968D7
:1047A000C1F8A4005F480068D0F8A8005D49096816
:1047B000D1F8A410884207D25A480068D0F8A40063
:1047C00058490968C1F8A80000BF00BF4846FBF778
:1047D000FFFC00BF00BF002028803846ACE7FFE7A1
:1047E00006F4004058B100BF00BF4846FBF7F0FC9C
:1047F00000BF00BF46F2B010288000209CE74A4866
:10480000007800280BDD00BF00BF4846FBF7E0FC46
:1048100000BF00BF46F66350288000208CE700BF31
:1048200041480078401C4049087000BF00BF48461E
:10483000FBF7CEFC00BF00BF00BF434607220021AC
:10484000084601F00FFA00BF00BF00BFFBF7BCFC39
:10485000814600BF00BF34480078401E32490870CE
:1048600000BF00BF4846FBF7B3FC00BF00BF00BF5E
:10487000FFF788FA00BF00BFFBF7A6FC814600BF28
:1048800000BF2848006890F8350020B1012826D0E4
:10489000032834D12CE0FCB122480068006C206071
:1048A000FDF7C6F81F490968096C401A1D490968D7
:1048B000C1F8A4001B480068D0F8A800194909688D
:1048C000D1F8A410884207D216480068D0F8A40096
:1048D00014490968C1F8A8000020288013E01CB121
:1048E00010480068006C206046F2A91028800AE099
:1048F0000CB10020206047F2D920288003E046F662
:104900002E60288000BF00BF06480068476C00BFCB
:1049100000BF4846FBF75CFC00BF00BF38460BE712
:1049200018010020B8010020600100202DE9F047A7
:1049300005460E4617461C464FF0000A2E480078E2
:10494000002804DD47F259102080BDE8F0871EB929
:1049500046F2D5202080F8E71FB946F2D520208006
:10496000F3E700BF00BFFBF72FFC824600BF00BF8C
:104970000DB922480568286868B900BF00BF5046D5
:10498000FBF726FC00BF00BF00203060386047F214
:1049900052102080D9E795F83C0000F0010068B97A
:1049A00000BF00BF5046FBF713FC00BF00BF002054
:1049B0003060386047F254102080C6E700BF00BF67
:1049C0005046FBF705FC00BF00BF4FF00008D5F8CC
:1049D000249003E009F1040908F10108D9F8000066
:1049E0000028F7D0C6F80080A86BA0EB080038605C
:1049F0000020208000BFA8E718010020B801002097
:104A0000F0B50446DDE9055602EB850020F007000D
:104A10004FF0000C071F3846C7F800C04FF4805C09
:104A2000071F3846C7F800C04FF0150C071F38465F
:104A3000C7F800C04FF0140C071F3846C7F800C075
:104A40004FF0130C071F3846C7F800C04FF0120C88
:104A5000071F3846C7F800C04FF0110C071F384633
:104A6000C7F800C04FF0100C071F3846C7F800C049
:104A70004FF0090C071F3846C7F800C04FF0080C6C
:104A8000071F3846C7F800C04FF0070C071F38460D
:104A9000C7F800C04FF0060C071F3846C7F800C023
:104AA0004FF0050C071F3846C7F800C04FF0040C44
:104AB000071F3846C7F800C04FF0030C071F3846E1
:104AC000C7F800C04FF0020C071F3846C7F800C0F7
:104AD0004FF0010C071F3846C7F800C04FF0000C1C
:104AE000071F3846C7F800C04FF0807C071F3846C4
:104AF000C7F800C0071F38463C60DFF85CC1071FDD
:104B00003846C7F800C04FF0123C071F3846C7F8B8
:104B100000C04FF0033C071F3846C7F800C04FF0F5
:104B2000023C071F3846C7F800C0071F38463B60E5
:104B3000071F384639604FF0310C071F3846C7F859
:104B400000C04FF0300C071F3846C7F800C04FF0C8
:104B5000290C071F3846C7F800C04FF0280C071F64
:104B60003846C7F800C04FF0270C071F3846C7F873
:104B700000C04FF0260C071F3846C7F800C04FF0A2
:104B8000250C071F3846C7F800C04FF0240C071F3C
:104B90003846C7F800C04FF0230C071F3846C7F847
:104BA00000C04FF0220C071F3846C7F800C04FF076
:104BB000210C071F3846C7F800C04FF0200C071F14
:104BC0003846C7F800C04FF0190C071F3846C7F821
:104BD00000C04FF0180C071F3846C7F800C04FF050
:104BE000170C071F3846C7F800C04FF0160C071FF8
:104BF0003846C7F800C04FF0113C071F3846C7F8C9
:104C000000C04FF0103C071F3846C7F800C04FF0F7
:104C1000093C071F3846C7F800C04FF0083C071F83
:104C20003846C7F800C04FF0073C071F3846C7F8A2
:104C300000C04FF0063C071F3846C7F800C04FF0D1
:104C4000053C071F3846C7F800C04FF0043C071F5B
:104C50003846C7F800C0F0BDAD6E00087FB5054608
:104C60000C461248854203D147F25B1020807FBD7D
:104C70000F48854203D147F25C102080F7E70D48CA
:104C8000007800280BDD00200090019003460246CA
:104C90002946CDE90204084800F0A0FCE7E72146D8
:104CA000284602F071FB00BFE1E700001CB40020C1
:104CB000E0B40020180100205453555310B51D488E
:104CC000006810B11B4800688047FCF7B1FE04463D
:104CD0001948006819490968884215D016480068C3
:104CE000D0F89800201A14490968C1F894001248B5
:104CF0000068D0F89C0010490968D1F89410084465
:104D00000D490968C1F89C000C480068C0F898403B
:104D100009480068D0F8B40009490968884205D2FA
:104D20000748006804490968C1F8B4000020044934
:104D3000086010BD0C010020B8010020BC0100205B
:104D40005C0100202DE9F04105460E46144600277F
:104D50003F480078002804DD47F275202080BDE838
:104D6000F0813C480078002803DD46F6635020803F
:104D7000F5E736B1022E05D0042E0AD0082E09D14F
:104D800001E000BF00BF1DB947F27E202080E6E7AA
:104D900004E003E045F625602080E0E700BF00BFA7
:104DA00000BF00BFFBF710FA074600BF00BF29484D
:104DB0000078401C2749087000BF00BF3846FBF749
:104DC00007FA00BF00BF00BF01202349096881F82E
:104DD00036002346324629461F48006802F090FB01
:104DE0002088A8B100BF00BF00BFFBF7EDF9074660
:104DF00000BF00BF17480078401E1649087000BF6A
:104E000000BF3846FBF7E4F900BF00BF00BFA6E7CC
:104E10001148006801F00EFA00BF00BF00BFFBF7A9
:104E2000D3F9074600BF00BF0A480078401E094971
:104E3000087000BF00BF3846FBF7CAF900BF00BFCB
:104E400000BFFEF79FFF0020208000BF87E7000023
:104E50001801002060010020B80100202DE9FF5F4B
:104E600005460E4617469846DDE90EA40020009040
:104E700072480078002804DD47F275202080BDE8E4
:104E8000FF9F6F480078002803DD46F663502080BE
:104E9000F5E70AF00E0BBBF1000F09D0BBF1020FD2
:104EA00007D0BBF1040F10D0BBF1080F0ED101E009
:104EB00000BF00BFB8F1000F06D12FB926B91DB948
:104EC00047F27E202080DAE704E003E045F6256023
:104ED0002080D4E700BF2AF01E0008B1012000E0C6
:104EE000002003900398012803D145F62560208017
:104EF000C5E7CAF3001002900298C0B9B8F57A7FEE
:104F000003D347F27B202080B9E73B2F03DD47F234
:104F10007A202080B3E73B2E03DD47F27920208002
:104F2000ADE7632D12DD47F278202080A7E742F23B
:104F30000F70864203DD47F2792020809FE7B5F5A8
:104F40007A7F03DB47F27820208098E73D48D0F84D
:104F500000904FF4FA70B0FBF9F0404400FB09F008
:104F60004FF47A71B0FBF1F14FF461606843C6EB26
:104F7000061200EB8200384400FB091001900198F2
:104F8000002856D000BF00BF00BFFBF71DF90090FE
:104F900000BF00BF2A480078401C2949087000BFA4
:104FA00000BF0098FBF714F900BF00BF00BF01204D
:104FB0002549096881F8360023465A462248019956
:104FC000006802F09DFA2088A8B100BF00BF00BFB2
:104FD000FBF7FAF8009000BF00BF19480078401EA8
:104FE0001749087000BF00BF0098FBF7F1F800BF39
:104FF00000BF00BF43E71448006801F01BF900BF81
:1050000000BF00BFFBF7E0F8009000BF00BF0C48F6
:105010000078401E0A49087000BF00BF0098FBF7E7
:10502000D7F800BF00BF00BFFEF7ACFE0020208015
:1050300002E047F27E20208000BF20E71801002018
:10504000600100205CB00008B801002070B5044683
:10505000002600BF00BFFBF7B7F8064600BF00BF41
:105060000648056800BF00BF3046FBF7B1F800BF37
:1050700000BF00202080284670BD0000980100205D
:1050800010B586B000F01EF8FCF7D2FC044605A867
:1050900000210091CDE9011403900748007800EB4E
:1050A0004000064A02EB800100231A46044800F043
:1050B00095FA06B010BD000046010020B0B50020F2
:1050C0005449434B10B50348006810B101480068CB
:1050D000804710BD10010020244825482548264857
:1050E00026482748274828482848294829482A4840
:1050F0002A482B482B482C482C482D482D482E4810
:105100002E482F482F4830483048314831483248DF
:1051100032483348334834483448354835483648AF
:1051200036483748374838483848394839483A487F
:105130003A483B483B483C483C483D483D483E484F
:105140003E483F483F48404840484148414842481F
:1051500042484348434844484448454845484648EF
:1051600046484748474800BF70470000A0B00008C5
:1051700008B20008A2B00008A3B00008A4B000085C
:10518000A8B00008ACB00008A9B00008D4B000086E
:10519000D5B00008D6B00008D8B00008DAB00008D2
:1051A000DCB00008DEB00008E0B0000800B1000884
:1051B00002B1000804B1000806B1000808B10008F7
:1051C0000AB100080CB1000838B1000839B1000874
:1051D0003AB100083CB100083EB100083FB10008F8
:1051E00040B1000842B1000844B1000846B10008CF
:1051F00048B100084AB100084CB100087CB1000871
:105200007DB100087EB100087FB1000880B10008C0
:1052100082B1000884B10008ACB10008ADB100084B
:10522000AEB10008AFB10008B0B10008B2B10008DB
:10523000B4B10008B8B10008B9B10008BAB10008AB
:10524000BBB10008BCB10008BDB10008BEB1000888
:10525000BFB10008C0B10008C2B10008C3B1000866
:10526000C4B10008C6B10008C8B10008C9B100083F
:10527000CCB1000800B2000801B2000802B2000878
:1052800004B2000806B200080021034A1160034A74
:10529000118001807047000030010020340100209F
:1052A0002DE9F04F85B00446894692469B46DDF8CD
:1052B00038800020009000BF00BFFAF785FF009003
:1052C00000BF00BFBAF1000F0AD0BAF1010F0DD034
:1052D000BAF5004F05D06FF40040504460B906E0C5
:1052E00000BF206A40EA0900206214E000BF206A83
:1052F00020EA090020620EE000BF00BF0098FAF724
:1053000067FF00BF00BF45F62560A8F80000002039
:1053100005B0BDE8F08F00BFC4F824B004F1080068
:1053200001900198008958B900BF00BF0098FAF7B2
:105330004FFF00BF00BF0020A8F80000206AE7E789
:1053400000BF61480078401C5F49087000BF00BF83
:105350000098FAF73DFF00BF00BF00BF0198076843
:10536000BD687FE07868029095F8880000F00F0033
:1053700003900398012821D002282ED0042802D0BF
:10538000082836D10EE0206AD5F8801000EA010620
:10539000D5F88000B04204D15A463146284600F084
:1053A00097F859E0206AD5F8801000EA010626B186
:1053B0005A463146284600F08BF84DE0D5F880007B
:1053C000216A20EA0106D5F88000B04204D15A468D
:1053D0003146284600F07CF83EE0D5F88000216A8E
:1053E00020EA010626B15A463146284600F070F8F8
:1053F00032E000BF00BF00BFFAF7E6FE009000BF3A
:1054000000BF31480078401E2F49087008460078D8
:10541000A0B92E480088002809DD00BF00BF009811
:10542000FAF7D6FE00BF00BF00F032FF0DE000BF6C
:1054300000BF0098FAF7CCFE00BF06E000BF00BF37
:105440000098FAF7C5FE00BF00BF00BF43F6FF207B
:10545000A8F8000000205BE700BF029F0FB1BD6805
:1054600000E00025002D7FF47DAF00BF00BF00BF2E
:10547000FAF7AAFE009000BF00BF13480078401E54
:105480001149087000BF00BF0098FAF7A1FE00BFE5
:1054900000BF00BF0AF4004008B9FEF773FC00BF6C
:1054A00000BFFAF791FE009000BF00BF206A049091
:1054B00000BF00BF0098FAF78BFE00BF00BF0020BE
:1054C000A8F80000049823E76001002024010020D0
:1054D00070B504460E4615463434266500206070CB
:1054E0002070E560A078343C082816D2DFE800F090
:1054F000040508090706101100BF00BF00BF0DE03A
:1055000000BF204601F024FC002084F8360005E0AE
:1055100000BF042084F8360000E000BF00BF204632
:1055200000F05BFC70BD0000002400BF19E000BF6C
:1055300000BFFAF749FE044600BF00BF09480068F3
:10554000401C0849086008480068401C064908607B
:1055500000BF00BF2046FAF73BFE00BF00BFFEF7CA
:10556000A9FAE4E7140100207801002010B58AB000
:10557000044600200E4908600B2000210591CDE96A
:105580000704069108460B4909680B4A12680B4B41
:105590001B68CDE90132CDE903103F200023084A02
:1055A00008A100900C48FEF745FE0AB010BD0000AF
:1055B0001401002004B0000800B00008FCAF00088F
:1055C0002955000875432F4F532D494949204964F7
:1055D0006C65205461736B001CB400202DE9F84FFA
:1055E00004460D4616461F46DDE90BABDDF8289054
:1055F000DDF834800020009000BF00BFFAF7E4FD22
:10560000009000BF00BF2B4800882B4909888842C2
:105610003EDA28480088401C264908802748008830
:105620000988884203DA23480088244908802448EE
:105630000068046022480068856021480068C660F0
:105640001F48006807821E480068C0F814901C4874
:105650000068A0F818A01A480068C0F81CB01848E4
:1056600000684068164908600120164908811648FC
:1056700008604860002000F07FFC1448007818B1F2
:1056800012480078124908700020A8F8000008E0CD
:1056900010480088401C0F49088044F25360A8F865
:1056A000000000BF00BF0098FAF792FD00BF00BFE6
:1056B000BDE8F88F2401002010B00008260100206A
:1056C0001C010020B0B50020E0B4002046010020FD
:1056D00048010020280100203EB5594800680068B4
:1056E000584A811A904279D00FDC57490844002863
:1056F0003ED056490844A8B155490844002860D016
:105700005449084400286AD13FE05348084400281F
:1057100050D052490844002862D05149084400281A
:10572000F1D110E002A8464D00902D68EB69444D80
:105730002D682A8B424D2D686969414D2D68A868F6
:10574000FFF7AEFD7AE002A93D480068C0693C4D14
:10575000CDE900012D682B8B394D2D682A8A384DF3
:105760002D68E968364D2D68A86800F035FC65E0C5
:10577000334B1B68DA69324B1B68198B304B1B6843
:10578000986802AB00F04EFE58E002A92C48006871
:10579000C0692B4DCDE900012D682B8B284D2D685C
:1057A0002A8A274D2D68E968254D2D68A86801F0E3
:1057B000C9F943E022490968886802A901F0D6FACC
:1057C0003CE01F4B1B68DA691D4B1B68198B1C4B97
:1057D0001B68986802AB01F075FB2FE007E02CE036
:1057E00017490968886802A901F0CEFD26E01D4925
:1057F000097801EB41011C4A02EB810000F09EFD9B
:105800000F48006802AB0021C269184801F05AFB3A
:1058100017480068401E164908600846006858B9D5
:10582000144800680860FCF703F9044602AB2246FE
:105830000021114801F046FB00E000BF00BF3EBD63
:10584000200100205449434BADBAB2BE0DF90BFA0A
:10585000F2F8F7FF0006F6FF00F7FDF700FFEFFF95
:1058600003FE0FFE48010020B0B5002074B90020EF
:10587000B4010020B001002038BA0020002700BF8A
:105880004CE0002648E000BF00BFFAF79DFC074649
:1058900000BF00BF2248008888B900202149088144
:1058A0000860486000F07AFB00BF00BF3846FAF796
:1058B0008FFC00BF00BFFEF765FA01262CE000BF99
:1058C00000BF3846FAF784FC00BF00BFFCF7B0F811
:1058D0000546FFF701FFFCF7ABF8441B12480068D0
:1058E000A04201D21048046000BF00BFFAF76CFC70
:1058F000074600BF00BF0D48006840680B490860BC
:1059000007480088401E0649088000BF00BF38468F
:10591000FAF75EFC00BF00BF002EB4D0B1E7000074
:1059200024010020B0B500202C010020200100201F
:10593000F0B589B00546002031490880314800683B
:1059400020B944F25260288009B0F0BD2E4800888A
:10595000022803DA44F254602880F5E700202B493E
:105960000860284804682646203600270CE02848AE
:1059700020600020A060E06020826061208366607B
:1059800020342036781C87B21F4800888742EEDB1F
:10599000203C1C48066866601E4806601E4806607B
:1059A00000201E4908801E4908801E48006818B95A
:1059B00044F255602880C7E71B4800681B49096806
:1059C000884203D244F256602880BDE703200021BC
:1059D0000591CDE90705069113480068144A12683D
:1059E000104B1B68CDE90301CDE9013200910B4654
:1059F000104A11A11748FEF71DFC00BFA4E70000E4
:105A0000280100200CB0000810B000082C01002074
:105A10004E4F4E451C010020200100202401002093
:105A20002601002018B0000820B0000858B0000877
:105A30001CB000087D58000875432F4F532D49496D
:105A40004920495352205175657565205461736B27
:105A500000000000E0B400200021034A1160034A66
:105A60001180018070470000380100203C010020B7
:105A700070B502460B461046114610315E1EB5B297
:105A8000002408E00160002646600681C6601030F0
:105A90001031661CB4B2AC42F4DB002606604660EE
:105AA0000681C66070BD000010B50446104800684D
:105AB00018B945F21E70208010BD0E48008818B934
:105AC00045F21D702080F7E70A4801880848006801
:105AD000FFF7CEFF064800680749086005480088C0
