:020000040800F2
:10000000C049012015030008DF4A0008973F000897
:10001000A54900089D240008B1BB000800000000AD
:100020000000000000000000000000003DA00008EB
:100030006D3B000800000000371E000855A10008B5
:100040002F0300082F0300082F0300082F030008C8
:100050002F0300082F0300082F0300082F030008B8
:100060002F0300082F0300082F0300082F030008A8
:100070002F0300082F03000881310008C131000858
:100080002F030008013200082F0300082F03000887
:10009000A12500082F0300082F0300082F030008E4
:1000A000D9A100082F0300082F0300082F03000820
:1000B00021A2000899A200082F0300082F030008BE
:1000C0002F0300082F0300082F0300082F03000848
:1000D0002F0300082F03000865B40008D5B50008F9
:1000E0002F0300082F0300082F0300082F03000828
:1000F0002F0300082F0300082F03000841320008D7
:100100002F0300082F0300082F0300082F03000807
:1001100069B1000895B200082F0300082F030008FA
:10012000713200082F0300082F0300082F03000876
:100130002F0300082F0300082F0300082F030008D7
:100140006D2800082F0300082F0300082F03000864
:100150002F0300082F030008D932000819B900083E
:100160002F0300082F0300082F0300082F030008A7
:100170002F0300082F0300082F0300082F03000897
:100180002F0300082F03000800F002F800F0B2F877
:100190000AA090E8000C82448344AAF10107DA45E2
:1001A00001D100F0A7F8AFF2090EBAE80F0013F082
:1001B000010F18BFFB1A43F00103184754D6000083
:1001C00074D600000A444FF0000C10F8013B13F005
:1001D000070408BF10F8014B1D1108BF10F8015BA0
:1001E000641E05D010F8016B641E01F8016BF9D193
:1001F00013F0080F1EBF10F8014BAD1C0C1B09D1EA
:100200006D1E58BF01F801CBFAD505E014F8016B5B
:1002100001F8016B6D1EF9D59142D6D370470000ED
:100220000023002400250026103A28BF78C1FBD8FF
:10023000520728BF30C148BF0B6070476E2900F0DD
:100240005982702900F09B8366290DF04881652949
:100250000DF0458167290DF0428161290DF0418142
:1002600003681B0A28BF41F08001692900F006825B
:10027000642900F00382752900F000826F2900F0E4
:100280002883782900F06783E92900F0C382E429F4
:1002900000F0C082F52900F0BD82EF2900F025832F
:1002A000F82900F066830368DB0928BF41F080016C
:1002B000632901F06980732901F06E80E32901F060
:1002C0007980F32901F07E80002070471FB50DF082
:1002D000FCF801F0C9F80400002000210CF0CCFB70
:1002E000401C6060002000210CF0B0FBE0601FBDEE
:1002F00010B510BD01F08AF81146FFF7E7FF0CF0CA
:10030000D5F801F067F903B4FFF7F2FF03BC0BF077
:10031000CFFF00000948804709480047FEE7FEE795
:10032000FEE7FEE7FEE7FEE7FEE7FEE7FEE7FEE7A5
:1003300004480549054A064B7047000071A10008B2
:1003400089010008C0DA0020C0490120C03A01201C
:10035000C03A012072B6704762B67047EFF3108062
:1003600072B6704780F31088704730BF704720BF67
:100370007047B0FA80F0704790FAA0F0B0FA80F0C1
:10038000704790FAA0F070471CB50C46064B7B44B2
:1003900069460090204600F0C6F9044600206946F0
:1003A00000F0D4F920461CBDBB03000040EA010365
:1003B000024630B59B0710D14FF0013400E008C26F
:1003C00008C91D1B9D4315EAC41FF8D013F0FF0197
:1003D00002F8011B0DD01B0AF8E711F8013B002BB6
:1003E00002F8013B05D011F8013B002B02F8013B5C
:1003F000F3D130BD10B5431C02E010F8011B71B100
:100400008107FAD14FF0013202C88C1A8C4314EAEA
:10041000C211F9D0C01A0A0603D0C01E10BDC01AFE
:1004200010BD0A0401D0801E10BD0902FCD0401E80
:1004300010BD032A40F2308010F0030C00F015804C
:1004400011F8013BBCF1020F624498BF11F801CBD7
:1004500000F8013B38BF11F8013BA2F1040298BF3C
:1004600000F801CB38BF00F8013B11F0030300F0A6
:100470002580083AC0F0088051F8043B083A51F84A
:1004800004CBA0E80810F5E7121D5CBF51F8043B4F
:1004900040F8043BAFF30080D20724BF11F8013BC2
:1004A00011F801CB48BF11F8012B24BF00F8013B24
:1004B00000F801CB48BF00F8012B704710B5203A77
:1004C000C0F00B80B1E81850203AA0E81850B1E80D
:1004D0001850A0E81850BFF4F5AF5FEA027C24BFC3
:1004E000B1E81850A0E8185044BF18C918C0BDE8BA
:1004F00010405FEA827C24BF51F8043B40F8043B83
:1005000008BF7047D20728BF31F8023B48BF11F837
:10051000012B28BF20F8023B48BF00F8012B704791
:100520004FF000020429C0F0128010F0030C00F01C
:100530001B80CCF1040CBCF1020F18BF00F8012B9A
:10054000A8BF20F8022BA1EB0C0100F00DB85FEA68
:10055000C17C24BF00F8012B00F8012B48BF00F834
:10056000012B70474FF0000200B5134694469646A3
:10057000203922BFA0E80C50A0E80C50B1F12001B6
:10058000BFF4F7AF090728BFA0E80C5048BF0CC064
:100590005DF804EB890028BF40F8042B08BF7047C2
:1005A00048BF20F8022B11F0804F18BF00F8012B34
:1005B000704770477047704770B50446856900689A
:1005C000C10601D5302600E02026C00707D070BD47
:1005D000D4E9012130469047206A401C20626D1EFC
:1005E000F6D570BD70B5044685690078C00707D19F
:1005F00070BDD4E9012120209047206A401C206270
:100600006D1EF6D570BD09684A0501D540B2704728
:10061000C905FCD500B2704709684A0501D5C0B2CA
:100620007047C905FCD580B2704770B50C460546C9
:10063000012A05D02878800600D5EA69002302E067
:10064000012305E05B1C934202D2E05C0028F9D153
:10065000A869E618C01AA861286A184428622846C2
:10066000FFF7AAFF04E0D5E9012114F8010B904738
:10067000B442F8D32846FFF7B5FF70BD2DE9F0412D
:100680000646002410687529314616A510D0FFF7DC
:10069000BAFF002802DA404213A507E031688A0752
:1006A00001D512A502E0490704D511A5012401E0F6
:1006B000FFF7B2FF00210A2206F1240709E0B0FB90
:1006C000F2FCB0FBF2F302FB1C0030307854184609
:1006D000491C0028F3D123462A463046BDE8F041A4
:1006E00000F061BA000000002D0000002B000000A7
:1006F0002000000011680268006A530501D50870E7
:100700000AE0D30501D5088006E0130603D5C21719
:10071000C1E9000200E008600120704701694A1C3D
:1007200002610878704700B58FB0CDE90131002132
:10073000059105497944CDE903101146684600F05A
:1007400029F90FB000BD0000E5FFFFFF0A6802F8BD
:10075000010B0A60704700002DE9FF5F15468A46CD
:100760000446DFF8AC80F8440027D8E900103E4684
:10077000CDE9001010E03AF816106A4602A800F021
:1007800025FE411C07D02178890603D5E269391876
:1007900091420DD80744761C2078800602D5E06986
:1007A000B84205DDAE42E6DB3AF816000028E2D199
:1007B000A069C01BA0612046FFF7FEFED8E900102B
:1007C000CDE90010002017E03AF818106A4602A898
:1007D00000F0FCFDB0F1FF3F81460BD000250DF18C
:1007E000080B05E0D4E901211BF8050090476D1CBA
:1007F0004D45F7D308F10100B0428046E4DB206AA2
:10080000384420622046FFF7EDFEBDE8FF9F000060
:10081000AACF00002DE9F0418046D21D22F0070248
:100820000025D2E90002F52915A614D0011E72F1A7
:10083000000106DA0023D0EB030063EB020211A6ED
:1008400008E0D8F800108B0701D50FA602E0490791
:1008500001D50EA601251146002408F1240704E065
:1008600000F05CF930323A55641C50EA0102F7D1CD
:100870002B46324621464046BDE8F04100F093B990
:10088000000000002D0000002B00000020000000F0
:1008900030B4002100F1240408E002F00705D2087A
:1008A000303542EA4372DB086554491C52EA0305BD
:1008B000F3D10468002310A2250707D5A40600D4AD
:1008C00021B1C46901230DA2641EC46130BC00F0D3
:1008D0006AB910B5044621461068FFF79DFE02462E
:1008E0002046BDE810400023D2E7D21D22F00701C8
:1008F000D1E90023CCE70000000000003000000038
:10090000F0B40D460188090502D5214C7C4402E073
:100910001F4C7C440E34002100F1240608E002F054
:100920000F071209E75D42EA03721B097754491C5D
:1009300052EA0307F3D102780023120704D5702D81
:1009400006D009B1022311342246F0BC00F02BB9C5
:1009500001231034F8E770B504460D4621461068AF
:10096000FFF75AFE024629462046BDE870400023A4
:10097000C6E7D21D22F00703D3E90023C0E70368CE
:10098000126843F0200303600823C3610023B7E724
:100990000CCE00002DE9F05F894604464FF0000AB6
:1009A000DFF874B1FB44C0F820A02046E168884716
:1009B000002874D0252806D0D4E901219047206A68
:1009C000401C2062F1E700265F462046E168884728
:1009D0002028054607DB312D05D2781910F8200CA8
:1009E00008B10643F1E7B00701D526F00406C4F8C4
:1009F0001CA00027C4F818A02A2D09D028460BF007
:100A000050FC38B304EB8708303DC8F8185019E0A3
:100A100059F8041B204604EB87029161E16888477E
:100A2000012F054618D1E069002820DA26F02006BB
:100A30001DE0D8F8180000EB800005EB40003038CE
:100A4000C8F818002046E168884705460BF029FCE5
:100A50000028EED1012F0AD02E2D08D12046E168C2
:100A600088477F1C0546022F46F02006C4DBA0699C
:100A7000002803DA404246F00106A061F00701D0E9
:100A800026F010066C2D0BD0682D09D04C2D39D0D6
:100A90006A2D35D0742D35D07A2D33D016E038E05C
:100AA000E1682F4620468847B842054609D16C2F99
:100AB00026D04FF48060E16806432046884705460B
:100AC00004E06C2F1AD04FF4807006430DB3A5F1EB
:100AD0004100192802D8203546F400664A462946C6
:100AE000204626604E46FFF7A9FB80B101280BD0B7
:100AF000F61D26F0070000F1080956E74020E4E75C
:100B00008020D8E70020D6E706F104094DE7284603
:100B100052E7206ABDE8F09F9CCD000030B5B0F1EF
:100B20000A024FEA900E71F100034EEA817EB0EBAB
:100B30000E0061EB91014FEA101E4EEA017E10EBB0
:100B40000E0041EB11114FEA102E4EEA016E10EB30
:100B50000E0041EB11214FEA104E4EEA014E10EB10
:100B60000E0041EB1141401841F100014FEAD00065
:100B700040EA41704FEAD10110EB80054FEA810451
:100B800044EA907444EB01046D1944EB0404521BD5
:100B9000A3414FF0000348BF0A3200D530BD401CCE
:100BA00041F1000130BD2DE9F0470D4699469246CE
:100BB000044600F124080168880604D5E06921F0A4
:100BC0001001216000E00120A84201DD471B00E088
:100BD0000027A1697A1902EB0900081AA0612078A0
:100BE000C00602D42046FFF7E7FC002608E0D4E95F
:100BF00001211AF806009047206A401C761C2062EA
:100C00004E45F4DB2078C0060AD52046FFF7D4FC19
:100C100006E0D4E9012130209047206A401C206280
:100C2000381EA7F10107F4DC07E0D4E9012118F828
:100C300005009047206A401C2062281EA5F101058E
:100C4000F3DC2046FFF7CEFC2078000602D5022018
:100C5000BDE8F0870120FBE770472DE9FF4F0C4608
:100C60001E464FF0FF378BB0D2E90001DDF86080FF
:100C70000A908A46C1F30A5505B93D460021084647
:100C80004FF00000BAF1000F00F4400005DA00EB6D
:100C900080004FF4400101EA50004FEA9059B9F149
:100CA000010F00DDB9460A9850EA4A000ED044F61A
:100CB0001050A5F2FF3545432F14B8F1000F1ED098
:100CC0007542291E1EDDC9F100021CE0B8F1010FBA
:100CD0004FF0000001D0302103E0F24305E0215441
:100CE000401CB042FBDB30460022002121540B990E
:100CF000C1F80880C1E900200FB0BDE8F08FBD1B2E
:100D00006D1CDEE74A4600DA694206A800F0F0FBF7
:100D100006AB93E8070003AB83E8070050460A9947
:100D200000F0A6FC8DE80700A0F500501F380090E9
:100D30000398002D0ADD42F21F014A4608440023B1
:100D400003A90390684600F00FFF09E0A0F50050EA
:100D50004A461F38002303A90390684600F019FF94
:100D60008DE807000004000C03D04FF0FF3041086D
:100D700000E01046B8F1000F03D0002200921546A3
:100D80001EE0751E05D4FFF7C9FE303262556D1E98
:100D9000F9D5B3460122084302D000227F1C04E0AB
:100DA0002078302801D100227F1E002A099784D0A4
:100DB0001DE0112D07DAFFF7B1FE303262556D1CD0
:100DC00050EA0102F5D1084302D00098C8B10EE004
:100DD0000021681E05E0235C625C63542254401EBF
:100DE000491C8142F7DBAB46A81B401E099000203E
:100DF00004F80B000B98099AC0F80880C0E9002B92
:100E00007AE711264FF0000857E72DE9F04F8846A2
:100E10000446D21D22F0070191B0D1E90001CDE9CD
:100E20000A010BF026FA02460B98C00F01D02D20C4
:100E300007E02068810701D52B2002E0202101EA8C
:100E4000C000032A099001D0072A05DB034641466A
:100E5000204600F00DFB0BE12078800601D5E0690B
:100E600000E00620B8F1650F814606D0B8F1660FA4
:100E700018D0B8F1670F70D131E00020B9F1110F2F
:100E8000009001DB112301E009F101030AAA01A985
:100E90000CA8FFF7E2FEDDE90C70002609F1010560
:100EA000834647E001204B4600904FF000470AAAD6
:100EB00001A90CA8FFF7D1FEDDE90DB00C995D4644
:100EC000002610B909F101000D18B9EB050003D493
:100ED000C0F1FF3609F10105A5EB09002BE0B9F1DE
:100EE000010F01DA4FF001090020B9F1110F009054
:100EF000484601DD112300E003460AAA01A90CA817
:100F0000FFF7ABFEDDE90C704D46002683462078E6
:100F100000070AD4AB4500DA5D4601A8012D04DDC7
:100F2000411911F8011C302907D04F4502DA17F199
:100F3000040F04DA012082460FE06D1EEEE7002F59
:100F400002DCED1B3E4403E0781CA84200DD7D1C62
:100F5000B81B00F1010A4FF000472078000703D4C6
:100F6000AA4501DB4FF0FF3A0021B7F1004F0DF128
:100F700043088DF8431024D002202B23002F01DAE0
:100F80007F422D230A21021EA0F1010000DC5FB187
:100F900097FBF1FC97FBF1F201FB1C7C17460CF16F
:100FA000300C08F801CDEEE7A8F1010003702188AC
:100FB000090501D5452100E06521A0F1010800F8EF
:100FC000011C09980FA9A1EB0807FF1D00B1012022
:100FD000411901EBEA70A1693844081A401EA0616A
:100FE0002078C00602D42046FFF7E6FA099828B117
:100FF000D4E901219047206A401C20622078C00675
:1010000022D52046FFF7D8FA1EE0002E04DBB345B8
:1010100002DD01A8805D00E03020D4E90121904785
:10102000206A401C2062761CAAF101005FEA000AD7
:101030000AD100F019FAC0680168405CD4E90121C6
:101040009047206A401C2062281EA5F10105DCDCC7
:1010500007E0D4E9012118F8010B9047206A401CF1
:101060002062381EA7F10107F3DC2046FFF7BAFA29
:10107000032011B041E600002DE9F04F04460D4673
:10108000D21D22F0070089B0D0E9009748463946C2
:101090000BF0EFF80246F80F01D02D2307E020688F
:1010A000810701D52B2302E0202101EAC0038DF83E
:1010B00020300BB1012000E00020032A824601D03D
:1010C000072A04DB2946204600F0D2F93FE12078C8
:1010D000800601D40D2500E0E569C7F30A560D2D01
:1010E00049DA00214FEA175B08464FF00000002F55
:1010F00000F4400007DA00EB80004FF4400100EB01
:10110000D07001EA60008115012901DD4FF0FF3147
:1011100000224FEA850CBCF1180F06D31346ACF140
:1011200018004FF08052C24003E04FF4801323FABE
:101130000CF30CF10C0CBCF1200F04D3ACF1200C1F
:1011400009FA0CF001E007FA0CF000294FF0004812
:1011500001DD18B90FE00ED140450CD319EB02099F
:101160005F4121B9404502D19F4329EA0209BBEB07
:10117000175F00D0761C2088000502D57B48784494
:1011800002E07A487844193808AA302302F80A3075
:10119000037C0AF10101002E0AF1020A53546A4647
:1011A00002DC4FF0300101E04FF031014FF0010857
:1011B0008DF8001002D0A6F2FF3603E059EA47018D
:1011C00000D06B4E002D02DC2178090704D54FF0CA
:1011D00002082E218DF80110C44600210BE0C7F350
:1011E00003433F01C35C491C6D1E02F8083005290A
:1011F00008F1010801DA002DF1DC00210CE000EB20
:101200001973491C1B786D1E082902F808304FEA33
:10121000091908F1010801DA002DF0DC21688B06BC
:1012200002D516E0A8F10108E04505DD02EB080350
:1012300013F8013C302BF5D0B8F1000F09DD02EBBB
:10124000080313F8013C2E2B03D1090701D4A8F1A0
:101250000108002D05DD3E2102F808106D1E08F181
:101260000108407C002E02F8080008F1010804DAA9
:101270002D20764202F8080002E02B2002F8080038
:101280000A214FF47A70864208F101080BDB96FBC5
:10129000F0F3303302F8083096FBF0F308F1010860
:1012A00000FB136601E0642E0CDB642096FBF0F378
:1012B000303302F8083096FBF0F308F1010800FB28
:1012C000136601E00A2E06DB96FBF1F0303002F8DF
:1012D000080008F1010896FBF1F001FB10603030C6
:1012E00002F80800A16908F1010808EB050202EB09
:1012F0000A00081AA0612078C00602D42046FFF731
:101300005BF9216A08AE01EB0A00206204E0D4E92F
:10131000012116F8010B9047BAF1010AF7D22078A3
:10132000C00602D52046FFF747F96E4609E016F8D9
:10133000010B3E280FD0D4E901219047206A401CC0
:101340002062B8F10108F2D22046FFF74BF909B04C
:101350000320BDE8F08F206A2844206203E0D4E92E
:101360000121302090476D1EEBD3F8E7E6C5000061
:1013700002FCFFFF10B5436913B1AFF3008001E039
:10138000FFF753F9012010BD127800F124010A7013
:1013900000224A700122EDE711684FF0FF32E9E7C1
:1013A00010B5436913B1AFF3008001E0FFF7D4F942
:1013B000012010BD128800F1240182840022C28421
:1013C0000122EDE711684FF0FF32E9E770B51646EC
:1013D0000C46054600F040F8036893F80101012827
:1013E00006D0FF2C0FD8185D68B101202C7070BD9D
:1013F000D3F807013246214603F207130344284677
:10140000BDE8704018474FF0FF3070BD754600F0E2
:10141000EBF8AE4605006946534620F007008546C6
:1014200018B020B5FEF784FFBDE820404FF000065D
:101430004FF000074FF000084FF0000B21F00701BC
:10144000AC46ACE8C009ACE8C009ACE8C009ACE8FF
:10145000C0098D467047000010B500F005F8001D6A
:1014600010BD00BF15B60000004870477CDA0020B0
:101470002DE9F0411F46044603260168072A01F4BE
:10148000006004DB08B116A505E016A503E008B16D
:1014900015A500E015A521F010002060A069C01E70
:1014A000A0610FB1401EA0612046FFF785F84FB143
:1014B000D4E9012138469047206A401C2062C01CB4
:1014C000206206E0206AFAE7D4E9012115F8010B51
:1014D0009047761EF8D22046FFF784F8BDE8F081E9
:1014E0004E414E006E616E00494E4600696E6600C8
:1014F0002DE9F047814616468AB0354878440DC834
:101500008DE80D0032487844801C03AC0DC884E897
:101510000D0041F69B300844372190FBF1F290FB1F
:10152000F1F5A5F1800501FB12041B3C02D56442D4
:10153000012000E00020DFF898A080460027FA4450
:10154000AAF1BE0A0EE0E0070AD03246684607EB71
:10155000470101230AEB810100F01BFB8DE8070026
:1015600064107F1C002CEED1194F7F44AE3F19E070
:10157000E80715D007EB04100DF1180A90E80E00EB
:101580008AE80E00C068F04201D1981908903246EE
:10159000012306A903A800F0FCFA03AB83E80700C7
:1015A0006D10641C002DE3D14FF0010332466946F3
:1015B000B8F1000F03A802D000F0D6FA01E000F065
:1015C000E8FAC9E90001C9F808200AB0BDE8F087C7
:1015D000F8C2000010B50446AFF300802046BDE815
:1015E0001040FEF790BE0000004870475CDA002013
:1015F0004FF0013C50F8042B51F8043B9A4221D1A2
:10160000A2EB0C03934313EACC1317D150F8042B2D
:1016100051F8043B9A4215D1A2EB0C03934313EA11
:10162000CC130BD150F8042B51F8043B9A4209D14A
:10163000A2EB0C03934313EACC13DBD04FF0000072
:10164000704700BFD01A01BAB1FA81F101F0180158
:1016500022FA01F0CB40C1F12001DBB2C0B2C01AC6
:101660002CFA01F3D11A914311EAC311E6D1704764
:101670005FEA400C08BF91F0000F4FEA8C234FEA5D
:10168000C12243EA51514FEA1C5018BF00F5F04007
:101690004FEA300018BF41F000415FEA6C5C00F097
:1016A0002980BCF1FF3F08BF40F080407047130C19
:1016B00006BF12044FF0100C4FF0000C130E04BFC5
:1016C00012020CF1080C130F04BF12010CF1040CF0
:1016D000930F04BF92000CF1020CD30F04BF520011
:1016E0000CF1010C11464FF00002A0F11F00A0EB1D
:1016F0000C00704711F0004F08BF704731F00041F7
:101700003FF4D5AF0B0C06BF09044FF0100C4FF09F
:10171000000C0B0E04BF09020CF1080C0B0F04BFE8
:1017200009010CF1040C8B0F04BF89000CF1020CB1
:10173000CB0F04BF49000CF1010CCCF12003A0EB4E
:101740000C0022FA03F302FA0CF241EA030100F161
:101750000100704720F07F4C80EA030023F07F47B0
:10176000ACEB070303F57C5300F0004003F1FF03EB
:101770002DE980494FEA154B09B44FEA144325EA95
:101780000B4E24EA03480FF2042606EB1327490800
:101790003E785FEA320203FB0667C7F5000707FBE6
:1017A00006F64FEA54374FEAD64606F1020607FB23
:1017B000066CCCF1005C4FEA1C472CEA074C07FB97
:1017C00006F40CFB06F504EB15464FEA961634BFFB
:1017D00000204FF000404FEAD13706FB07FC4FEAEC
:1017E0001C4C0CFB0BF7D21B03FB0CF761EB070146
:1017F0000CFB0EF7B0EB074072EB17420CFB08F73F
:1018000034BFA2EB0742B2EB074261EB17414FEA4C
:101810000C444FEA910706FB07FC4FEA1C4C0CFBFB
:101820000BF7B0EBC74072EB573203FB0CF734BF3A
:10183000A2EBC742B2EBC74261EB57310CFB0EF78C
:10184000B0EBC70072EB57720CFB08F734BFA2EB8A
:10185000C702B2EBC70261EB5771039F4FEA816188
:1018600041EA921104EBCC044FEAD1374FEA82628D
:1018700006FB07FC42EA90124FEA80604FEA1C4CDC
:101880000CFB0BF7D21B03FB0CF761EB07010CFB06
:101890000EF7B0EB074072EB17420CFB08F734BFB2
:1018A000A2EB0742B2EB074261EB17414FEA8C55BE
:1018B0004FEA910704EB9C2406FB07FC4FEA1C4C03
:1018C0000CFB0BF7B0EBC74072EB573203FB0CF786
:1018D00034BFA2EBC742B2EBC74261EB57310CFBFE
:1018E0000EF7B0EBC70072EB57720CFB08F734BF72
:1018F000A2EBC702B2EBC70261EB577115EB4C25A7
:101900004FEA816141EA92114FEA82624FEAD13790
:1019100042EA901206FB07FC44F100044FEA8060A3
:101920004FEA1C4C0CFB0BF7D21B03FB0CF761EBD3
:1019300007010CFB0EF7B0EB074072EB17420CFBF4
:1019400008F734BFA2EB0742B2EB074261EB174145
:1019500015EB1C154FEA813141EA92414FEA823280
:1019600042EA90424FEA80304FEA0C7644F100049C
:1019700048EA03434EEA0B484FF0000EB2EB080C66
:1019800071EB030724BF624639464EEB0E0E4FF053
:10199000000B0018524149414BEB0B0BB2EB080C0A
:1019A00071EB03077BF1000B24BF624639464EEB17
:1019B0000E0E4FF0000B0018524149414BEB0B0B40
:1019C000B2EB080C71EB03077BF1000B24BF6246FE
:1019D00039464EEB0E0E51EA020718BF46F00106DB
:1019E00016EB0E7655F1000254F1000103D5BDE867
:1019F0008901BDE80088BDE88901BDE80048B61945
:101A0000524141EB0101A3F10103704780807F7EC9
:101A10007D7C7B7A79787776767574737271717064
:101A20006F6E6E6D6C6C6B6A6A6968686766666516
:101A30006464636362616160605F5F5E5E5D5D5CA4
:101A40005C5B5B5A5A595958585757565655555515
:101A50005454535352525251515050504F4F4F4E75
:101A60004E4D4D4D4C4C4C4B4B4B4A4A4A494949C3
:101A70004848484747474746464645454544444405
:101A8000444343434342424242414141002B9C462E
:101A900030D477002BD01CB54FEA370703B44FF092
:101AA00010004FF01001BAF1000F06D0BCF1000F8A
:101AB000DCBF40F0080040F008014FF000000FBC10
:101AC000BDE810400BF1010BBBF1010F08BF5FEA4D
:101AD000170722BF12F1010211F101014FF000417D
:101AE00043F1000300F0004043EA00007047F9D3DF
:101AF0005708D0E746EA064613F1400F4FEA16466C
:101B00001FDD13F1200FDFBF16430A4600212033EB
:101B10005B42BED0C3F1200746EA064602FA07F749
:101B20004FEA164646EA0706C3F1200722FA03F2F7
:101B300001FA07F721FA03F14FF0000342EA070226
:101B4000A7E746EA020646EA06464FEA164646EA8E
:101B50000106BCBF46EA0646360C4FF000034FF0C4
:101B600000024FF0000194E72DE9804C9A4693461D
:101B700070B491E8380007C831EA400C48BF34EA35
:101B8000430C03D5FFF7E6FDFFF780FFF0BCBDE88F
:101B9000008C2DE9804C9A46934670B491E8380049
:101BA00007C810F0804F08BF13F0804F03D100F03A
:101BB00005F8FFF76BFFF0BCBDE8008C20F07F4715
:101BC00080EA030023F07F4C07EB0C03A3F57C5362
:101BD00000F00040A3F1FE0392F0000F00F0B3808C
:101BE00095F0000F00F077802DE901494FEA114090
:101BF0004FEA144621EA004800FB06FC24EA0647A7
:101C000008FB06F607FB08F800FB07F718EB064889
:101C10004CEB164C4FEA124B18EB07484FEA1546AF
:101C20004CEB174022EA0B4E0BFB06FC25EA06475D
:101C30000EFB06F607FB0EFE0BFB07F71EEB064E30
:101C40004CEB164C4FF000061EEB074E4CEB174BBF
:101C500018EB0B0840F1000018EB0E0B58EB0008D6
:101C600040F100008F1A4FF000013CBFC943661BD2
:101C700014BFB5EB040C00213CBFC943F61B4FEA6F
:101C800017444EEA8E0E27EA04454FEA1C4704FB30
:101C900007622CEA074C05FB07F70CFB05F604FB73
:101CA0000CFC16EB074642EB174216EB0C4642EBD8
:101CB0001C421BEB060658EB0202414146EA9E0617
:101CC00001D5BDE80189B619524141EB0101A3F1EB
:101CD0000103BDE801894FEA14454FEA114724EAA0
:101CE000054621EA074C05FB07F406FB07F70CFB4A
:101CF00006F105FB0CFC11EB074144EB17444FEADE
:101D0000124711EB0C4144EB1C4422EA074C05FB43
:101D100007F206FB07F70CFB06F605FB0CFC16EBBF
:101D2000074642EB174216EB0C4642EB1C456A187D
:101D300054F1000148BF7047B619524141EB01010F
:101D4000A3F10103704795F0000F37D04FEA11421D
:101D50004FEA144721EA024624EA074C02FB07F146
:101D600006FB07F70CFB06F402FB0CFC14EB074424
:101D700041EB17414FEA154714EB0C4441EB1C4172
:101D800025EA074C02FB07F506FB07F70CFB06F6F6
:101D900002FB0CFC16EB074645EB174516EB0C4611
:101DA00045EB1C42121951F1000148BF7047B619AA
:101DB000524141EB0101A3F1010370474FEA144581
:101DC0004FEA114724EA054621EA074C05FB07F1D3
:101DD00006FB07F70CFB06F24FF0000605FB0CFCB8
:101DE00012EB074241EB174112EB0C4251EB1C4145
:101DF00048BF7047921841EB0101A3F101037047FE
:101E000022484FF6FF710170002080F309882048B6
:101E1000016881F308881F484FF08051016062B665
:101E2000FEE71C484FF080510160704719484FF0A1
:101E300080510160704772B6EFF3098050B11EF017
:101E4000100F08BF20ED108A203880E8F00F1249EB
:101E50000968086000B5114880475DF804EB104838
:101E600010490A7802700C480F490A68026010682D
:101E700090E8F00F20301EF0100F08BFB0EC108A71
:101E800080F309884EF0040E62B6704722ED00E040
:101E90007001002004ED00E068010020895E000868
:101EA000F6000020F70000206C01002000B58DB086
:101EB0000121042007F044F90121080207F070F91C
:101EC0000F200B9003208DF8300000208DF8330098
:101ED0000BA9234801F0E2FF002007900A90099027
:101EE0004FF48030089007A800F04AF800200190D5
:101EF00001208DF808008DF809000020039005905E
:101F000004208DF8180001A9164800F067F807238F
:101F100001220A21134800F08BF8072302220B212B
:101F2000104800F085F8072303220C210D4800F02B
:101F30007FF8072304220D210A4800F079F80121D7
:101F4000084800F040F80121064800F031F801216E
:101F5000044800F009F8034800F0C6F80DB000BDD1
:101F6000000802400020014021B1826842F00102D5
:101F7000826003E0826822F0010282607047000004
:101F80000021084A1168084A1140D0E900231A4389
:101F900083681A43C3681A431143044AC2F80413FE
:101FA0007047000004230140E030FCFF00200140A6
:101FB00021B1826842F48072826003E0826822F478
:101FC00080728260704721B1826842F40072826040
:101FD00003E0826822F400728260704730B50246E6
:101FE000002000235068104C20400D790C6844EA12
:101FF00005242043506090680C4C2040D1E90354E4
:102000002C438D682C434D7944EA4504204390606D
:10201000D06A20F470000C7D641EE4B2234340EAD1
:102020000350D06230BD0000FFFEFFFCFDF7FFC093
:10203000F0B504460D4600200021092D11DDE068B1
:10204000A5F10A0606EB4607072606FA07F18843BC
:10205000A5F10A0606EB460603FA06F10843E0601E
:102060000CE0206905EB4507072606FA07F18843CF
:1020700005EB450603FA06F108432061072A0FDA4B
:10208000606B561E06EB86071F2606FA07F188438B
:10209000561E06EB860605FA06F10843606322E049
:1020A0000D2A0FDA206BD61F06EB86071F2606FACD
:1020B00007F18843D61F06EB860605FA06F10843AA
:1020C000206310E0E06AA2F10D0606EB86071F26EA
:1020D00006FA07F18843A2F10D0606EB860605FA1B
:1020E00006F10843E062F0BD816841F08041816003
:1020F0007047000070B5454800680088801E81B2B6
:102100004348006800F082FE0446E5B2260A3F48D4
:1021100000680088801E3E490968085CA84239D1E1
:102120003A4800680088401E39490968085CB04296
:1021300030D1374800684078042817D006DC0128E1
:102140000BD002280CD003281CD10CE0052810D09D
:10215000062811D0102815D111E007F02DF918E04C
:1021600007F0C0F915E007F075FA12E007F0E0FAA1
:102170000FE007F071FB0CE007F0C8FB09E007F087
:1021800025FC06E022490968487804210AF030F964
:1021900000BF37E01E480068407804281DD006DCE8
:1021A00001280BD002280ED003282AD110E00528E0
:1021B00018D006281BD0102823D11DE008210120AB
:1021C0000AF016F91DE0082102200AF011F918E0C2
:1021D000082103200AF00CF913E0082104200AF07A
:1021E00007F90EE0082105200AF002F909E00821AC
:1021F00006200AF0FDF804E0082110200AF0F8F8A3
:1022000000BF00BF0AF05AFB70BD0000980000201C
:10221000900000201FB5684606F0E2FF019804B068
:1022200010BD70B50446002034E122F810400D883E
:10223000054105F001030C2875D2DFE800F0062007
:10224000354C637E94ABC5DBF7F57BB94E8802F164
:10225000180525F81060002618352E5405260C3573
:102260002E544E8B0C3525F8106007E0002602F145
:10227000180525F81060303525F8106007E16BB9B6
:102280008E8802F1180525F81060002618352E54A6
:102290000C352E540C3525F8106004E0002602F1B0
:1022A000180525F81060F2E07BB9CE8802F1180518
:1022B00025F81060002618352E5404260C352E54AF
:1022C00000260C3525F8106004E0002602F1180500
:1022D00025F81060DBE07BB90E8902F1180525F8BE
:1022E0001060002618352E5401260C352E54002679
:1022F0000C3525F8106004E0002602F1180525F8D9
:102300001060C4E083B94E8902F1180525F8106009
:10231000002618352E5406260C352E548E8B0C357F
:1023200025F8106008E0B1E0002602F1180525F854
:102330001060303525F81060A9E073B98E8902F17C
:10234000180525F81060022618352E540C352E5429
:1023500000260C3525F8106004E0002602F118056F
:1023600025F8106093E07BB9CE8902F1180525F8B5
:102370001060022618352E5403260C352E540026E4
:102380000C3525F8106004E0002602F1180525F848
:1023900010607CE07BB90E8A02F1180525F8106008
:1023A000012618352E5405260C352E54CE8B0C35AF
:1023B00025F8106007E0002602F1180525F81060E6
:1023C000303525F8106062E073B94E8A02F11805C5
:1023D00025F81060012618352E5400260C352E5491
:1023E0000C3525F8106004E0002602F1180525F8E8
:1023F00010604CE07BB98E8A02F1180525F8106058
:10240000012618352E5404260C352E5400260C3582
:1024100025F8106007E0002602F1180525F8106085
:10242000303525F8106032E016E0FFE773B9CE8A48
:1024300002F1180525F81060012618352E540C35C8
:102440002E5400260C3525F8106004E0002602F119
:10245000180525F810601AE07BB90E8B02F11805FB
:1024600025F81060012618352E5406260C352E54FA
:102470000E8C0C3525F8106007E0002602F11805D7
:1024800025F81060303525F8106000E000BF00BF6F
:10249000431CD8B20C28FFF6C8AE70BD00BFFEE7E3
:1024A0002DE9F0418AB004460D4616461F46DDF878
:1024B00040800121022006F043FE0121480606F07B
:1024C0004FFE4FF44070089002208DF82400002049
:1024D0008DF8260003208DF8250001208DF82700B7
:1024E00008A92D4801F0DAFC092208212A4801F048
:1024F0001DFD09221146284801F018FD00208DF825
:102500001A008DF81B008DF81C0001208DF81D00AD
:1025100000208DF81E008DF81F008DF816808DF8B4
:1025200017408DF818608DF81950ADF8147005A992
:102530001A4800F034FA00208DF80E008DF80F00D4
:1025400001208DF810000020ADF80400ADF8060061
:10255000ADF80800ADF80A00ADF80C0001208DF8C8
:10256000110001A800F08EF9012202210B4800F0B1
:102570000DFA14208DF8000001208DF801000020D4
:102580008DF8020001208DF80300684602F0B4FACD
:1025900000200AB0BDE8F081000402400064004061
:1025A00030B587B00024514A0021514800F081FA2B
:1025B0004E4800680C2829D100BF0BE04B48C07A78
:1025C00080F0FF00204100F0010080F00100494947
:1025D0000855641C082CF1DB00240DE04348007B07
:1025E00080F0FF00204100F0010080F00101414A2D
:1025F00004F108001154641C042CEFDB3B48407BC1
:10260000552803D104213C4800F07AF83748006887
:10261000062817D13548C07A40B238498871334806
:10262000007B41B23548C1713048407B41B23348EC
:1026300001722E48807B08B1012100E000212F4863
:10264000417251E02948006803281ED100252B481B
:10265000807E042800D103E02848807E00B902254E
:102660002648807E012800D101252048C07AC04339
:1026700082B22B46082101A800F0E6FB152201A931
:102680001E481B30FDF7D5FE2EE0184800680428D0
:102690001ED100251948807E042800D103E0174888
:1026A000807E00B901251548807E012800D10225D1
:1026B0000E48C07AC04382B22B46082101A800F020
:1026C000C3FB152201A90D483030FDF7F7FE0BE0E2
:1026D00006480068052807D10448C17A007B41EA12
:1026E000002006494969088007B030BDA495002044
:1026F000006400406500002056000020047A00209D
:10270000F0B585B007460D460024102000900190DA
:1027100000208DF808008DF80A5000BF05E0395DF3
:102720000DF10B000155601C84B2AC42F7DB694629
:102730000C4800F036FA0646002401E0601C84B222
:102740003146084800F0C0FA18B940F6FF708442DC
:10275000F4DB40F6FF70844202DB012005B0F0BDDF
:102760000020FBE7006400402DE9F0418AB00446F8
:102770000D4616461F46DDF840800121022006F076
:10278000DFFC01214FF0C06006F0EAFC60200890F9
:1027900002208DF8240000208DF8260003208DF8FB
:1027A000250001208DF8270008A92E4801F076FBAE
:1027B000092205212B4801F0B9FB092206212948ED
:1027C00001F0B4FB00208DF81A008DF81B008DF885
:1027D0001C0001208DF81D0000208DF81E008DF8D2
:1027E0001F008DF816808DF817408DF818608DF851
:1027F0001950ADF8147005A91B4800F0D0F80E2050
:102800008DF80E0000208DF80F0001208DF81000CB
:102810000020ADF80400ADF80600ADF80800ADF8F2
:102820000A00ADF80C0001208DF8110001A800F09D
:1028300029F8012202210C4800F0A8F840208DF868
:10284000000001208DF8010002208DF80200012017
:102850008DF80300684602F04FF900200AB0BDE889
:10286000F0810000000402400068004010B5034AF7
:102870000021034800F01DF910BD0000A4950020C0
:102880000068004010B50021837A012202FA03F1AA
:102890003D4A126842F001023B4B1A603A4A1C3230
:1028A00012688A43384B1C331A60027BCAB9364A15
:1028B0000C3212688A43344B0C331A604288C38846
:1028C00042EA0343304A4032847A42F83430028884
:1028D000838842EA03432C4A4032847A02EBC402E2
:1028E0005360027B012A19D1274A0C3212680A432D
:1028F000254B0C331A604288038842EA0343224A7C
:102900004032847A42F83430C288838842EA0343F2
:102910001D4A4032847A02EBC4025360C27A3AB94B
:10292000194A121D12688A43174B1B1D1A6006E0D4
:10293000154A121D12680A43134B1B1D1A600289A7
:1029400032B9114A143212688A430F4B14331A6099
:102950000289012A06D10C4A143212680A430A4B32
:1029600014331A60427B012A06D1074A1C321268CE
:102970000A43054B1C331A60034A126822F0010215
:10298000014B1A6010BD0000006600401AB1436997
:102990000B43436102E043698B434361704730B5A9
:1029A000024600200023146824F002041460146816
:1029B00044F00104146000E05B1C546804F001045E
:1029C0001CB94FF6FF74A342F6D1546804F0010419
:1029D0000CB900206CE08C79012C04D1146844F00F
:1029E0008004146003E0146824F080041460CC793F
:1029F000012C04D1146844F04004146003E014680E
:102A000024F0400414600C7A012C04D1146844F0C2
:102A10002004146003E0146824F0200414604C7A4D
:102A2000012C04D1146844F01004146003E014680D
:102A300024F0100414608C7A012C04D1146844F042
:102A40000804146003E0146824F008041460CC7ACD
:102A5000012C04D1146844F00404146003E01468E9
:102A600024F0040414608C78A407CD7844EA05644B
:102A70000D7944EA05444D7944EA05540D886D1EEC
:102A80002C43D461146824F001041460002300E096
:102A90005B1C546804F001041CB14FF6FF74A342A0
:102AA000F6D1546804F001040CB1002000E00120CC
:102AB00030BD10B500F5D87303EB01131B6803F0AC
:102AC00004031372137A53B900F5D87303EB01139F
:102AD0001B6840F2FF7404EA5353136009E000F5E9
:102AE000D87303EB01131B686FF0604404EAD3034F
:102AF000536000F5D87303EB01131B6803F0020366
:102B0000537200F5D87303EB01135B6803F00F03F6
:102B1000937200F5D87303EB01135B681B0AD3743F
:102B200000F5D87303EB01139B68D37200F5D873DB
:102B300003EB01139B681C0A147300F5D87303EBB5
:102B400001139B681C0C547300F5D87303EB01133D
:102B50009B681B0E937300F5D87303EB0113DB68BE
:102B6000D37300F5D87303EB0113DB681C0A1474EC
:102B700000F5D87303EB0113DB681C0C547400F5EB
:102B8000D87303EB0113DB681B0E937421B9C36880
:102B900043F02003C36003E0036943F020030361B3
:102BA00010BD10B502460020936803F08063B3F1B6
:102BB000806F00D110E0936803F00063B3F1006F01
:102BC00001D1012008E0936803F08053B3F1805FE6
:102BD00001D1022000E00420042874D002F5C07363
:102BE00003EB00131B6803F0010402F5C07303EB51
:102BF00000131C600B7A7BB94B7A0C8843EA445370
:102C000002F5C07404EB00142468234302F5C07479
:102C100004EB0014236010E00B7A4C6843EAC40311
:102C20004C7A234302F5C07404EB00142468234358
:102C300002F5C07404EB001423608B7A03F00F03D9
:102C40008B7202F5C07303EB00135B6823F00F0473
:102C500002F5C07303EB00135C6002F5C07303EB75
:102C600000135B688C7A234302F5C07404EB0014F4
:102C700063608B7B1C064B7B44EA03440B7B44EA7A
:102C80000323CC7A234302F5C07404EB0014A36041
:102C90008B7C1C064B7C44EA03440B7C44EA0323F4
:102CA000CC7B234302F5C07404EB0014E36002F50F
:102CB000C07303EB00131B6843F0010402F5C073FB
:102CC00003EB00131C6010BD10B50246002321B1B8
:102CD000012907D002290FD109E090681D4C00EAB4
:102CE00004030BE090681C4C00EA040306E09068C3
:102CF0001A4C00EA040301E0002300BF00BF184C97
:102D0000181BA34216D007DC83B16FF08060184413
:102D100070B1022818D111E0B0F5007F10D0114C2D
:102D2000204448B1B0F5003F0ED10BE002230DE086
:102D300000230BE0002309E0002307E0012305E066
:102D4000012303E0012301E0002300BF00BFD8B24C
:102D500010BD000003000004000300080000031081
:102D6000000100080001FFF710B500F01FF800F0A7
:102D700019F810BD10B5002400BF00BFFDF7EEFA32
:102D8000044600BF00BF1021054801F00DFE00BF42
:102D900000BF2046FDF7E6FA00BF00BF10BD0000EF
:102DA00022BA002010B5FFF7E5FF10BD10B50020D6
:102DB0000249086000F00AF810BD00009C000020E5
:102DC00001490860704700009C00002010B5FFF723
:102DD00021FA04460848006840F0807006490860FF
:102DE0000020064948600846006840F0010008607D
:102DF0002046FFF7E5FF10BDFCED00E0001000E00D
:102E00000149486870470000001000E030B50246F4
:102E10000B464FF6FF70002112E0555C684000241D
:102E20000AE000F0010525B140104AF201056840B2
:102E300000E04010651CACB2082CF2DB4D1CA9B2BE
:102E40009942EADB30BD00002DE9FF4F87B00D4607
:102E500093469A4600245E460027A046681E01213C
:102E600001FA00F900BF00208DF804008DF815006C
:102E70008DF816008DF817008DF818000027804691
:102E800000240CE046FA04F000F0010028B19DF89F
:102E90001600401CC0B28DF81600601C84B2AC4213
:102EA000F0DB00240AE046FA04F000F0010010B95B
:102EB000781C87B200E02C46601C84B2AC42F2DB86
:102EC00000240CE006FA04F000EA090020B908F139
:102ED00001001FFA80F800E02C46601C84B2AC426E
:102EE000F0DB3C4611E046FA04F000F0010050B976
:102EF0009DF804200DF1050084549DF80400401C49
:102F0000C0B28DF80400601C84B2A5EB0800A0429A
:102F1000E9DC9DF8040000281FDD01208DF8150074
:102F20009DF80400012818DD002411E00DF10500D2
:102F3000611C415C005D081A012800D106E09DF883
:102F40001500401CC0B28DF8150000BF601C84B293
:102F50009DF80400401EA042E8DC9DF8160030B940
:102F600000208DF8170001208DF81800D7E09DF89B
:102F7000040000286BDD9DF815000128F6D1BAF198
:102F8000020F10D144460BE006FA04F000EA0900F3
:102F900018B129FA04F0864300E02C46601C84B284
:102FA000AC42F1DB5FE7BAF1010F10D13C460BE018
:102FB00046FA04F000F0010018B10120A040864359
:102FC00000E02C46601C84B2AC42F1DB4BE7BAF166
:102FD000000F38D1B84510DD3C460BE046FA04F04E
:102FE00000F0010018B10120A040864300E02C460B
:102FF000601C84B2AC42F1DB91E0B84510DA444683
:103000000BE006FA04F000EA090018B129FA04F00E
:10301000864300E02C46601C84B2AC42F1DB22E720
:10302000B8457CD144460AE006FA04F000EA0900FB
:1030300018B929FA04F0304386B2601C84B2E81B48
:10304000A042F1DC6BE001208DF8180067E09DF8EC
:10305000160039490978884254DD9DF81600A842C7
:1030600003D100208DF8170059E0BAF1020F0FD1FB
:10307000444604E029FA04F08643601C84B29DF8BB
:1030800016002D490978401A4044A042F2DCEAE6D5
:10309000BAF1010F0FD13C4604E00120A040864365
:1030A000601C84B29DF8160023490978401A384400
:1030B000A042F2DCD7E6BAF1000F30D1B8450FDDFF
:1030C0003C4604E00120A0408643601C84B29DF889
:1030D000160019490978401A3844A042F2DCC2E6C9
:1030E000B8451CDA444604E029FA04F08643601C23
:1030F00084B29DF8160010490978401A4044A04255
:10310000F2DCB0E69DF81600A84205DCA8EB07004B
:1031100040B28DF8170002E001208DF8180015224A
:1031200001A90648FDF785F9152201A90798FDF7C1
:1031300080F90BB0BDE8F08F880000200C960020CD
:1031400070B50446204601F0C7FA20B1002061683E
:1031500009F010FB70BD2568002605E06E68294661
:10316000002009F007FB35466068A842F6D1606888
:1031700020600020616809F0FDFA00BFEAE7000066
:1031800010B501F061FE0B490B4800F08FF968B1F2
:10319000012240F22661094808F050FC0549064822
:1031A00000F0AEF80021044800F0C4F801F062FE1F
:1031B00010BD000000800018586002400048004028
:1031C00010B501F041FE0B490B4800F06FF968B1F2
:1031D000012240F22661094808F030FC0549064802
:1031E00000F08EF80021044800F0A4F801F042FE3F
:1031F00010BD00002080002070600240004C0040A4
:1032000010B501F021FE0B490B4800F04FF968B1F1
:10321000012240F22661094808F010FC05490648E1
:1032200000F06EF80021044800F084F801F022FE5E
:1032300010BD000000802020A0600240004400403B
:1032400010B501F001FE0849084800F02FF938B127
:103250000549064800F054F80021044800F06AF8D7
:1032600001F008FE10BD000000800028B860024098
:103270002DE9F04100261449144800F017F900B375
:10328000002418E0002507E0114800EBC50030F8E5
:1032900014000644681CC5B21E2DF5DB1E2096FBEB
:1032A000F0F7384609F08DFE0A4A02EBC40203C269
:1032B0000026601CC4B2042CE4DB0349034800F080
:1032C0001FF8BDE8F081000020800010106402406B
:1032D000D07A0020C07B002010B50749074800F0D5
:1032E000E5F838B10449054800F00AF80021034820
:1032F00000F020F810BD000000800028B8640240F3
:103300000246094B9A4201D2084801E006481038AB
:1033100001F000531BB1064B0B40C36002E0044BAD
:103320000B40836070470000106402400060024060
:103330007D0F7D0F21B1026842F00102026003E0BF
:10334000026822F00102026070470000016821F06B
:10335000010101600021016041608160C160016183
:10336000212141614A49884204D13D21484A103A0D
:1033700091608CE046491831884205D14FF4746160
:10338000434A103A916082E041493031884205D188
:103390004FF474113E4A103A916078E03C4948314C
:1033A000884205D14FF07461394A103A91606EE05D
:1033B00037496031884204D13649354A103AD160E4
:1033C00065E033497831884204D13349304A103AB4
:1033D000D1605CE02E499031884204D12F492C4ABB
:1033E000103AD16053E02A49A831884205D14FF004
:1033F0003D51274A103AD16049E02949884204D119
:103400003D21274A083A116041E025491831884298
:1034100005D14FF47461224A083A116037E020491F
:103420003031884205D14FF474111D4A083A1160B9
:103430002DE01B494831884205D14FF07461184A8C
:10344000083A116023E016496031884204D11149DD
:10345000134A121F11601AE011497831884204D1D1
:103460000D490F4A121F116011E00D499031884239
:1034700004D10A490A4A121F116008E00849A8311C
:10348000884204D14FF03D51054A121F1160704728
:10349000106002403D000020400F002000003D2051
:1034A000106402400146486880B2704770B5024619
:1034B000002000240025124EB24201D2114B01E03F
:1034C0000F4B103B104E0E4036B11E2606EAD1249B
:1034D000166806EA040502E0566906F0800501F068
:1034E00000560EB15C6800E01C68084E344004EAE7
:1034F000010616B10DB1012000E0002070BD0000F2
:1035000010640240006002403C0F3C0F7D0F7D0FB5
:1035100010B501F080034BB122B1436943F0800341
:10352000436103E0436923F08003436180290BD0AA
:103530002AB1036801F01E042343036004E003681A
:1035400001F01E04A343036010BD000010B500226B
:103550000268134B1A40CC680B6823434C69234321
:103560008C692343CC6923430C6A23434C6A23436D
:103570008C6A23434C6B23438C6B23431A430260B6
:10358000426922F00702D1E90B3423431A43426116
:103590000B6943604B6883608B68C36010BD00009B
:1035A0003F801CF04160704700B591B00121480593
:1035B00005F0C6FD00213A48FFF7BCFE3848FFF78A
:1035C000C5FE4FF0006001903648029036480390E7
:1035D00040200490FA200590002006904FF480606F
:1035E00007900020089009904FF480700A90002006
:1035F0000C9003200D9000040B9000200E900F9073
:1036000001A92748FFF7A2FF00212548FFF792FEF6
:10361000012210212248FFF77BFF002120481838A3
:10362000FFF788FE1E481838FFF790FE4FF0006045
:1036300001901C4802901D48039000200490FA203D
:103640000590002006904FF48060079000200890BD
:1036500009904FF480700A9000200C9003200D9088
:1036600000040B9000200E900F9001A90C48183810
:10367000FFF76CFF01210A481838FFF75BFE1120A5
:103680008DF8400002208DF841008DF842000120A5
:103690008DF8430010A801F02FFA11B000BD000012
:1036A000A060024004440040DA7C0020E07B00205F
:1036B00000B591B00121480505F042FD00213A48CE
:1036C000FFF738FE3848FFF741FE4FF000600190E9
:1036D000364802903648039040200490FA20059026
:1036E000002006904FF48060079000200890099019
:1036F0004FF480700A9000200C9003200D9000047D
:103700000B9000200E900F9001A92748FFF71EFF95
:1037100000212548FFF70EFE012210212248FFF765
:10372000F7FE002120483038FFF704FE1E483038ED
:10373000FFF70CFE4FF0006001901C4802901D48FE
:10374000039000200490FA200590002006904FF48A
:10375000806007900020089009904FF480700A90D4
:1037600000200C9003200D9000040B9000200E9080
:103770000F9001A90C483038FFF7E8FE01210A48F4
:103780003038FFF7D7FD0E208DF8400002208DF86D
:1037900041008DF8420001208DF8430010A801F08F
:1037A000ABF911B000BD0000586002400448004071
:1037B000CE7E0020D47D002000B591B001214805C7
:1037C00005F0BEFC00213A48FFF7B4FD3848FFF78A
:1037D000BDFD4FF0006001903648029036480390DE
:1037E00040200490FA200590002006904FF480605D
:1037F00007900020089009904FF480700A900020F4
:103800000C9003200D9000040B9000200E900F9060
:1038100001A92748FFF79AFE01212548FFF78AFDF5
:10382000012210212248FFF773FE00212048303882
:10383000FFF780FD1E483038FFF788FD4FF000602D
:1038400001901C4802901D48039000200490FA202B
:103850000590002006904FF48060079000200890AB
:1038600009904FF480700A9000200C9003200D9076
:1038700000040B9000200E900F9001A90C483038E6
:10388000FFF764FE01210A483038FFF753FD0F208F
:103890008DF8400002208DF841008DF84200012093
:1038A0008DF8430010A801F027F911B000BD000009
:1038B00070600240044C0040C87F0020C28000209D
:1038C00000B591B00121480505F03AFC00213A48C5
:1038D000FFF730FD3848FFF739FD4FF000600190E9
:1038E000364802903648039040200490FA20059014
:1038F000002006904FF48060079000200890099007
:103900004FF480700A9000200C9003200D9000046A
:103910000B9000200E900F9001A92748FFF716FE8C
:1039200000212548FFF706FD012210212248FFF75C
:10393000EFFD00212048A838FFF7FCFC1E48A838FE
:10394000FFF704FD4FF0006001901C4802901D48F5
:10395000039000200490FA200590002006904FF478
:10396000806007900020089009904FF480700A90C2
:1039700000200C9003200D9000040B9000200E906E
:103980000F9001A90C48A838FFF7E0FD01210A4873
:10399000A838FFF7CFFC2F208DF8400002208DF8CB
:1039A00041008DF8420001208DF8430010A801F07D
:1039B000A3F811B000BD0000B86002400450004000
:1039C000B6820020BC81002000B591B0012188059D
:1039D00005F0B6FB00213A48FFF7ACFC3848FFF78A
:1039E000B5FC4FF0206001903648029036480390B5
:1039F00040200490FA200590002006904FF480604B
:103A000007900020089009904FF480700A900020E1
:103A10000C9003200D9000040B9000200E900F904E
:103A200001A92748FFF792FD00212548FFF782FCF6
:103A3000012210212248FFF76BFD00212048903819
:103A4000FFF778FC1E489038FFF780FC4FF02060AD
:103A500001901C4802901D48039000200490FA2019
:103A60000590002006904FF4806007900020089099
:103A700009904FF480700A9000200C9003200D9064
:103A800000040B9000200E900F9001A90C48903874
:103A9000FFF75CFD01210A489038FFF74BFC4620F8
:103AA0008DF8400002208DF841008DF84200012081
:103AB0008DF8430010A801F01FF811B000BD000000
:103AC000B864024004140140AA840020B08300209E
:103AD00000B591B00121880505F032FB0021204896
:103AE000FFF728FC1E48FFF731FC002001901D481D
:103AF00002901D480390002004907820059000203B
:103B000006904FF480600790400008900990C01024
:103B10000A9000200C9003200D9000040B900020D0
:103B20000E900F9001A90E48FFF710FD0122102101
:103B30000B48FFF7EDFC01210948FFF7FBFB38209C
:103B40008DF8400002208DF8410003208DF84200DE
:103B500001208DF8430010A800F0CEFF11B000BD89
:103B6000106402404C200140D07A0020704710B50C
:103B700004462046FFF7E4FA0020616808F0FAFDE9
:103B800010BD70B504460D462146012000F082FFAD
:103B90002946022000F091FF70BD70B504460D4625
:103BA0002146012000F089FF2946022000F072FF23
:103BB00070BD10B50021012000F07FFF0021022020
:103BC00000F07BFF10BD10B504462146012000F037
:103BD00061FF2146022000F05DFF10BD10B50446D4
:103BE0002146012000F069FF2146022000F065FF18
:103BF00010BD00002DE9F05F07460E464FF4FA6154
:103C00008C48FCF78DFC4FF4FA618B48FCF788FC7C
:103C100000208849A1F8D007884908808549A1F883
:103C2000D2074FF47A718648FCF77AFC4FF47A7128
:103C30008448FCF797FC0024834800F025FD002011
:103C400005E04FF0FF317F4A42F82010401CB0F5EC
:103C50007A7FF6DB39467C4805F062FA0120784924
:103C600021F81700D5E0784800680088B0427AD182
:103C7000641C7548D0F800804FF0000B4FF47A7147
:103C80006D48FCF74DFC00206C4908800EE0B8F848
:103C9000002058460BF1010B674921F810206748B6
:103CA0000088401C65490880D8F80480B8F80000F6
:103CB0000028ECD1614801885F4805F0F9FE5F48B3
:103CC0000288214661A000F09FFA002512E05B48BF
:103CD0000088401EA84206D1574830F8151062A04F
:103CE00000F07CFA05E0544830F8151060A000F0B0
:103CF00075FA6D1C514800888542E8DB4FF00009D9
:103D0000CA4600250DE04C4931F8150000F0CCFC06
:103D1000012805D18146484810F815A04748058874
:103D20006D1C464800888542EDDBB9F1010F05D1D5
:103D3000641E51464FA000F067FA2EE0012C13D10B
:103D4000002006E03C4931F810103A4A22F81010E1
:103D5000401C3A4909888842F4DB384800883549D4
:103D6000A1F8D00719E024E03248B0F8D007334971
:103D70000988884211DD002006E02F4931F8101033
:103D80002C4A22F81010401C2C4909888842F4DB88
:103D90002A4800882749A1F8D0072B4805F0CEF81B
:103DA0000020274921F81600401E264941F8260028
:103DB0002FE02548006800883649088008460088BA
:103DC00008F008FD0546A5B128881E49314A128829
:103DD00041F8220028882F490880084601881A489F
:103DE00005F09EF9012016492A4A128821F812008E
:103DF0000EE0154805F0A2F800201149254A128866
:103E000021F81200411E0F48224A128840F8221061
:103E100000BF0D4800F060FC00283FF424AF0A48C2
:103E2000FFF7A5FE1C48FFF7A2FE0249A1F8D24702
:103E3000BDE8F09FD4440020043D00201400002081
:103E400034350020942500200C000020B5DA3A5BC0
:103E500025645DCCF5C2B7BEB62CBDDAB5E3CAFDAC
:103E60003A5B25645D00000025640D0A0000000037
:103E700025642D00CEDED0A7C2B7BEB6A1BEB0FC71
:103E8000BAACB1DCC8C3B5E3A1BFA1BE2564A1BF74
:103E9000A3A100000000002004000020F0B50A46A5
:103EA00000210023002400BF3DE0012505FA01F3B5
:103EB000156805EA03049C4234D105684F000326C7
:103EC000BE40B543056015794E00B54006683543E0
:103ED00005601579012D02D01579022D16D185685E
:103EE0004F000326BE40B543856055794E00B5406E
:103EF000866835438560456801268E40B543456038
:103F0000456896798E40B6B235434560C5684F0026
:103F10000326BE40B543C560D5794E00B540C6689E
:103F20003543C560491C1029BFD3F0BDF0B500234F
:103F300000244D07ED0E02FA05F3CE1000F1200526
:103F400055F826504E07F70E0F26BE40B543CF104A
:103F500000F1200646F82750CE1000F1200555F854
:103F6000265045EA0304CE1000F1200545F826400E
:103F7000F0BD418370470183704770B504460D461C
:103F8000284602F049F9064606EB860621463046E9
:103F900000F03EFD70BD00BFFEE710B502460020F8
:103FA000002304E014780444E0B2521C5B1C8B42F2
:103FB000F8DB10BD0FB4F8B5044608A800901B4804
:103FC000009A0799FCF7E0F9002000901748FCF7E9
:103FD00011FA86B21648844202D1012015490860C0
:103FE0001548844202D101201449086014488442D3
:103FF00003D1012011493439086000250DE000BFCC
:104000004021204607F0E3FC0028F9D00748415D35
:10401000204607F0A3FD681C85B2B542EFDB0349DB
:10402000002005F0C3FDF8BC5DF814FB22B70020AA
:10403000004400409082414200480040BC0240429F
:10404000004C004070B505460520284988760020C0
:1040500008760846407E10B901F11B0401E0234CAC
:10406000303402E00A2008F011FC207D0028F9D04D
:1040700002E00A2008F00AFCA07C0328F9DBB42D3A
:104080000ED102E00A2008F001FC207D0028F9D0C2
:1040900002E00A2008F0FAFBA07C0328F9DB1EE00E
:1040A000B5F5877F1BD102E00A2008F0EFFB207DE9
:1040B0000028F9D002E00A2008F0E8FBA07C0328E1
:1040C000F9DB02E00A2008F0E1FB207D0028F9D0AE
:1040D00002E00A2008F0DAFBA07C0328F9DB0120CB
:1040E00002490876FFF765FD012070BD047A0020C3
:1040F00070B50546062028498876002008760846CF
:10410000407E10B901F11B0401E0234C303402E081
:104110000A2008F0BBFB207D0028F9D002E00A202D
:1041200008F0B4FBA07C0328F9DBB42D0ED102E02B
:104130000A2008F0ABFB207D0028F9D002E00A201D
:1041400008F0A4FBA07C0328F9DB1EE0B5F5877F0F
:104150001BD102E00A2008F099FB207D0028F9D04D
:1041600002E00A2008F092FBA07C0328F9DB02E0C1
:104170000A2008F08BFB207D0028F9D002E00A20FD
:1041800008F084FBA07C0328F9DB012002490876B3
:10419000FFF70FFD012070BD047A00200FB410B5A9
:1041A0009AB0642101A8FCF7DDF91DA8009001A8D0
:1041B000009A1C99FCF7E8F80020009001A8FCF791
:1041C00019F984B2214601A808F080FB0A2008F002
:1041D0005DFB1AB010BC5DF814FB00000FB408B50D
:1041E00003A800900648009A0299FCF7CDF8002039
:1041F000009003490348FFF7DDFE01B05DF814FBB2
:1042000022B80020004400400FB41CB505A801905E
:104210000C48019A0499FCF7B7F8002001900A4C69
:10422000A0880090E378A278218808A0FFF7D6FF45
:1042300004490A48FFF7BEFE09A0FFF7CFFF1CBCE8
:104240005DF814FB22B90020047A00205B25643A53
:1042500025643A25643A25645D000000004400406E
:104260000D0A00002DE9F0478AB005460C461646B7
:104270001F46DDF848804FF0000900BF00BF00BFB7
:10428000FCF76CF8814600BF00BF28480078401C4E
:104290002649087000BF00BF4846FCF763F800BF1E
:1042A00000BF00BF0A20B4FBF0FA09A803210022D6
:1042B0000592CDE9062113468DE86004CDE903425D
:1042C000089042461AA1384601F09AF800BF00BF94
:1042D00000BFFCF743F8814600BF00BF13480078D9
:1042E000401E1249087008460078A0B9134800889B
:1042F000002809DD00BF00BF4846FCF733F800BFC7
:1043000000BF03F0ABF80DE000BF00BF4846FCF76C
:1043100029F800BF06E000BF00BF4846FCF722F8BE
:1043200000BF00BF00BF0AB0BDE8F0871001002049
:1043300054657374207461736B000000D400002016
:1043400010B58AB0002409A800F0A4FC00BF00BF8B
:1043500000BFFCF703F8044600BF00BF2F480078F9
:10436000401C2E49087000BF00BF2046FBF7FAFF33
:1043700000BF00BF00BF09A8032100220592CDE9BC
:1043800006210890104680210C22254BCDE90132F0
:10439000CDE9031003200023224A23A100902548E1
:1043A00001F02EF800BF00BF00BFFBF7D7FF0446A7
:1043B00000BF00BF19480078401E18490870084621
:1043C0000078A0B91C480088002809DD00BF00BFA4
:1043D0002046FBF7C7FF00BF00BF03F03FF80DE02A
:1043E00000BF00BF2046FBF7BDFF00BF06E000BFD7
:1043F00000BF2046FBF7B6FF00BF00BF00BF09A803
:1044000000F0ACFEFEF7B0FC09A800F077FF09AAA7
:104410000121084600F026FE0AB010BD1001002060
:10442000047800200DC900087374617274207461EF
:10443000736B000040770020D40000204CF6CC4085
:1044400001490860704700000030004010B500F0DE
:1044500013F810BD70B505460C4645F2555000F0F6
:104460001FF8284600F010F8204600F013F800F07E
:1044700003F8FFF7E3FF70BD4AF6AA200149086080
:10448000704700000030004001494860704700005C
:104490000030004001498860704700000030004053
:1044A00001490860704700000030004010B55A20F4
:1044B0000A490870A5204870102088700020C87034
:1044C00008714871887107210448FFF766FD0349A8
:1044D000C871082007F058FB10BD0000C87F0020FD
:1044E00010B55A2010490870A52048700F48D0F820
:1044F000BC00007888700D48D0F8C0000078001229
:10450000C8700A48D0F8C0000078087100204871CF
:10451000887107210448FFF740FD0349C87108204E
:1045200007F032FB10BD0000C87F0020047A002095
:104530002DE9F04186B007468846154600240197CC
:10454000002002908DF80C008DF80E5000BF06E0A0
:1045500018F804100DF10F000155601C84B2AC4234
:10456000F6DB01A90D48FEF71CFB0646002401E01E
:10457000601C84B231460948FEF7A6FB18B940F624
:10458000FF708442F4DB40F6FF70844203DB0120BD
:1045900006B0BDE8F0810020FAE7000000640040AA
:1045A0003748384948619E300861801CC860A2388D
:1045B000C864001D0865801CC867801CC1F88000A5
:1045C000801C8864801C4865811C2E488165891C7C
:1045D000C165891C0166891C4166891C8166891C2C
:1045E000C166891C0167891C4167891C816701F1CB
:1045F0005A002449C1F8A400801CC1F8A800801CFE
:10460000C1F8AC00801CC1F8B000801CC1F8B40037
:10461000801CC1F8B800801CC1F8BC00801CC1F827
:10462000C000801CC1F8C400B830C1F88400801CF0
:10463000C1F88800801CC1F88C00801CC1F8900073
:10464000001DC1F89800801CC1F89C00801CC1F8B6
:10465000A000002008808870C870888001208872BF
:1046600000204876012049690880064908763220F2
:104670000969088050200349C96808807047000014
:1046800074970020047A002070B5054608210020A8
:1046900008F082F8044604B970BD2C606C600020FC
:1046A000606000BFF8E7000001460022002008E03B
:1046B000084B53F820301B888B4201D101220A207D
:1046C000401C0A28F4DB012A01D101207047002098
:1046D000FCE70000587A00200146D1E90020904212
:1046E00001D1012070470020FCE700001CB501212A
:1046F000202004F025FD0121022004F021FD0121EC
:10470000402004F01DFD0121084604F019FD01219F
:10471000042004F015FD0121082004F011FD012101
:10472000102004F00DFD4FF68070009000208DF8F1
:10473000040003208DF8050001208DF8070069466C
:104740004848FFF7ABFB0320009000208DF80400E1
:1047500003208DF8050001208DF8070069464248C6
:10476000FFF79CFB4FF47040009000208DF8040090
:1047700003208DF8050001208DF8070069463B48AD
:10478000FFF78CFB1020009001208DF80400002022
:104790008DF8060003208DF8050001208DF8070034
:1047A00069463348FFF77AFB9820009001208DF886
:1047B000040000208DF8060003208DF8050001207C
:1047C0008DF8070069462B48FFF768FB00202A494F
:1047D00008602A49C1F890027920009001208DF8E4
:1047E000040000208DF8060003208DF8050001204C
:1047F0008DF8070069461B48FFF750FB0020204951
:1048000008604FF6F860009001208DF80400002049
:104810008DF8060003208DF8050001208DF80700B3
:1048200069461148FFF73AFB01201649086000204D
:10483000091D0860091D08600120091D0860091D87
:104840000860104918310860091D0860091D0860DA
:10485000091D0860091D0860091D0860091D086020
:104860001CBD00000010024000180240001402406D
:1048700000000240000402408C824042008040421E
:10488000940242428C02434210B502464FF6FF703A
:10489000088000202EE0431C32F8134021F813401A
:1048A00032F813302BB90B880124844023430B804A
:1048B00004E00B8801248440A3430B80431C012B9C
:1048C00002D1538B4B8312E0431C052B02D1938BF7
:1048D0008B830CE0431C082B02D1D38BCB8306E0E7
:1048E000431C0C2B02D1138C0B8400E000E000BFB2
:1048F000431CD8B20C28CEDB10BD10B502460020F8
:104900000884C8838883488300BF48E002F1180305
:1049100033F81040431C21F8134002F130031B5CB4
:1049200053B902F13C031B5C052B05D102F148038E
:1049300033F810304B832FE002F130031B5C53B986
:1049400002F13C031B5C062B05D102F1480333F84E
:1049500010308B8320E002F130031B5C012B0AD165
:1049600002F13C031B5C052B05D102F1480333F82F
:104970001030CB8310E002F130031B5C012B0AD115
:1049800002F13C031B5C062B05D102F1480333F80E
:1049900010300B8400E000E000BF431CD8B20C28AC
:1049A000B4DB10BD00BFFEE730B505460C4622461D
:1049B0000021284600F001F830BD2DE9F041054600
:1049C0000B4694460027002402E03F021F43641C6C
:1049D000042CFAD3604605F00306294646B1344656
:1049E00003E001F8013B401E641C08B1042CF8D31D
:1049F0000A4601E080C2001F0428FBD2114602E0F3
:104A000001F8013B401E0028FAD1BDE8F08100000A
:104A10002DE9F043024610461D4B4EF660244FF43C
:104A20007A75002600274FF0000C4FF00008B0FB0D
:104A3000F3F9B9F1000F03D0B0FBF3F91FFA89F6CF
:104A4000B0FBF3F903FB1900B0FBF4F9B9F1000F67
:104A500003D0B0FBF4F91FFA89F7B0FBF4F904FBBB
:104A60001900B0FBF5F9B9F1000F03D0B0FBF5F96F
:104A70001FFA89FCB0FBF5F905FB19091FFA89F843
:104A80000E808F7081F803C0A1F80480BDE8F08328
:104A900080EE360038B505460C46002000908DF8B3
:104AA000005001208DF80100E0B28DF802000322D1
:104AB00069460220FFF73CFD38BD38B505460C4677
:104AC000002000908DF800508DF80100E0B28DF8C4
:104AD0000200032269460220FFF72AFD38BD704715
:104AE00000F01F0201219140024A430942F82310BD
:104AF0007047000080E200E070B5002100230F2223
:104B0000C4781CB3174C246804F4E064C4F5E06472
:104B1000C4F30721C1F10404E3B20A4144789C4084
:104B2000E1B28478144021430C07210E0E4C057825
:104B30006155047804F01F050124AC4005786D111F
:104B4000AD0005F1E025C5F8004109E0047804F066
:104B50001F050124AC40054D0678761145F8264026
:104B600070BD00000CED00E000E400E080E100E03A
:104B700002490143024A1160704700000000FA0533
:104B80000CED00E015481648164817481748184815
:104B90001848194819481A481A481B481B481C4805
:104BA0001C481D481D481E481E481F481F482048D5
:104BB00020482148214822482248234823482448A5
:104BC0002448254825482648264827482748284875
:104BD00028482948294800BF7047000094D500089C
:104BE000F4D40008F8D40008FCD4000800D500086C
:104BF00004D5000808D500080CD5000810D5000819
:104C000014D5000818D500081CD5000820D50008C8
:104C100024D5000828D500082CD5000830D5000878
:104C200034D5000838D500083CD5000840D5000828
:104C300044D5000848D500084CD5000850D50008D8
:104C400054D5000858D500085CD5000860D5000888
:104C500064D5000868D500086CD5000870D5000838
:104C600074D5000878D500087CD5000880D50008E8
:104C700084D5000888D500088CD5000890D5000898
:104C800010B50348006810B101480068804710BDA6
:104C9000B400002070B5044600F0C2F80020484976
:104CA00008704849087048490870484908604849F0
:104CB00008604849087048490870484908704849E0
:104CC00008604849086048490860484908704848F1
:104CD00000680A21B0FBF1F04649086046480068C8
:104CE00058B14648056845B14348066803E0761E5A
:104CF000002028602D1D002EF9D1002040490860B9
:104D000040490860404908604049086040490860DF
:104D100040490860404908604049087002F006FABE
:104D200002F0E6FA204601F095FB208800B170BD44
:104D3000204601F077FF208800B1F8E7204601F017
:104D400099FF208800B1F2E7204602F065F820883C
:104D500000B1ECE7204602F019FA208800B1E6E73E
:104D6000204602F039FC208800B1E0E7204602F03E
:104D70005BFF208800B1DAE7204601F0BFFE208803
:104D800000B1D4E7204601F0D7FC208800B1CEE77F
:104D9000204603F0B9FE208800B1C8E7204602F0A3
:104DA00087FE208800B1C2E7204603F009FF208873
:104DB00000B1BCE701F076FAFFF7E4FE00BFB6E70A
:104DC000C8000020C9000020100100206801002058
:104DD0006C010020F6000020F7000020F800002001
:104DE00004010020080100200C010020180100200F
:104DF00054D500081401002024D5000820D500084F
:104E0000A8000020AC000020B0000020B40000206A
:104E1000B8000020BC000020C00000204601002097
:104E2000064800680649096800EB810005490860EA
:104E30000846006820F007000860704720D5000889
:104E400024D500087001002008480078012800D00F
:104E5000704707480078FA2800DBF9E70448007833
:104E6000401C0349087000BFF2E70000C9000020A1
:104E7000C800002010B500242D480078012800D07B
:104E800010BD00BFFBF76AFA044600BF294800784E
:104E900028B900BF2046FBF765FA00BFF0E72548B8
:104EA0000078401E2349087008460078002805DD78
:104EB00000BF2046FBF756FA00BFE1E71E48007826
:104EC000002805DD00BF2046FBF74CFA00BFD7E7FE
:104ED00002F018F9194908700846007800EB400004
:104EE000174951F82000174908600846006816491C
:104EF0000968884205D100BF2046FBF733FA00BF9E
:104F0000BEE710480068D0F89000401C0D490968C1
:104F1000C1F890000D480068401C0C490860FCF77F
:104F200085FF00BF2046FBF71DFA00BF00BFA7E7C3
:104F3000C9000020C800002010010020F700002058
:104F400058D000206C010020680100203C010020A6
:104F500010B500241F480078002800DD10BD1E4851
:104F60000078002800DDF9E700BFFBF7F7F90446F9
:104F700000BF02F0C7F8194908700846007800EB36
:104F80004000174951F8200016490860084600689B
:104F900015490968884205D100BF2046FBF7E2F9B0
:104FA00000BFDBE70F480068D0F89000401C0D49B7
:104FB0000968C1F890000D480068401C0B49086062
:104FC000FCF72FFF00BF2046FBF7CCF900BF00BF66
:104FD000C4E70000C800002010010020F7000020F6
:104FE00058D000206C010020680100203C01002006
:104FF00070B50446002518480078002803DD46F601
:105000006250208070BD15480078012803D045F615
:1050100089602080F6E712480078FA2803DB45F221
:1050200009202080EEE700BF00BFFBF797F9054697
:1050300000BF00BF0A480078401C0949087002F010
:1050400037FA00BF00BF2846FBF78CF900BF00BF4E
:105050000020208000BFD5E7C8000020C900002044
:10506000100100202DE9F04105460C4616460027A8
:1050700000BF00BFFBF772F9074600BF00BF012D5C
:1050800003D000200D49087002E001200B49087090
:1050900014B10B48046006E00A4800680A21B0FB1E
:1050A000F1F00749086000BF00BF3846FBF75AF926
:1050B00000BF00BF00203080BDE8F0811801002053
:1050C0001401002054D5000870B50446002520487E
:1050D0000078002803DD46F66550208070BD1D482D
:1050E0000078012803D045F689602080F6E71A4849
:1050F000007818B946F664502080EFE700BF00BF83
:10510000FBF72CF9054600BF00BF13480078401E8E
:10511000114908700846007800280ADD00BF00BF6A
:105120002846FBF71FF900BF00BF46F663502080FA
:10513000D4E702F0CBF900BF00BF2846FBF712F915
:1051400000BF00BFFFF704FF0020208000BFC5E7BD
:10515000C8000020C90000201001002010B504463E
:1051600012480078E8B901F0CDFF114908700846EF
:105170000078104908700E48007800EB40000E4996
:1051800051F820000D490860084600680C49086085
:10519000012006490870FCF733FE43F69920208071
:1051A00002E045F68A60208010BD0000C9000020A2
:1051B000F7000020F600002058D000206C010020ED
:1051C000680100202DE9F04107464FF0000800BFBC
:1051D00000BFFBF7C3F8804600BF00BF00203D4979
:1051E00008603D4908803D4908803D4908603D49C7
:1051F00008603D4908603D4908603D49088100BF9D
:1052000000BF4046FBF7AEF800BF00BF00BF00BFC5
:10521000FBF7A4F8804600BF00BF3648046800BF13
:1052200000BF4046FBF79EF800BF00BF21E000BF73
:1052300000BFFBF793F8804600BF00BF0020783422
:10524000E06320602063A061A082E0826062A062CF
:10525000FDF7D6FD2062783C04F164060020B081A1
:10526000D4F8BC4000BF00BF4046FBF77BF800BF4E
:1052700000BF002CDBD100BF00BFFBF76FF88046FA
:1052800000BF00BF1C48056800BF00BF4046FBF7D9
:1052900069F800BF00BF12E000BF00BFFBF75EF877
:1052A000804600BF00BF05F120060020B081AD6937
:1052B00000BF00BF4046FBF755F800BF00BF002D00
:1052C000EAD103F0FDFA03F077FD00203880BDE855
:1052D000F0810000DC000020D60000202601002024
:1052E000380100204C010020580100200801002056
:1052F0004CD0002040010020FC000020F8B50446FE
:1053000000266946324800F08FFDBDF8000018B154
:10531000BDF800002080F8BD6A460021022000F0A0
:10532000F7FDBDF8000018B1BDF800002080F2E7DD
:1053300000BF00BFFBF712F8064600BF00BF002009
:105340002449086000BF00BF3046FBF70BF800BFE0
:1053500000BF00252048006820490968884205D917
:105360001D4800681D490968B0FBF1F525B91A48C8
:1053700000680A21B0FBF1F56A460021284600F0DA
:10538000C7FD6946124800F063FABDF8000018B185
:10539000BDF800002080BEE700BF00BFFAF7DEFFC7
:1053A000064600BF00BF00200D490860094800689C
:1053B0000C49086001200C49087000BF00BF30464E
:1053C000FAF7D0FF00BF00BF0020208000BFA2E797
:1053D000E0D400202801002054D500083CD5000866
:1053E000380100202C0100203401002010B50348B2
:1053F000006810B101480068804710BDB800002067
:105400002DE9FF4F87B004469046DDE91BA5DDE995
:105410001496179F0020039087480078002805DD28
:1054200047F24A1028800BB0BDE8F08F1CB947F254
:10543000AD102880F7E7B8F1000F03D147F24F1005
:105440002880F0E71EB946F62F602880EBE77B48FE
:105450000068874203D246F630602880E3E716985A
:10546000B84203D346F631602880DCE7B9F1400F3B
:1054700003D346F273202880D5E7B9F1000F06D197
:105480006F48844203D046F273202880CBE7B9F1FD
:105490003F0F06D16B48844203D046F27320288028
:1054A000C1E7204602F0D0FB002028800AF001006E
:1054B00090B10AF0020078B105960020069008E04D
:1054C0000021059801600598001D05900698401C74
:1054D00006900698B842F3D3169806EB8000049025
:1054E000CDE9007A32464046049B0A9900F06EFBF3
:1054F0000590C4F828800A98E0620898206284F831
:105500003790059820600498A060199860651998F4
:1055100018B94D480068A06501E01998A0651A986F
:1055200060606662A763A4F83CA04FF0000B08E03F
:10553000002104F17C0040F82B100BF1010000F079
:10554000FF0BBBF1000FF3D004F16400189901F0D8
:10555000DDFB204600F082F800BF00BF00BFFAF775
:10556000FDFE039000BF00BF38480078401C37495B
:10557000087000BF00BF0398FAF7F4FE00BF00BF39
:1055800000BF94F8370001F0DDFD204601F0F8FE81
:10559000204602F00FFB2E480088401C2C49088052
:1055A0002C48007801282DD000BF00BF00BFFAF7BB
:1055B000D5FE039000BF00BF24480078401E234959
:1055C000087008460078A0B923480088002809DD43
:1055D00000BF00BF0398FAF7C5FE00BF00BF01F08F
:1055E0003DFF0DE000BF00BF0398FAF7BBFE00BF10
:1055F00006E000BF00BF0398FAF7B4FE00BF00BF8B
:1056000000BF10E700BF00BF00BFFAF7A7FE03907E
:1056100000BF00BF0D480078401E0C49087000BF55
:1056200000BF0398FAF79EFE00BF00BF00BFFFF760
:105630008FFC00BFF7E60000C800002050D500082E
:1056400088CF0020C4CE00201401002010010020CB
:1056500044010020C9000020D400002010B50446F9
:105660000348006818B1204601490968884710BD01
:10567000A800002070B504460D4600266748007853
:10568000002803DD47F24E10288070BD6448844234
:1056900003D147F24C102880F7E76248844203D1D7
:1056A00047F24D102880F0E77CB900BF00BFFAF741
:1056B00055FE064600BF00BF5B48046800BF00BF40
:1056C0003046FAF74FFE00BF00BF00BF00BF00BF6B
:1056D000FAF744FE064600BF00BF54480078401C5D
:1056E0005249087000BF00BF3046FAF73BFE00BFCA
:1056F00000BF00BF94F8360008282DD2DFE800F084
:1057000004090E10080A0F11204601F079FE54E03A
:1057100053E000BF204603F0B7F84EE000BF00BFE3
:1057200000BF204603F0B0F894F83400082810D2E7
:10573000DFE800F004070508090A0B0600BF00BFF8
:1057400008E000BF00BF00BF00BF204601F02BFCF7
:1057500000E000BF00BF30E000BF00BF00BFFAF7AD
:10576000FDFD064600BF00BF30480078401E2F49AF
:10577000087008460078A0B92D480088002809DD87
:1057800000BF00BF3046FAF7EDFD00BF00BF01F0DB
:1057900065FE0DE000BF00BF3046FAF7E3FD00BF35
:1057A00006E000BF00BF3046FAF7DCFD00BF00BFD7
:1057B00000BF46F62D60288067E700BF04F1640053
:1057C00001F082FA204600F037F8204602F00AFA8B
:1057D00018480088401E17490880204602F034FA15
:1057E000FF2084F8360000BF00BF00BFFAF7B6FD07
:1057F000064600BF00BF0D480078401E0B490870E8
:1058000000BF00BF3046FAF7ADFD00BF00BF00BFCC
:1058100000202880FFF79CFB00BF36E7C80000206F
:10582000C4CE002088CF0020680100201001002095
:10583000D40000204401002010B50446034800684D
:1058400018B1204601490968884710BDAC00002006
:105850007FB504460D46002600BF00BFFAF77EFD67
:10586000064600BF00BF1CB11548006884420AD13B
:1058700000BF00BF3046FAF775FD00BF00BF47F21A
:10588000571028807FBD00BF00BF3046FAF76AFD81
:1058900000BF00BF0B48007800280BDD00200090FF
:1058A0000190034602462146CDE90205064800F074
:1058B0007BFFE7E72946204602F03EFB00BFE1E719
:1058C00068010020C80000205452455310B504461A
:1058D0000348006818B1204601490968884710BD8F
:1058E000B00000202DE9F04780460E4614461D46C4
:1058F0004FF000097D480078002805DD46F2AE1023
:1059000028800020BDE8F0871EB1B6F5004F02D117
:1059100000E000BF04E045F6256028800020F1E7A4
:1059200000BF0CB10020206000BF00BFFAF716FDD9
:10593000814600BF00BF6E480068406CA8B36C4849
:105940000068406C401E6A490968486468480068FD
:10595000476C1CB166480068006C2060FDF750FA87
:1059600063490968096C401A61490968C1F8A400D3
:105970005F480068D0F8A8005D490968D1F8A41014
:10598000884207D25A480068D0F8A40058490968EC
:10599000C1F8A80000BF00BF4846FAF7E3FC00BF0B
:1059A00000BF002028803846ACE7FFE706F400403F
:1059B00058B100BF00BF4846FAF7D4FC00BF00BF93
:1059C00046F2B010288000209CE74A480078002862
:1059D0000BDD00BF00BF4846FAF7C4FC00BF00BFA4
:1059E00046F66350288000208CE700BF41480078CD
:1059F000401C4049087000BF00BF4846FAF7B2FC9F
:105A000000BF00BF00BF434607220021084601F047
:105A10000FFA00BF00BF00BFFAF7A0FC814600BF2D
:105A200000BF34480078401E3249087000BF00BFF4
:105A30004846FAF797FC00BF00BF00BFFFF788FA9F
:105A400000BF00BFFAF78AFC814600BF00BF2848AC
:105A5000006890F8350020B1012826D0032834D101
:105A60002CE0FCB122480068006C2060FDF7C8F90A
:105A70001F490968096C401A1D490968C1F8A4004A
:105A80001B480068D0F8A80019490968D1F8A4108B
:105A9000884207D216480068D0F8A4001449096863
:105AA000C1F8A8000020288013E01CB1104800684D
:105AB000006C206046F2A91028800AE00CB100209A
:105AC000206047F2D920288003E046F62E60288027
:105AD00000BF00BF06480068476C00BF00BF4846D3
