:020000040800F2
:1000000020A800209D010008BF31000887290008B2
:1000100085300008FD0E0008D99C00080000000093
:100020000000000000000000000000001182000835
:10003000CD25000800000000AB0800082983000857
:10004000B7010008B7010008B7010008B7010008B0
:10005000B7010008B7010008B7010008B7010008A0
:10006000B7010008B7010008B7010008B701000890
:10007000B7010008B7010008D91B0008191C0008C7
:10008000B7010008591C0008B7010008B7010008B3
:1000900001100008B7010008B7010008B701000807
:1000A000AD830008B7010008B7010008B7010008D8
:1000B000F58300086D840008B7010008B701000847
:1000C000B7010008B7010008B7010008B701000830
:1000D000B7010008B7010008B5950008259700088A
:1000E000B7010008B7010008B7010008B701000810
:1000F000B7010008B7010008B7010008991C000803
:10010000B7010008B7010008B7010008B7010008EF
:1001100061930008E5930008B7010008B7010008E3
:10012000C91C0008B7010008B7010008B7010008A2
:10013000B7010008B7010008B7010008B7010008BF
:10014000D1120008B7010008B7010008B701000884
:10015000B7010008B7010008311D0008619A0008C6
:10016000B7010008B7010008B7010008B70100088F
:10017000B7010008B7010008B7010008B70100087F
:10018000B7010008B7010008DFF80CD000F022FB2F
:100190000048004759AA000820A8002006488047C8
:1001A00006480047FEE7FEE7FEE7FEE7FEE7FEE75C
:1001B000FEE7FEE7FEE7FEE7458300088901000849
:1001C00072B6704762B67047EFF3108072B6704730
:1001D00080F31088704730BF704720BF7047B0FA77
:1001E00080F0704790FAA0F0B0FA80F0704790FA73
:1001F000A0F070472DE9F05F0546002092469B462F
:1002000088460646814640241BE02846414647462C
:10021000224600F09AF953465A46C01A914110D32B
:1002200011461846224600F081F92D1A67EB0108A5
:100230004F4622460120002100F078F917EB000913
:100240004E41201EA4F10104DFDC484631462A4617
:100250004346BDE8F09F40EA01039B0703D009E055
:1002600008C9121F08C0042AFAD203E011F8013BA2
:1002700000F8013B521EF9D27047D2B201E000F8FB
:10028000012B491EFBD270470022F6E710B513463A
:100290000A4604461946FFF7F0FF204610BD421CEF
:1002A00010F8011B0029FBD1801A70472DE9FE4F81
:1002B00081EA030404F0004421F0004100944FF06F
:1002C000000B23F0004350EA01045ED052EA03041D
:1002D0005BD0C3F30A54C1F30A552C44A4F2F3349F
:1002E0000194A0FB0254C1F3130141F48011C3F344
:1002F000130343F4801301FB024400FB034E840A02
:10030000970A44EA815447EA8357A4FB0768029599
:100310008D0A05FB07854FEA932C04FB0C54270537
:10032000029D4FEA065847EA1637B5EB08056EEB13
:10033000070C870E920E47EA811742EA8312A7FB49
:100340000201B6EB0B0164EB00042B0D43EA0C3306
:100350005E1844EB1C50DA465146E7FB0201C5F338
:1003600013044FEA0B3343EA14534FEA0432019C5F
:1003700043EA0603A4F10C040294009CCDE900B406
:1003800000F002F903B0BDE8F08F00200146F9E764
:100390002DE9F04D81EA030404F0004B21F0004503
:1003A00014464FF0000A23F0004150EA050220D025
:1003B00054EA01021DD0C5F30A570246C5F31303E0
:1003C000C1F31300C1F30A5640F4801543F48013BF
:1003D000A7EB0608101BD64608F2FD3873EB0500A4
:1003E00002D308F1010801E092185B41B8F1000F57
:1003F00003DA00200146BDE8F08D00204FF48011A3
:10040000064684460EE0171B73EB050705D3121B47
:1004100063EB050306434CEA010C49084FEA300040
:1004200092185B4150EA0107EDD152EA030012D065
:1004300082EA040083EA0501084305D0101BAB41A2
:1004400006D20122002306E000224FF0004302E022
:100450006FF0010253101AEB06004CEB085110EB41
:100460000A0041EB0B01BDE8F04D00F07EB80EB57F
:10047000C10F80EAE0700844CA07002140F233430C
:100480008DE80E000A460B4600F07EF803B000BD72
:1004900070B5C1F30A5201F000450024C1F3130105
:1004A00040F2FF3341F480119A4201DA002070BD1E
:1004B00040F233439A42A2F2334203DC524200F04C
:1004C00044F800E090402C43F1D0404270BDC1F3AD
:1004D0000A5210B5C1F3130140F2FF3341F4801109
:1004E0009A4201DA002010BD40F233439A42A2F250
:1004F000334203DC524200F028F810BD904010BD9A
:1005000030B50B46014600202022012409E021FAE3
:1005100002F59D4205D303FA02F5491B04FA02F5E0
:100520002844151EA2F10102F1DC30BD202A04DBB3
:10053000203A00FA02F1002070479140C2F12003F6
:1005400020FA03F3194390407047202A04DB203A35
:1005500021FA02F00021704721FA02F3D040C2F1E3
:100560002002914008431946704710B5141E73F1DC
:10057000000408DA401C41F1000192185B411A4363
:1005800001D120F0010010BD2DE9F04D92469B46AF
:1005900011B1B1FA81F202E0B0FA80F22032904655
:1005A000FFF7C4FF04460F4640EA0A0041EA0B0188
:1005B00053465A46084313D0114653EA010019D056
:1005C000C8F140025046FFF7C0FF05460E465046B0
:1005D00059464246FFF7AAFF084305D0012004E030
:1005E00020463946BDE8F08D0020054346EAE07616
:1005F0002C4337430A986305E40AA0EB0800002265
:10060000FD0A44EA47540A3002D500200146E9E7D2
:10061000010510196941DDE9084500196941BDE886
:10062000F04DA2E72DE9FE4F804681EA0300C00F9E
:100630000C46009021F0004123F00045B8EB020089
:10064000A94105D24046214690461C460B4602462B
:1006500023F00040104347D0270DC7F30A00C3F32F
:100660000A510290401A019040286BDAC3F313003C
:1006700040F4801B0098924620B10023D2EB030A7D
:1006800063EB0B0B01985946C0F140025046FFF74F
:100690004DFF06460D4650465946019A00F0ACF80B
:1006A00010EB08006141002487EA115284EAE773E5
:1006B0001A4340D0009A62B3019A012A4FEA0752C6
:1006C00015DC001B61EB02014FF0004202EA075209
:1006D000CDE90042001C41F5801132462B46FFF760
:1006E00053FF03B0BDE8F08F40462146F9E7001BF9
:1006F00061EB0201001C41F5801300185B412018DA
:10070000A2F5001747EB030140EAD570B6196D4119
:1007100011E06D084FEA360645EAC0754FEA075208
:10072000001B61EB0201001C41F5801149084FEAF2
:1007300030000019514132462B4603B0BDE8F04F5E
:10074000FFF713BF0098012240000023D0EB020204
:1007500063EBE073009821464FEAE074B8EB0000C9
:1007600061EB0401E9E783F000435BE781F00041BE
:1007700058E7C1F30A52C1F3130140F2FF3341F4C9
:1007800080119A4202DA00200146704740F233435A
:100790009A42A2F2334202DC5242FFF7D6BEFFF782
:1007A000C5BE000030B5041E71F1000404DB4FF03B
:1007B0000044404264EB0101141E73F1000405DBA8
:1007C0001C464FF00043524263EB0403994208BFBA
:1007D000904230BD064C074D06E0E06840F0010352
:1007E00094E8070098471034AC42F6D3FFF7D0FCEA
:1007F0004CB200086CB20008202A06DBCB17203A66
:1008000041FA02F043EAE07306E041FA02F3D04015
:10081000C2F12002914008431946704770B58C1808
:1008200010F8015B15F0070301D110F8013B2A1104
:1008300006D110F8012B03E010F8016B01F8016BF1
:100840005B1EF9D12B0705D40023521E0DD401F8ED
:10085000013BFAE710F8013BCB1A921C03E013F8B6
:10086000015B01F8015B521EF9D5A142D8D30020EB
:1008700070BD000022484FF6FF710170002080F328
:1008800009882048016881F308881F484FF080518B
:10089000016062B6FEE71C484FF08051016070476E
:1008A00019484FF080510160704772B6EFF309802C
:1008B00050B11EF0100F08BF20ED108A203880E8DC
:1008C000F00F12490968086000B5114880475DF8CB
:1008D00004EB104810490A7802700C480F490A6866
:1008E0000260106890E8F00F20301EF0100F08BF73
:1008F000B0EC108A80F309884EF0040E62B670479F
:1009000022ED00E0AC01002004ED00E0A401002095
:10091000694500083201002033010020A8010020B1
:1009200000B58DB00121042006F008FF0121080266
:1009300006F034FF0F200B9003208DF830000020CC
:100940008DF833000BA9234801F0A2FF0020079087
:100950000A9009904FF48030089007A800F04AF8F8
:100960000020019001208DF808008DF8090000207A
:100970000390059004208DF8180001A9164800F096
:1009800067F8072301220A21134800F08BF8072398
:1009900002220B21104800F085F8072303220C21C6
:1009A0000D4800F07FF8072304220D210A4800F0CB
:1009B00079F80121084800F040F80121064800F0CC
:1009C00031F80121044800F009F8034800F0C6F8A6
:1009D0000DB000BD000802400020014021B1826836
:1009E00042F00102826003E0826822F0010282602C
:1009F000704700000021084A1168084A1140D0E9F8
:100A000000231A4383681A43C3681A431143044AF4
:100A1000C2F804137047000004230140E030FCFFDB
:100A20000020014021B1826842F48072826003E0BC
:100A3000826822F480728260704721B1826842F439
:100A40000072826003E0826822F400728260704764
:100A500030B50246002000235068104C20400D792C
:100A60000C6844EA05242043506090680C4C2040F8
:100A7000D1E903542C438D682C434D7944EA450455
:100A800020439060D06A20F470000C7D641EE4B2B4
:100A9000234340EA0350D06230BD0000FFFEFFFC5C
:100AA000FDF7FFC0F0B504460D4600200021092DDA
:100AB00011DDE068A5F10A0606EB4607072606FAEF
:100AC00007F18843A5F10A0606EB460603FA06F18C
:100AD0000843E0600CE0206905EB4507072606FAAD
:100AE00007F1884305EB450603FA06F10843206148
:100AF000072A0FDA606B561E06EB86071F2606FADA
:100B000007F18843561E06EB860605FA06F10843F0
:100B1000606322E00D2A0FDA206BD61F06EB8607F2
:100B20001F2606FA07F18843D61F06EB860605FA4C
:100B300006F10843206310E0E06AA2F10D0606EB1F
:100B400086071F2606FA07F18843A2F10D0606EB79
:100B5000860605FA06F10843E062F0BD816841F0BF
:100B6000804181607047000070B540480078801E69
:100B700081B23F4800F07CFE0446E5B2260A3B48BD
:100B80000078801E3A49085CA84234D13748007882
:100B9000401E085CB0422ED108464078042817D089
:100BA00006DC01280BD002280CD003281CD10CE055
:100BB000052810D0062811D0102815D111E006F014
:100BC000F9FE17E006F074FF14E007F00FF811E0EB
:100BD00007F06AF80EE007F0E3F80BE007F024F9FD
:100BE00008E007F06FF905E021494878042109F091
:100BF000E9FE00BF36E01E48407804281DD006DC20
:100C000001280BD002280ED003282AD110E0052895
:100C100018D006281BD0102823D11DE00821012060
:100C200009F0D0FE1DE00821022009F0CBFE18E0FB
:100C30000821032009F0C6FE13E00821042009F072
:100C4000C1FE0EE00821052009F0BCFE09E00821E4
:100C5000062009F0B7FE04E00821102009F0B2FEDA
:100C600000BF00BF0AF01CF970BD00004700002063
:100C7000546400201FB5684606F0B0FD019804B02A
:100C800010BD70B50446002034E122F810400D88F4
:100C9000054105F001030C2875D2DFE800F00620BD
:100CA000354C637E94ABC5DBF7F57BB94E8802F11A
:100CB000180525F81060002618352E5405260C3529
:100CC0002E544E8B0C3525F8106007E0002602F1FB
:100CD000180525F81060303525F8106007E16BB96C
:100CE0008E8802F1180525F81060002618352E545C
:100CF0000C352E540C3525F8106004E0002602F166
:100D0000180525F81060F2E07BB9CE8802F11805CD
:100D100025F81060002618352E5404260C352E5464
:100D200000260C3525F8106004E0002602F11805B5
:100D300025F81060DBE07BB90E8902F1180525F873
:100D40001060002618352E5401260C352E5400262E
:100D50000C3525F8106004E0002602F1180525F88E
:100D60001060C4E083B94E8902F1180525F81060BF
:100D7000002618352E5406260C352E548E8B0C3535
:100D800025F8106008E0B1E0002602F1180525F80A
:100D90001060303525F81060A9E073B98E8902F132
:100DA000180525F81060022618352E540C352E54DF
:100DB00000260C3525F8106004E0002602F1180525
:100DC00025F8106093E07BB9CE8902F1180525F86B
:100DD0001060022618352E5403260C352E5400269A
:100DE0000C3525F8106004E0002602F1180525F8FE
:100DF00010607CE07BB90E8A02F1180525F81060BE
:100E0000012618352E5405260C352E54CE8B0C3564
:100E100025F8106007E0002602F1180525F810609B
:100E2000303525F8106062E073B94E8A02F118057A
:100E300025F81060012618352E5400260C352E5446
:100E40000C3525F8106004E0002602F1180525F89D
:100E500010604CE07BB98E8A02F1180525F810600D
:100E6000012618352E5404260C352E5400260C3538
:100E700025F8106007E0002602F1180525F810603B
:100E8000303525F8106032E016E0FFE773B9CE8AFE
:100E900002F1180525F81060012618352E540C357E
:100EA0002E5400260C3525F8106004E0002602F1CF
:100EB000180525F810601AE07BB90E8B02F11805B1
:100EC00025F81060012618352E5406260C352E54B0
:100ED0000E8C0C3525F8106007E0002602F118058D
:100EE00025F81060303525F8106000E000BF00BF25
:100EF000431CD8B20C28FFF6C8AE70BD00BFFEE799
:100F00002DE9F0418AB004460D4616461F46DDF82D
:100F100040800121022006F011FC0121480606F064
:100F20001DFC4FF44070089002208DF82400002032
:100F30008DF8260003208DF8250001208DF827006C
:100F400008A92D4801F0A4FC092208212A4801F033
:100F5000E7FC09221146284801F0E2FC00208DF848
:100F60001A008DF81B008DF81C0001208DF81D0063
:100F700000208DF81E008DF81F008DF816808DF86A
:100F800017408DF818608DF81950ADF8147005A948
:100F90001A4800F036FA00208DF80E008DF80F0088
:100FA00001208DF810000020ADF80400ADF8060017
:100FB000ADF80800ADF80A00ADF80C0001208DF87E
:100FC000110001A800F090F9012202210B4800F065
:100FD0000FFA14208DF8000001208DF80100002088
:100FE0008DF8020001208DF80300684602F0F4F845
:100FF00000200AB0BDE8F081000402400064004017
:1010000030B587B00024524A0021524800F083FADC
:101010004F4800680C2829D100BF0BE04C48C07A2B
:1010200080F0FF00204100F0010080F001004A49FB
:101030000855641C082CF1DB00240DE04448007BBB
:1010400080F0FF00204100F0010080F00101424AE1
:1010500004F108001154641C042CEFDB3C48407B75
:10106000552803D104213D4800F07CF83848006839
:10107000062817D13648C07A40B2394988713448B9
:10108000007B41B23648C1713148407B41B234489F
:1010900001722F48807B08B1012100E00021304817
:1010A000417253E02A48006803281FD100252C48CC
:1010B000807C042800D103E02948807C00B9022507
:1010C0002748807C012800D1012521480095C07A5D
:1010D000C04382B20423082101A800F0E7FB1522D7
:1010E00001A91F481330FFF7B6F82FE01848006831
:1010F00004281FD100251A48807C042800D103E071
:101100001748807C00B901251548807C012800D152
:1011100002250F480095C07AC04382B204230821FB
:1011200001A800F0C3FB152201A90D482830FFF7E4
:1011300092F80BE006480068052807D10448C17AF8
:10114000007B41EA00200649096C088007B030BDE9
:101150003C780020006400405C00002082000020F9
:10116000BC290020F0B585B007460D4600241020AC
:101170000090019000208DF808008DF80A5000BF03
:1011800005E0395D0DF10B000155601C84B2AC42E5
:10119000F7DB69460C4800F036FA0646002401E009
:1011A000601C84B23146084800F0C0FA18B940F615
:1011B000FF708442F4DB40F6FF70844202DB0120C2
:1011C00005B0F0BD0020FBE7006400402DE9F041D0
:1011D0008AB004460D4616461F46DDF840800121C0
:1011E000022006F0ABFA01214FF0C06006F0B6FA1B
:1011F0006020089002208DF8240000208DF8260041
:1012000003208DF8250001208DF8270008A92E481D
:1012100001F03EFB092205212B4801F081FB092248
:101220000621294801F07CFB00208DF81A008DF87A
:101230001B008DF81C0001208DF81D0000208DF88A
:101240001E008DF81F008DF816808DF817408DF860
:1012500018608DF81950ADF8147005A91B4800F0FE
:10126000D0F80E208DF80E0000208DF80F00012020
:101270008DF810000020ADF80400ADF80600ADF8C0
:101280000800ADF80A00ADF80C0001208DF811003F
:1012900001A800F029F8012202210C4800F0A8F86A
:1012A00040208DF8000001208DF8010002208DF80B
:1012B000020001208DF80300684601F08DFF002038
:1012C0000AB0BDE8F0810000000402400068004060
:1012D00010B5034A0021034800F01DF910BD0000BD
:1012E0003C7800200068004010B50021837A01227C
:1012F00002FA03F13D4A126842F001023B4B1A60C8
:101300003A4A1C3212688A43384B1C331A60027BFB
:10131000CAB9364A0C3212688A43344B0C331A600D
:101320004288C38842EA0343304A4032847A42F812
:1013300034300288838842EA03432C4A4032847A5C
:1013400002EBC4025360027B012A19D1274A0C32F6
:1013500012680A43254B0C331A604288038842EA1C
:101360000343224A4032847A42F83430C288838868
:1013700042EA03431D4A4032847A02EBC4025360BE
:10138000C27A3AB9194A121D12688A43174B1B1DBB
:101390001A6006E0154A121D12680A43134B1B1D02
:1013A0001A60028932B9114A143212688A430F4B0B
:1013B00014331A600289012A06D10C4A14321268C9
:1013C0000A430A4B14331A60427B012A06D1074AAA
:1013D0001C3212680A43054B1C331A60034A126818
:1013E00022F00102014B1A6010BD000000660040AF
:1013F0001AB143690B43436102E043698B43436184
:10140000704730B5024600200023146824F002041F
:101410001460146844F00104146000E05B1C54681C
:1014200004F001041CB94FF6FF74A342F6D15468CE
:1014300004F001040CB900206CE08C79012C04D17B
:10144000146844F08004146003E0146824F08004FD
:101450001460CC79012C04D1146844F04004146069
:1014600003E0146824F0400414600C7A012C04D1C9
:10147000146844F02004146003E0146824F020048D
:1014800014604C7A012C04D1146844F010041460E8
:1014900003E0146824F0100414608C7A012C04D149
:1014A000146844F00804146003E0146824F008048D
:1014B0001460CC7A012C04D1146844F00404146044
:1014C00003E0146824F0040414608C78A407CD7839
:1014D00044EA05640D7944EA05444D7944EA05542B
:1014E0000D886D1E2C43D461146824F0010414602F
:1014F000002300E05B1C546804F001041CB14FF6AB
:10150000FF74A342F6D1546804F001040CB100202A
:1015100000E0012030BD10B500F5D87303EB0113D6
:101520001B6803F004031372137A53B900F5D873E0
:1015300003EB01131B6840F2FF7404EA535313607A
:1015400009E000F5D87303EB01131B686FF06044EA
:1015500004EAD303536000F5D87303EB01131B684F
:1015600003F00203537200F5D87303EB01135B68B9
:1015700003F00F03937200F5D87303EB01135B685C
:101580001B0AD37400F5D87303EB01139B68D37265
:1015900000F5D87303EB01139B681C0A147300F564
:1015A000D87303EB01139B681C0C547300F5D873BC
:1015B00003EB01139B681B0E937300F5D87303EBC9
:1015C0000113DB68D37300F5D87303EB0113DB68F9
:1015D0001C0A147400F5D87303EB0113DB681C0CB0
:1015E000547400F5D87303EB0113DB681B0E93747E
:1015F00021B9C36843F02003C36003E0036943F0EB
:101600002003036110BD10B502460020936803F06B
:101610008063B3F1806F00D110E0936803F0006342
:10162000B3F1006F01D1012008E0936803F080530B
:10163000B3F1805F01D1022000E00420042874D0BF
:1016400002F5C07303EB00131B6803F0010402F5FD
:10165000C07303EB00131C600B7A7BB94B7A0C88C8
:1016600043EA445302F5C07404EB00142468234396
:1016700002F5C07404EB0014236010E00B7A4C6890
:1016800043EAC4034C7A234302F5C07404EB00140C
:101690002468234302F5C07404EB001423608B7AA2
:1016A00003F00F038B7202F5C07303EB00135B684A
:1016B00023F00F0402F5C07303EB00135C6002F526
:1016C000C07303EB00135B688C7A234302F5C0748C
:1016D00004EB001463608B7B1C064B7B44EA0344E1
:1016E0000B7B44EA0323CC7A234302F5C07404EB5A
:1016F0000014A3608B7C1C064B7C44EA03440B7CE7
:1017000044EA0323CC7B234302F5C07404EB0014AA
:10171000E36002F5C07303EB00131B6843F00104A0
:1017200002F5C07303EB00131C6010BD10B5024638
:10173000002321B1012907D002290FD109E09068C7
:101740001D4C00EA04030BE090681C4C00EA040303
:1017500006E090681A4C00EA040301E0002300BF91
:1017600000BF184C181BA34216D007DC83B16FF0E2
:101770008060184470B1022818D111E0B0F5007FE4
:1017800010D0114C204448B1B0F5003F0ED10BE011
:1017900002230DE000230BE0002309E0002307E013
:1017A000012305E0012303E0012301E0002300BF42
:1017B00000BFD8B210BD0000030000040003000801
:1017C00000000310000100080001FFF710B500F051
:1017D0001FF800F019F810BD10B5002400BF00BFBD
:1017E000FEF7F2FC044600BF00BF1021054801F0DF
:1017F0004BFC00BF00BF2046FEF7EAFC00BF00BF65
:1018000010BD00009C7D002010B5FFF7E5FF10BD66
:1018100010B500200249086000F00AF810BD000071
:10182000D80000200149086070470000D80000205F
:1018300010B5FFF71FFA04460848006840F08070B2
:10184000064908600020064948600846006840F0E4
:10185000010008602046FFF7E5FF10BDFCED00E049
:10186000001000E00149486870470000001000E0E7
:1018700030B502460B464FF6FF70002112E0555C72
:10188000684000240AE000F0010525B140104AF24A
:101890000105684000E04010651CACB2082CF2DB8A
:1018A0004D1CA9B29942EADB30BD00002DE9FF4F83
:1018B00087B00D469A46DDF850B00024099E0027F7
:1018C000A046681E012101FA00F900BF00208DF832
:1018D00004008DF815008DF816008DF817008DF8AE
:1018E00018000027804600240CE046FA04F000F0BF
:1018F000010028B19DF81600401CC0B28DF81600FA
:10190000601C84B2AC42F0DB00240AE046FA04F02A
:1019100000F0010010B9781C87B200E02C46601C72
:1019200084B2AC42F2DB00240CE006FA04F000EAD8
:10193000090020B908F101001FFA80F800E02C46E8
:10194000601C84B2AC42F0DB3C4611E046FA04F085
:1019500000F0010050B99DF804200DF105008454F9
:101960009DF80400401CC0B28DF80400601C84B2D5
:10197000A5EB0800A042E9DC9DF8040000281FDD6B
:1019800001208DF815009DF80400012818DD0024C1
:1019900011E00DF10500611C415C005D081A012891
:1019A00000D106E09DF81500401CC0B28DF815006E
:1019B00000BF601C84B29DF80400401EA042E8DC19
:1019C0009DF8160030B900208DF8170001208DF821
:1019D0001800D1E09DF8040000286BDD9DF815008B
:1019E0000128F6D1BBF1020F10D144460BE006FAF4
:1019F00004F000EA090018B129FA04F0864300E077
:101A00002C46601C84B2AC42F1DB5FE7BBF1010FF6
:101A100010D13C460BE046FA04F000F0010018B18A
:101A20000120A040864300E02C46601C84B2AC42FA
:101A3000F1DB4BE7BBF1000F38D1B84510DD3C4678
:101A40000BE046FA04F000F0010018B10120A040BC
:101A5000864300E02C46601C84B2AC42F1DB8BE094
:101A6000B84510DA44460BE006FA04F000EA090033
:101A700018B129FA04F0864300E02C46601C84B2B9
:101A8000AC42F1DB22E7B84576D144460AE006FADB
:101A900004F000EA090018B929FA04F0304386B2CC
:101AA000601C84B2E81BA042F1DC65E001208DF8E7
:101AB000180061E09DF81600504550DD9DF81600B5
:101AC000A84203D100208DF8170055E0BBF1020FAA
:101AD0000ED1444604E029FA04F08643601C84B227
:101AE0009DF81600A0EB0A004044A042F3DCEDE6AE
:101AF000BBF1010F0ED13C4604E00120A04086431B
:101B0000601C84B29DF81600A0EB0A003844A04285
:101B1000F3DCDBE6BBF1000F2ED1B8450EDD3C4611
:101B200004E00120A0408643601C84B29DF81600AA
:101B3000A0EB0A003844A042F3DCC7E6B8451BDA44
:101B4000444604E029FA04F08643601C84B29DF800
:101B50001600A0EB0A004044A042F3DCB6E69DF874
:101B60001600A84205DCA8EB070040B28DF817006C
:101B700002E001208DF81800152201A90548FEF7A2
:101B80006AFB152201A90798FEF765FB0BB0BDE8BB
:101B9000F08F0000A478002070B50446204601F0C4
:101BA0000CF920B10020616809F0D6F870BD2568F5
:101BB000002605E06E682946002009F0CDF835467C
:101BC0006068A842F6D1606820600020616809F072
:101BD000C3F800BFEAE7000010B501F0A5FC0B490F
:101BE0000B4800F093F968B1012240F226610948E0
:101BF00007F0CCFF0549064800F0B2F80021044880
:101C000000F0C8F801F0A6FC10BD0000008000182C
:101C1000586002400048004010B501F085FC0B49B7
:101C20000B4800F073F968B1012240F226610948BF
:101C300007F0ACFF0549064800F092F8002104487F
:101C400000F0A8F801F086FC10BD00002080002004
:101C500070600240004C004010B501F065FC0B497B
:101C60000B4800F053F968B1012240F2266109489F
:101C700007F08CFF0549064800F072F8002104487F
:101C800000F088F801F066FC10BD00000080202004
:101C9000A06002400044004010B501F045FC084936
:101CA000084800F033F938B10549064800F058F803
:101CB0000021044800F06EF801F04CFC10BD00005B
:101CC00000800028B86002402DE9F0410026144948
:101CD000144800F01BF900B3002418E0002507E0C9
:101CE000114800EBC50030F814000644681CC5B26A
:101CF0001E2DF5DB1E2096FBF0F73846FEF7B7FBEE
:101D00000A4A02EBC40203C20026601CC4B2042CBF
:101D1000E4DB0349034800F023F8BDE8F08100004C
:101D20002080001010640240685D0020585E002092
:101D300010B50849084800F0E9F850B105490648CF
:101D400000F00EF80021044800F024F801200349B7
:101D5000087010BD00800028B8640240BC0000205C
:101D60000246094B9A4201D2084801E00648103861
:101D700001F000531BB1064B0B40C36002E0044B63
:101D80000B40836070470000106402400060024016
:101D90007D0F7D0F21B1026842F00102026003E075
:101DA000026822F00102026070470000016821F021
:101DB000010101600021016041608160C160016139
:101DC000212141614A49884204D13D21484A103AC3
:101DD00091608CE046491831884205D14FF4746116
:101DE000434A103A916082E041493031884205D13E
:101DF0004FF474113E4A103A916078E03C49483102
:101E0000884205D14FF07461394A103A91606EE012
:101E100037496031884204D13649354A103AD16099
:101E200065E033497831884204D13349304A103A69
:101E3000D1605CE02E499031884204D12F492C4A70
:101E4000103AD16053E02A49A831884205D14FF0B9
:101E50003D51274A103AD16049E02949884204D1CE
:101E60003D21274A083A116041E02549183188424E
:101E700005D14FF47461224A083A116037E02049D5
:101E80003031884205D14FF474111D4A083A11606F
:101E90002DE01B494831884205D14FF07461184A42
:101EA000083A116023E016496031884204D1114993
:101EB000134A121F11601AE011497831884204D187
:101EC0000D490F4A121F116011E00D4990318842EF
:101ED00004D10A490A4A121F116008E00849A831D2
:101EE000884204D14FF03D51054A121F11607047DE
:101EF000106002403D000020400F002000003D2007
:101F0000106402400146486880B2704770B50246CE
:101F1000002000240025124EB24201D2114B01E0F4
:101F20000F4B103B104E0E4036B11E2606EAD12450
:101F3000166806EA040502E0566906F0800501F01D
:101F400000560EB15C6800E01C68084E344004EA9C
:101F5000010616B10DB1012000E0002070BD0000A7
:101F600010640240006002403C0F3C0F7D0F7D0F6B
:101F700010B501F080034BB122B1436943F08003F7
:101F8000436103E0436923F08003436180290BD060
:101F90002AB1036801F01E042343036004E00368D0
:101FA00001F01E04A343036010BD000010B5002221
:101FB0000268134B1A40CC680B6823434C692343D7
:101FC0008C692343CC6923430C6A23434C6A234323
:101FD0008C6A23434C6B23438C6B23431A4302606C
:101FE000426922F00702D1E90B3423431A434261CC
:101FF0000B6943604B6883608B68C36010BD000051
:102000003F801CF04160704700B591B00121480548
:1020100005F094FB00213A48FFF7BCFE3848FFF773
:10202000C5FE4FF00060019036480290364803909C
:1020300040200490FA200590002006904FF4806024
:1020400007900020089009904FF480700A900020BB
:102050000C9003200D9000040B9000200E900F9028
:1020600001A92748FFF7A2FF00212548FFF792FEAC
:10207000012210212248FFF77BFF00212048183859
:10208000FFF788FE1E481838FFF790FE4FF00060FB
:1020900001901C4802901D48039000200490FA20F3
:1020A0000590002006904FF4806007900020089073
:1020B00009904FF480700A9000200C9003200D903E
:1020C00000040B9000200E900F9001A90C481838C6
:1020D000FFF76CFF01210A481838FFF75BFE11205B
:1020E0008DF8400002208DF841008DF8420001205B
:1020F0008DF8430010A801F06FF811B000BD00008A
:10210000A060024004440040666100206C60002032
:1021100000B591B00121480505F010FB00213A48B7
:10212000FFF738FE3848FFF741FE4FF0006001909E
:10213000364802903648039040200490FA200590DB
:10214000002006904FF480600790002008900990CE
:102150004FF480700A9000200C9003200D90000432
:102160000B9000200E900F9001A92748FFF71EFF4B
:1021700000212548FFF70EFE012210212248FFF71B
:10218000F7FE002120483038FFF704FE1E483038A3
:10219000FFF70CFE4FF0006001901C4802901D48B4
:1021A000039000200490FA200590002006904FF440
:1021B000806007900020089009904FF480700A908A
:1021C00000200C9003200D9000040B9000200E9036
:1021D0000F9001A90C483038FFF7E8FE01210A48AA
:1021E0003038FFF7D7FD0E208DF8400002208DF823
:1021F00041008DF8420001208DF8430010A800F046
:10220000EBFF11B000BD00005860024004480040E0
:102210004E6500205464002000B591B001214805AE
:1022200005F08CFA00213A48FFF7B4FD3848FFF773
:10223000BDFD4FF000600190364802903648039093
:1022400040200490FA200590002006904FF4806012
:1022500007900020089009904FF480700A900020A9
:102260000C9003200D9000040B9000200E900F9016
:1022700001A92748FFF79AFE00212548FFF78AFDAC
:10228000012210212248FFF773FE00212048303838
:10229000FFF780FD1E483038FFF788FD4FF00060E3
:1022A00001901C4802901D48039000200490FA20E1
:1022B0000590002006904FF4806007900020089061
:1022C00009904FF480700A9000200C9003200D902C
:1022D00000040B9000200E900F9001A90C4830389C
:1022E000FFF764FE01210A483038FFF753FD0F2045
:1022F0008DF8400002208DF841008DF84200012049
:102300008DF8430010A800F067FF11B000BD000079
:1023100070600240044C0040785E0020725F002034
:1023200000B591B00121480505F008FA00213A48AE
:10233000FFF730FD3848FFF739FD4FF0006001909E
:10234000364802903648039040200490FA200590C9
:10235000002006904FF480600790002008900990BC
:102360004FF480700A9000200C9003200D90000420
:102370000B9000200E900F9001A92748FFF716FE42
:1023800000212548FFF706FD012210212248FFF712
:10239000EFFD00212048A838FFF7FCFC1E48A838B4
:1023A000FFF704FD4FF0006001901C4802901D48AB
:1023B000039000200490FA200590002006904FF42E
:1023C000806007900020089009904FF480700A9078
:1023D00000200C9003200D9000040B9000200E9024
:1023E0000F9001A90C48A838FFF7E0FD01210A4829
:1023F000A838FFF7CFFC2F208DF8400002208DF881
:1024000041008DF8420001208DF8430010A800F033
:10241000E3FE11B000BD0000B8600240045000406F
:10242000426700204866002000B591B00121880570
:1024300005F084F900213A48FFF7ACFC3848FFF773
:10244000B5FC4FF02060019036480290364803906A
:1024500040200490FA200590002006904FF4806000
:1024600007900020089009904FF480700A90002097
:102470000C9003200D9000040B9000200E900F9004
:1024800001A92748FFF792FD00212548FFF782FCAC
:10249000012210212248FFF76BFD002120489038CF
:1024A000FFF778FC1E489038FFF780FC4FF0206063
:1024B00001901C4802901D48039000200490FA20CF
:1024C0000590002006904FF480600790002008904F
:1024D00009904FF480700A9000200C9003200D901A
:1024E00000040B9000200E900F9001A90C4890382A
:1024F000FFF75CFD01210A489038FFF74BFC4620AE
:102500008DF8400002208DF841008DF84200012036
:102510008DF8430010A800F05FFE11B000BD000070
:10252000B8640240041401405A6300206062002035
:1025300000B591B00121880505F000F9002120487F
:10254000FFF728FC1E48FFF731FC002001901D48D2
:1025500002901D48039000200490782005900020F0
:1025600006904FF480600790400008900990C010DA
:102570000A9000200C9003200D9000040B90002086
:102580000E900F9001A90E48FFF710FD01221021B7
:102590000B48FFF7EDFC01210948FFF7FBFB382052
:1025A0008DF8400002208DF8410003208DF8420094
:1025B00001208DF8430010A800F00EFE11B000BD00
:1025C000106402404C200140685D0020704710B547
:1025D00004462046FFF7E0FA0020616808F0BCFBE3
:1025E00010BD70B504460D462146012000F0C2FD25
:1025F0002946022000F0D1FD70BD70B504460D469D
:102600002146012000F0C9FD2946022000F0B2FD5C
:1026100070BD10B50021012000F0BFFD0021022097
:1026200000F0BBFD10BD10B504462146012000F0AE
:10263000A1FD2146022000F09DFD10BD10B504460D
:102640002146012000F0A9FD2146022000F0A5FD51
:1026500010BD00002DE9F04707460D46C8217A4815
:10266000FDF712FEC8217948FDF70EFE00207649DD
:10267000A1F8C800764908807349A1F8CA0064210E
:102680007448FDF701FE64217348FDF7FDFD002647
:10269000724800F083FB002005E04FF0FF316E4AE6
:1026A00042F82010401C6428F7DB39466B4805F0DF
:1026B00035F80120674921F81700B4E06748006841
:1026C0000088A8427FD1761C6448D0F800804FF083
:1026D000000964215D48FDF7D7FD00205C490880B2
:1026E0000EE0B8F80020484609F10109574921F8E1
:1026F000102057480088401C55490880D8F80480AD
:10270000B8F800000028ECD1514801884F4805F086
:1027100035FC4F480288314651A000F0B1F9002441
:1027200012E04B480088401EA04206D1474830F8CE
:10273000141052A000F08EF905E0444830F814104F
:1027400050A000F087F9641C414800888442E8DB0F
:10275000012E12D1002006E03C4931F810103A4A0F
:1027600022F81010401C3A4909888842F4DB3848A6
:1027700000883549A1F8C80018E03348B0F8C8000F
:1027800033490988884211DD002006E02F4931F8DD
:1027900010102D4A22F81010401C2D49098888423B
:1027A000F4DB2B4800882849A1F8C8002B4804F026
:1027B00035FF0020274921F81500401E264941F821
:1027C000250030E0FFE72548006800882E49088092
:1027D0000846008808F0F0FA0446A4B120881E4993
:1027E000294A128841F82200208827490880084693
:1027F00001881A4804F092FF01201649224A1288E3
:1028000021F812000EE0154804F008FF00201149DD
:102810001D4A128821F81200401E0F491A4A1288D8
:1028200041F8220000BF0D4800F0C7FA00283FF42D
:1028300045AF0A48FFF7CBFE1448FFF7C8FE024930
:10284000A1F8CA60BDE8F087F02800202828002001
:102850001400002060270020D02500200C0000205C
:10286000B5DA3A5B25645DCCF5C2B7BEB62CBDDAED
:10287000B5E3CAFD3A5B25645D00000025640D0ADE
:102880000000000025642D0000000020040000204E
:10289000F0B50A4600210023002400BF3DE00125D9
:1028A00005FA01F3156805EA03049C4234D1056872
:1028B0004F000326BE40B543056015794E00B54074
:1028C0000668354305601579012D02D01579022D72
:1028D00016D185684F000326BE40B5438560557903
:1028E0004E00B540866835438560456801268E40B8
:1028F000B5434560456896798E40B6B2354345602C
:10290000C5684F000326BE40B543C560D5794E006B
:10291000B540C6683543C560491C1029BFD3F0BD1A
:10292000F0B5002300244D07ED0E02FA05F3CE109A
:1029300000F1200555F826504E07F70E0F26BE4031
:10294000B543CF1000F1200646F82750CE1000F115
:10295000200555F8265045EA0304CE1000F1200565
:1029600045F82640F0BD4183704770B504460D46DA
:10297000284601F0C1FF064606EB86062146304692
:1029800000F0B6FB70BD00BFFEE700000FB4F8B565
:10299000044608A800901948009A079907F04AFBD6
:1029A000002000901548FDF77AFC86B21448844256
:1029B00002D10120134908601348844202D101204A
:1029C000124908601248844203D101200F4934396A
:1029D000086000250DE000BF4021204607F09FF869
:1029E0000028F9D00548415D204607F05FF9681CD2
:1029F00085B2B542EFDBF8BC5DF814FB9C7A002091
:102A0000004400409082414200480040BC024042E5
:102A1000004C00400FB410B59AB0642101A8FDF736
:102A200033FC1DA8009001A8009A1C9907F002FB36
:102A30000020009001A8FDF732FC84B2214601A8D5
:102A400008F036FA0A2008F013FA1AB010BC5DF844
:102A500014FB00000FB408B503A800900648009AC4
:102A6000029907F0E7FA0020009003490348FFF7B6
:102A70008DFF01B05DF814FB9C7B002000440040FA
:102A80000FB41CB505A801900C48019A049907F0F1
:102A9000D1FA002001900A4CA0880090E378A27837
:102AA000218808A0FFF7D6FF04490A48FFF76EFF08
:102AB00009A0FFF7CFFF1CBC5DF814FB9C7C002035
:102AC000BC2900205B25643A25643A25643A2564D4
:102AD0005D000000004400400D0A0D0A00000000E7
:102AE0002DE9F0478AB005460C4616461F46DDF82C
:102AF00048804FF0000900BF00BF00BFFDF764FB36
:102B0000814600BF00BF28480078401C2649087055
:102B100000BF00BF4846FDF75BFB00BF00BF00BF22
:102B20000A20B4FBF0FA09A8032100220592CDE99E
:102B3000062113468DE86004CDE903420890424621
:102B40001AA1384600F0CCFF00BF00BF00BFFDF760
:102B50003BFB814600BF00BF13480078401E12496E
:102B6000087008460078A0B913480088002809DDDD
:102B700000BF00BF4846FDF72BFB00BF00BF02F0BF
:102B8000DDFF0DE000BF00BF4846FDF721FB00BFA1
:102B900006E000BF00BF4846FDF71AFB00BF00BFBC
:102BA00000BF0AB0BDE8F0874C0100205465737483
:102BB000207461736B0000001001002010B58AB012
:102BC000002409A800F0D6FB00BF00BF00BFFDF73E
:102BD000FBFA044600BF00BF30480078401C2F4974
:102BE000087000BF00BF2046FDF7F2FA00BF00BF2B
:102BF00000BF09A8032100220592CDE90621089013
:102C000010464FF400713322254BCDE90132CDE956
:102C1000031003200023234A23A10090254800F03D
:102C20005FFF00BF00BF00BFFDF7CEFA044600BF44
:102C300000BF1A480078401E1849087008460078FE
:102C4000A0B91D480088002809DD00BF00BF20464C
:102C5000FDF7BEFA00BF00BF02F070FF0DE000BF3D
:102C600000BF2046FDF7B4FA00BF06E000BF00BF7A
:102C70002046FDF7ADFA00BF00BF00BF09A800F075
:102C8000DDFDFEF7A3FD09A800F0A8FE09AA0121B9
:102C9000084600F057FD0AB010BD00004C010020AE
:102CA00064550020F1AE0008737461727420746181
:102CB000736B0000A0540020100100204CF6CC40A3
:102CC00001490860704700000030004010B500F076
:102CD00013F810BD70B505460C4645F2555000F08E
:102CE0001FF8284600F010F8204600F013F800F016
:102CF00003F8FFF7E3FF70BD4AF6AA200149086018
:102D000070470000003000400149486070470000F3
:102D100000300040014988607047000000300040EA
:102D20000149086070470000003000402DE9F04183
:102D300086B0074688461546002401970020029079
:102D40008DF80C008DF80E5000BF06E018F8041046
:102D50000DF10F000155601C84B2AC42F6DB01A9F5
:102D60000D48FEF750FC0646002401E0601C84B2CA
:102D700031460948FEF7DAFC18B940F6FF70844284
:102D8000F4DB40F6FF70844203DB012006B0BDE8AF
:102D9000F0810020FAE700000064004070B50546AD
:102DA0000821002007F0EAFF044604B970BD2C603A
:102DB0006C600020606000BFF8E70146D1E90020A8
:102DC000904201D1012070470020FCE71CB5012191
:102DD000202004F0B3FC0121022004F0AFFC01210B
:102DE000402004F0ABFC0121084604F0A7FC0121BF
:102DF000042004F0A3FC0121082004F09FFC012121
:102E0000102004F09BFC4FF68070009000208DF89D
:102E1000040003208DF8050001208DF807006946A5
:102E20004848FFF735FD0320009000208DF804008E
:102E300003208DF8050001208DF8070069464248FF
:102E4000FFF726FD4FF47040009000208DF804003D
:102E500003208DF8050001208DF8070069463B48E6
:102E6000FFF716FD1020009001208DF804000020CF
:102E70008DF8060003208DF8050001208DF807006D
:102E800069463348FFF704FD9820009001208DF833
:102E9000040000208DF8060003208DF805000120B5
:102EA0008DF8070069462B48FFF7F2FC00202A49FD
:102EB00008602A49C1F890027920009001208DF81D
:102EC000040000208DF8060003208DF80500012085
:102ED0008DF8070069461B48FFF7DAFC00202049FF
:102EE00008604FF6F860009001208DF80400002083
:102EF0008DF8060003208DF8050001208DF80700ED
:102F000069461148FFF7C4FC0120164908600020FB
:102F1000091D0860091D08600120091D0860091DC0
:102F20000860104918310860091D0860091D086013
:102F3000091D0860091D0860091D0860091D086059
:102F40001CBD0000001002400018024000140240A6
:102F500000000240000402408C8240420080404257
:102F6000940242428C02434210B502464FF6FF7073
:102F7000088000202EE0431C32F8134021F8134053
:102F800032F813302BB90B880124844023430B8083
:102F900004E00B8801248440A3430B80431C012BD5
:102FA00002D1538B4B8312E0431C052B02D1938B30
:102FB0008B830CE0431C082B02D1D38BCB8306E020
:102FC000431C0C2B02D1138C0B8400E000E000BFEB
:102FD000431CD8B20C28CEDB10BD10B50246002031
:102FE0000884C8838883488300BF48E002F118033F
:102FF00033F81040431C21F8134002F130031B5CEE
:1030000053B902F13C031B5C052B05D102F14803C7
:1030100033F810304B832FE002F130031B5C53B9BF
:1030200002F13C031B5C062B05D102F1480333F887
:1030300010308B8320E002F130031B5C012B0AD19E
:1030400002F13C031B5C052B05D102F1480333F868
:103050001030CB8310E002F130031B5C012B0AD14E
:1030600002F13C031B5C062B05D102F1480333F847
:1030700010300B8400E000E000BF431CD8B20C28E5
:10308000B4DB10BD00BFFEE730B505460C46224656
:103090000021284600F001F830BD2DE9F041054639
:1030A0000B4694460027002402E03F021F43641CA5
:1030B000042CFAD3604605F00306294646B134468F
:1030C00003E001F8013B401E641C08B1042CF8D356
:1030D0000A4601E080C2001F0428FBD2114602E02C
:1030E00001F8013B401E0028FAD1BDE8F081000044
:1030F0002DE9F043024610461D4B4EF660244FF476
:103100007A75002600274FF0000C4FF00008B0FB46
:10311000F3F9B9F1000F03D0B0FBF3F91FFA89F608
:10312000B0FBF3F903FB1900B0FBF4F9B9F1000FA0
:1031300003D0B0FBF4F91FFA89F7B0FBF4F904FBF4
:103140001900B0FBF5F9B9F1000F03D0B0FBF5F9A8
:103150001FFA89FCB0FBF5F905FB19091FFA89F87C
:103160000E808F7081F803C0A1F80480BDE8F08361
:1031700080EE360038B505460C46002000908DF8EC
:10318000005001208DF80100E0B28DF8020003220A
:1031900069460220FFF7CAFD38BD38B505460C4622
:1031A000002000908DF800508DF80100E0B28DF8FD
:1031B0000200032269460220FFF7B8FD38BD7047C0
:1031C00000F01F0201219140024A430942F82310F6
:1031D0007047000080E200E070B5002100230F225C
:1031E000C4781CB3174C246804F4E064C4F5E064AC
:1031F000C4F30721C1F10404E3B20A4144789C40BE
:10320000E1B28478144021430C07210E0E4C05785E
:103210006155047804F01F050124AC4005786D1158
:10322000AD0005F1E025C5F8004109E0047804F09F
:103230001F050124AC40054D0678761145F826405F
:1032400070BD00000CED00E000E400E080E100E073
:1032500002490143024A1160704700000000FA056C
:103260000CED00E01548164816481748174818484E
:103270001848194819481A481A481B481B481C483E
:103280001C481D481D481E481E481F481F4820480E
:1032900020482148214822482248234823482448DE
:1032A00024482548254826482648274827482848AE
:1032B00028482948294800BF70470000DCB00008B2
:1032C0003CB0000840B0000844B0000848B0000816
:1032D0004CB0000850B0000854B0000858B00008C6
:1032E0005CB0000860B0000864B0000868B0000876
:1032F0006CB0000870B0000874B0000878B0000826
:103300007CB0000880B0000884B0000888B00008D5
:103310008CB0000890B0000894B0000898B0000885
:103320009CB00008A0B00008A4B00008A8B0000835
:10333000ACB00008B0B00008B4B00008B8B00008E5
:10334000BCB00008C0B00008C4B00008C8B0000895
:10335000CCB00008D0B00008D4B00008D8B0000845
:1033600010B50348006810B101480068804710BDDF
:10337000F000002070B5044600F0C2F80020484973
:103380000870484908704849087048490860484929
:103390000860484908704849087048490870484919
:1033A000086048490860484908604849087048482A
:1033B00000680A21B0FBF1F0464908604648006801
:1033C00058B14648056845B14348066803E0761E93
:1033D000002028602D1D002EF9D1002040490860F2
:1033E0004049086040490860404908604049086019
:1033F00040490860404908604049087002F006FAF8
:1034000002F0E6FA204601F095FB208800B170BD7D
:10341000204601F077FF208800B1F8E7204601F050
:1034200099FF208800B1F2E7204602F065F8208875
:1034300000B1ECE7204602F019FA208800B1E6E777
:10344000204602F039FC208800B1E0E7204602F077
:103450005BFF208800B1DAE7204601F0BFFE20883C
:1034600000B1D4E7204601F0D7FC208800B1CEE7B8
:10347000204603F0B9FE208800B1C8E7204602F0DC
:1034800087FE208800B1C2E7204603F009FF2088AC
:1034900000B1BCE701F076FAFFF7E4FE00BFB6E743
:1034A00004010020050100204C010020A40100209F
:1034B000A801002032010020330100203401002047
:1034C0004001002044010020480100205401002058
:1034D0009CB00008500100206CB0000868B00008E3
:1034E000E4000020E8000020EC000020F0000020B4
:1034F000F4000020F8000020FC00002082010020E1
:10350000064800680649096800EB81000549086023
:103510000846006820F007000860704768B000089F
:103520006CB00008AC01002008480078012800D0E9
:10353000704707480078FA2800DBF9E7044800786C
:10354000401C0349087000BFF2E70000050100209D
:103550000401002010B500242D480078012800D077
:1035600010BD00BFFCF730FE044600BF29480078BC
:1035700028B900BF2046FCF72BFE00BFF0E7254826
:103580000078401E2349087008460078002805DDB1
:1035900000BF2046FCF71CFE00BFE1E71E48007894
:1035A000002805DD00BF2046FCF712FE00BFD7E76C
:1035B00002F018F9194908700846007800EB40003D
:1035C000174951F820001749086008460068164955
:1035D0000968884205D100BF2046FCF7F9FD00BF0D
:1035E000BEE710480068D0F89000401C0D490968FB
:1035F000C1F890000D480068401C0C490860FDF7B8
:103600004FF900BF2046FCF7E3FD00BF00BFA7E76E
:1036100005010020040100204C010020330100209E
:10362000D0930020A8010020A401002078010020F0
:1036300010B500241F480078002800DD10BD1E488A
:103640000078002800DDF9E700BFFCF7BDFD044667
:1036500000BF02F0C7F8194908700846007800EB6F
:103660004000174951F820001649086008460068D4
:1036700015490968884205D100BF2046FCF7A8FD1E
:1036800000BFDBE70F480068D0F89000401C0D49F0
:103690000968C1F890000D480068401C0B4908609B
:1036A000FDF7F9F800BF2046FCF792FD00BF00BF10
:1036B000C4E70000040100204C0100203301002079
:1036C000D0930020A8010020A40100207801002050
:1036D00070B50446002518480078002803DD46F63A
:1036E0006250208070BD15480078012803D045F64F
:1036F00089602080F6E712480078FA2803DB45F25B
:1037000009202080EEE700BF00BFFCF75DFD054605
:1037100000BF00BF0A480078401C0949087002F049
:1037200037FA00BF00BF2846FCF752FD00BF00BFBC
:103730000020208000BFD5E7040100200501002003
:103740004C0100202DE9F04105460C4616460027A5
:1037500000BF00BFFCF738FD074600BF00BF012DCA
:1037600003D000200D49087002E001200B490870C9
:1037700014B10B48046006E00A4800680A21B0FB57
:10378000F1F00749086000BF00BF3846FCF720FD94
:1037900000BF00BF00203080BDE8F0815401002050
:1037A000500100209CB0000870B504460025204858
:1037B0000078002803DD46F66550208070BD1D4866
:1037C0000078012803D045F689602080F6E71A4882
:1037D000007818B946F664502080EFE700BF00BFBC
:1037E000FCF7F2FC054600BF00BF13480078401EFE
:1037F000114908700846007800280ADD00BF00BFA4
:103800002846FCF7E5FC00BF00BF46F66350208069
:10381000D4E702F0CBF900BF00BF2846FCF7D8FC84
:1038200000BF00BFFFF704FF0020208000BFC5E7F6
:1038300004010020050100204C01002010B50446C1
:1038400012480078E8B901F0CDFF11490870084628
:103850000078104908700E48007800EB40000E49CF
:1038600051F820000D490860084600680C490860BE
:10387000012006490870FCF7FDFF43F699202080DF
:1038800002E045F68A60208010BD0000050100209E
:103890003301002032010020D0930020A801002035
:1038A000A40100202DE9F04107464FF0000800BFB9
:1038B00000BFFCF789FC804600BF00BF00203D49E7
:1038C00008603D4908803D4908803D4908603D4900
:1038D00008603D4908603D4908603D49088100BFD6
:1038E00000BF4046FCF774FC00BF00BF00BF00BF34
:1038F000FCF76AFC804600BF00BF3648046800BF82
:1039000000BF4046FCF764FC00BF00BF21E000BFE1
:1039100000BFFCF759FC804600BF00BF0020783490
:10392000E06320602063A061A082E0826062A06208
:10393000FDF798FF2062783C04F164060020B08116
:10394000D4F8BC4000BF00BF4046FCF741FC00BFBC
:1039500000BF002CDBD100BF00BFFCF735FC804668
:1039600000BF00BF1C48056800BF00BF4046FCF711
:103970002FFC00BF00BF12E000BF00BFFCF724FC1B
:10398000804600BF00BF05F120060020B081AD6970
:1039900000BF00BF4046FCF71BFC00BF00BF002D6E
:1039A000EAD103F0FDFA03F077FD00203880BDE88E
:1039B000F0810000180100201201002062010020A7
:1039C000740100208801002094010020440100209F
:1039D000C49300207C01002038010020F8B5044683
:1039E00000266946324800F08FFDBDF8000018B18E
:1039F000BDF800002080F8BD6A460021022000F0DA
:103A0000F7FDBDF8000018B1BDF800002080F2E716
:103A100000BF00BFFCF7D8FB064600BF00BF002078
:103A20002449086000BF00BF3046FCF7D1FB00BF4F
:103A300000BF00252048006820490968884205D950
:103A40001D4800681D490968B0FBF1F525B91A4801
:103A500000680A21B0FBF1F56A460021284600F013
:103A6000C7FD6946124800F063FABDF8000018B1BE
:103A7000BDF800002080BEE700BF00BFFCF7A4FB3C
:103A8000064600BF00BF00200D49086009480068D5
:103A90000C49086001200C49087000BF00BF304687
:103AA000FCF796FB00BF00BF0020208000BFA2E70C
:103AB00058980020640100209CB0000884B00008E1
:103AC00074010020680100207001002010B5034837
:103AD000006810B101480068804710BDF400002064
:103AE0002DE9FF4F87B004469046DDE91BA5DDE9CF
:103AF0001496179F0020039087480078002805DD62
:103B000047F24A1028800BB0BDE8F08F1CB947F28D
:103B1000AD102880F7E7B8F1000F03D147F24F103E
:103B20002880F0E71EB946F62F602880EBE77B4837
:103B30000068874203D246F630602880E3E7169893
:103B4000B84203D346F631602880DCE7B9F1400F74
:103B500003D346F273202880D5E7B9F1000F06D1D0
:103B60006F48844203D046F273202880CBE7B9F136
:103B70003F0F06D16B48844203D046F27320288061
:103B8000C1E7204602F0D0FB002028800AF00100A7
:103B900090B10AF0020078B105960020069008E086
:103BA0000021059801600598001D05900698401CAD
:103BB00006900698B842F3D3169806EB800004905E
:103BC000CDE9007A32464046049B0A9900F06EFB2C
:103BD0000590C4F828800A98E0620898206284F86A
:103BE0003790059820600498A0601998606519982E
:103BF00018B94D480068A06501E01998A0651A98A9
:103C000060606662A763A4F83CA04FF0000B08E078
:103C1000002104F17C0040F82B100BF1010000F0B2
:103C2000FF0BBBF1000FF3D004F16400189901F011
:103C3000DDFB204600F082F800BF00BF00BFFCF7AC
:103C4000C3FA039000BF00BF38480078401C3749D2
:103C5000087000BF00BF0398FCF7BAFA00BF00BFAE
:103C600000BF94F8370001F0DDFD204601F0F8FEBA
:103C7000204602F00FFB2E480088401C2C4908808B
:103C80002C48007801282DD000BF00BF00BFFCF7F2
:103C90009BFA039000BF00BF24480078401E2349D0
:103CA000087008460078A0B923480088002809DD7C
:103CB00000BF00BF0398FCF78BFA00BF00BF01F004
:103CC0003DFF0DE000BF00BF0398FCF781FA00BF85
:103CD00006E000BF00BF0398FCF77AFA00BF00BF00
:103CE00000BF10E700BF00BF00BFFCF76DFA0390F4
:103CF00000BF00BF0D480078401E0C49087000BF8F
:103D000000BF0398FCF764FA00BF00BF00BFFFF7D5
:103D10008FFC00BFF7E600000401002098B0000807
:103D2000009300203C920020500100204C01002014
:103D300080010020050100201001002010B504467C
:103D40000348006818B1204601490968884710BD3A
:103D5000E400002070B504460D4600266748007850
:103D6000002803DD47F24E10288070BD644884426D
:103D700003D147F24C102880F7E76248844203D110
:103D800047F24D102880F0E77CB900BF00BFFCF778
:103D90001BFA064600BF00BF5B48046800BF00BFB7
:103DA0003046FCF715FA00BF00BF00BF00BF00BFE0
:103DB000FCF70AFA064600BF00BF54480078401CD2
:103DC0005249087000BF00BF3046FCF701FA00BF3F
:103DD00000BF00BF94F8360008282DD2DFE800F0BD
:103DE00004090E10080A0F11204601F079FE54E074
:103DF00053E000BF204603F0B7F84EE000BF00BF1D
:103E000000BF204603F0B0F894F83400082810D220
:103E1000DFE800F004070508090A0B0600BF00BF31
:103E200008E000BF00BF00BF00BF204601F02BFC30
:103E300000E000BF00BF30E000BF00BF00BFFCF7E4
:103E4000C3F9064600BF00BF30480078401E2F4926
:103E5000087008460078A0B92D480088002809DDC0
:103E600000BF00BF3046FCF7B3F900BF00BF01F050
:103E700065FE0DE000BF00BF3046FCF7A9F900BFAA
:103E800006E000BF00BF3046FCF7A2F900BF00BF4C
:103E900000BF46F62D60288067E700BF04F164008C
:103EA00001F082FA204600F037F8204602F00AFAC4
:103EB00018480088401E17490880204602F034FA4E
:103EC000FF2084F8360000BF00BF00BFFCF77CF97C
:103ED000064600BF00BF0D480078401E0B49087021
:103EE00000BF00BF3046FCF773F900BF00BF00BF42
:103EF00000202880FFF79CFB00BF36E7040100206C
:103F00003C92002000930020A40100204C010020DE
:103F1000100100208001002010B50446034800680D
:103F200018B1204601490968884710BDE800002003
:103F30007FB504460D46002600BF00BFFCF744F9DC
:103F4000064600BF00BF1CB11548006884420AD174
:103F500000BF00BF3046FCF73BF900BF00BF47F28F
:103F6000571028807FBD00BF00BF3046FCF730F9F6
:103F700000BF00BF0B48007800280BDD0020009038
:103F80000190034602462146CDE90205064800F0AD
:103F90007BFFE7E72946204602F03EFB00BFE1E752
:103FA000A4010020040100205452455310B50446DA
:103FB0000348006818B1204601490968884710BDC8
:103FC000EC0000202DE9F04780460E4614461D46C1
:103FD0004FF000097D480078002805DD46F2AE105C
:103FE00028800020BDE8F0871EB1B6F5004F02D151
:103FF00000E000BF04E045F6256028800020F1E7DE
:1040000000BF0CB10020206000BF00BFFCF7DCF84F
:10401000814600BF00BF6E480068406CA8B36C4882
:104020000068406C401E6A49096848646848006836
:10403000476C1CB166480068006C2060FDF712FCFC
:1040400063490968096C401A61490968C1F8A4000C
:104050005F480068D0F8A8005D490968D1F8A4104D
:10406000884207D25A480068D0F8A4005849096825
:10407000C1F8A80000BF00BF4846FCF7A9F800BF80
:1040800000BF002028803846ACE7FFE706F4004078
:1040900058B100BF00BF4846FCF79AF800BF00BF08
:1040A00046F2B010288000209CE74A48007800289B
:1040B0000BDD00BF00BF4846FCF78AF800BF00BF19
:1040C00046F66350288000208CE700BF4148007806
:1040D000401C4049087000BF00BF4846FCF778F814
:1040E00000BF00BF00BF434607220021084601F081
:1040F0000FFA00BF00BF00BFFCF766F8814600BFA3
:1041000000BF34480078401E3249087000BF00BF2D
:104110004846FCF75DF800BF00BF00BFFFF788FA14
:1041200000BF00BFFCF750F8814600BF00BF284821
:10413000006890F8350020B1012826D0032834D13A
:104140002CE0FCB122480068006C2060FDF78AFB7F
:104150001F490968096C401A1D490968C1F8A40083
:104160001B480068D0F8A80019490968D1F8A410C4
:10417000884207D216480068D0F8A400144909689C
:10418000C1F8A8000020288013E01CB11048006886
:10419000006C206046F2A91028800AE00CB10020D3
:1041A000206047F2D920288003E046F62E60288060
:1041B00000BF00BF06480068476C00BF00BF48460C
:1041C000FCF706F800BF00BF38460BE704010020EB
:1041D000A40100204C0100202DE9F04705460E46C1
:1041E00017461C464FF0000A2E480078002804DDD0
:1041F00047F259102080BDE8F0871EB946F2D5205D
:104200002080F8E71FB946F2D5202080F3E700BFF1
:1042100000BFFBF7D9FF824600BF00BF0DB922489F
:104220000568286868B900BF00BF5046FBF7D0FF9B
:1042300000BF00BF00203060386047F2521020807D
:10424000D9E795F83C0000F0010068B900BF00BF55
:104250005046FBF7BDFF00BF00BF00203060386054
:1042600047F254102080C6E700BF00BF5046FBF75E
:10427000AFFF00BF00BF4FF00008D5F8249003E067
:1042800009F1040908F10108D9F800000028F7D065
:10429000C6F80080A86BA0EB0800386000202080E2
:1042A00000BFA8E704010020A4010020F0B50446E7
:1042B000DDE9055602EB850020F007004FF0000C09
:1042C000071F3846C7F800C04FF4805C071F384608
:1042D000C7F800C04FF0150C071F3846C7F800C0DC
:1042E0004FF0140C071F3846C7F800C04FF0130CEE
:1042F000071F3846C7F800C04FF0120C071F38469A
:10430000C7F800C04FF0110C071F3846C7F800C0AF
:104310004FF0100C071F3846C7F800C04FF0090CCB
:10432000071F3846C7F800C04FF0080C071F384673
:10433000C7F800C04FF0070C071F3846C7F800C089
:104340004FF0060C071F3846C7F800C04FF0050CA9
:10435000071F3846C7F800C04FF0040C071F384647
:10436000C7F800C04FF0030C071F3846C7F800C05D
:104370004FF0020C071F3846C7F800C04FF0010C81
:10438000071F3846C7F800C04FF0000C071F38461B
:10439000C7F800C04FF0807C071F3846C7F800C040
:1043A000071F38463C60DFF85CC1071F3846C7F876
:1043B00000C04FF0123C071F3846C7F800C04FF04E
:1043C000033C071F3846C7F800C04FF0023C071FE8
:1043D0003846C7F800C0071F38463B60071F3846FD
:1043E00039604FF0310C071F3846C7F800C04FF056
:1043F000300C071F3846C7F800C04FF0290C071FC4
:104400003846C7F800C04FF0280C071F3846C7F8D9
:1044100000C04FF0270C071F3846C7F800C04FF008
:10442000260C071F3846C7F800C04FF0250C071FA1
:104430003846C7F800C04FF0240C071F3846C7F8AD
:1044400000C04FF0230C071F3846C7F800C04FF0DC
:10445000220C071F3846C7F800C04FF0210C071F79
:104460003846C7F800C04FF0200C071F3846C7F881
:1044700000C04FF0190C071F3846C7F800C04FF0B6
:10448000180C071F3846C7F800C04FF0170C071F5D
:104490003846C7F800C04FF0160C071F3846C7F85B
:1044A00000C04FF0113C071F3846C7F800C04FF05E
:1044B000103C071F3846C7F800C04FF0093C071FE3
:1044C0003846C7F800C04FF0083C071F3846C7F809
:1044D00000C04FF0073C071F3846C7F800C04FF038
:1044E000063C071F3846C7F800C04FF0053C071FC1
:1044F0003846C7F800C04FF0043C071F3846C7F8DD
:1045000000C0F0BD596700087FB505460C4612484B
:10451000854203D147F25B1020807FBD0F48854262
:1045200003D147F25C102080F7E70D48007800289F
:104530000BDD002000900190034602462946CDE99C
:104540000204084800F0A0FCE7E72146284602F0F4
:1045500071FB00BFE1E700003C92002000930020C7
:10456000040100205453555310B51D48006810B184
:104570001B4800688047FDF775F904461948006834
:1045800019490968884215D016480068D0F8980083
:10459000201A14490968C1F8940012480068D0F83C
:1045A0009C0010490968D1F8941008440D49096825
:1045B000C1F89C000C480068C0F8984009480068A1
:1045C000D0F8B40009490968884205D20748006854
:1045D00004490968C1F8B40000200449086010BD0E
:1045E000F8000020A4010020A801002048010020BC
:1045F0002DE9F04105460E46144600273F48007855
:10460000002804DD47F275202080BDE8F0813C4899
:104610000078002803DD46F663502080F5E736B1C8
:10462000022E05D0042E0AD0082E09D101E000BFC9
:1046300000BF1DB947F27E202080E6E704E003E0DA
:1046400045F625602080E0E700BF00BF00BF00BF47
:10465000FBF7BAFD074600BF00BF29480078401CA1
:104660002749087000BF00BF3846FBF7B1FD00BF07
:1046700000BF00BF01202349096881F836002346A6
:10468000324629461F48006802F090FB2088A8B1F6
:1046900000BF00BF00BFFBF797FD074600BF00BF8C
:1046A00017480078401E1649087000BF00BF384602
:1046B000FBF78EFD00BF00BF00BFA6E711480068F2
:1046C00001F00EFA00BF00BF00BFFBF77DFD0746FB
:1046D00000BF00BF0A480078401E0949087000BFAB
:1046E00000BF3846FBF774FD00BF00BF00BFFEF7F8
:1046F0009FFF0020208000BF87E70000040100200A
:104700004C010020A40100202DE9FF5F05460E4664
:1047100017469846DDE90EA4002000907248007804
:10472000002804DD47F275202080BDE8FF9F6F4818
:104730000078002803DD46F663502080F5E70AF094
:104740000E0BBBF1000F09D0BBF1020F07D0BBF17C
:10475000040F10D0BBF1080F0ED101E000BF00BF65
:10476000B8F1000F06D12FB926B91DB947F27E2046
:104770002080DAE704E003E045F625602080D4E7F6
:1047800000BF2AF01E0008B1012000E000200390C5
:104790000398012803D145F625602080C5E7CAF3B8
:1047A000001002900298C0B9B8F57A7F03D347F29F
:1047B0007B202080B9E73B2F03DD47F27A20208061
:1047C000B3E73B2E03DD47F279202080ADE7632D70
:1047D00012DD47F278202080A7E742F20F70864270
:1047E00003DD47F2792020809FE7B5F57A7F03DB70
:1047F00047F27820208098E73D48D0F800904FF4A9
:10480000FA70B0FBF9F0404400FB09F04FF47A7104
:10481000B0FBF1F14FF461606843C6EB061200EBA8
:104820008200384400FB091001900198002856D0FE
:1048300000BF00BF00BFFBF7C7FC009000BF00BF78
:104840002A480078401C2949087000BF00BF009822
:10485000FBF7BEFC00BF00BF00BF0120254909686F
:1048600081F8360023465A4622480199006802F032
:104870009DFA2088A8B100BF00BF00BFFBF7A4FCD1
:10488000009000BF00BF19480078401E174908700B
:1048900000BF00BF0098FBF79BFC00BF00BF00BF3C
:1048A00043E71448006801F01BF900BF00BF00BFD8
:1048B000FBF78AFC009000BF00BF0C480078401E48
:1048C0000A49087000BF00BF0098FBF781FC00BFD9
:1048D00000BF00BFFEF7ACFE0020208002E047F2E0
:1048E0007E20208000BF20E7040100204C01002032
:1048F0009CB00008A401002070B50446002600BF4B
:1049000000BFFBF761FC064600BF00BF0648056814
:1049100000BF00BF3046FBF75BFC00BF00BF0020BC
:104920002080284670BD00008401002010B586B0AC
:1049300000F01EF8FCF796FF044605A80021009140
:10494000CDE9011403900748007800EB4000064AC7
:1049500002EB800100231A46044800F095FA06B0E5
:1049600010BD000032010020D09300205449434B79
:1049700010B50348006810B101480068804710BDB9
:10498000FC0000202448254825482648264827487A
:10499000274828482848294829482A482A482B488F
:1049A0002B482C482C482D482D482E482E482F485F
:1049B0002F4830483048314831483248324833482F
:1049C00033483448344835483548364836483748FF
:1049D000374838483848394839483A483A483B48CF
:1049E0003B483C483C483D483D483E483E483F489F
:1049F0003F4840484048414841484248424843486F
:104A0000434844484448454845484648464847483E
:104A1000474800BF70470000E0B0000848B20008F7
:104A2000E2B00008E3B00008E4B00008E8B0000815
:104A3000ECB00008E9B0000814B1000815B1000896
:104A400016B1000818B100081AB100081CB100081E
:104A50001EB1000820B1000840B1000842B10008B2
:104A600044B1000846B1000848B100084AB1000846
:104A70004CB1000878B1000879B100087AB100089B
:104A80007CB100087EB100087FB1000880B1000849
:104A900082B1000884B1000886B1000888B100081E
:104AA0008AB100088CB10008BCB10008BDB1000893
:104AB000BEB10008BFB10008C0B10008C2B1000813
:104AC000C4B10008ECB10008EDB10008EEB1000877
:104AD000EFB10008F0B10008F2B10008F4B100082D
:104AE000F8B10008F9B10008FAB10008FBB10008FC
:104AF000FCB10008FDB10008FEB10008FFB10008DC
:104B000000B2000802B2000803B2000804B20008B4
:104B100006B2000808B2000809B200080CB200088A
:104B200040B2000841B2000842B2000844B2000896
:104B300046B200080021034A1160034A1180018037
:104B4000704700001C010020200100202DE9F04FDB
:104B500085B00446894692469B46DDF838800020A1
:104B6000009000BF00BFFBF72FFB009000BF00BF0D
:104B7000BAF1000F0AD0BAF1010F0DD0BAF5004F0B
:104B800005D06FF40040504460B906E000BF206AD1
:104B900040EA0900206214E000BF206A20EA090010
:104BA00020620EE000BF00BF0098FBF711FB00BFC2
:104BB00000BF45F62560A8F80000002005B0BDE85C
:104BC000F08F00BFC4F824B004F1080001900198F0
:104BD000008958B900BF00BF0098FBF7F9FA00BF81
:104BE00000BF0020A8F80000206AE7E700BF614886
:104BF0000078401C5F49087000BF00BF0098FBF7B9
:104C0000E7FA00BF00BF00BF01980768BD687FE0FA
:104C10007868029095F8880000F00F0003900398E0
:104C2000012821D002282ED0042802D0082836D10D
:104C30000EE0206AD5F8801000EA0106D5F8800061
:104C4000B04204D15A463146284600F097F859E060
:104C5000206AD5F8801000EA010626B15A4631468E
:104C6000284600F08BF84DE0D5F88000216A20EA54
:104C70000106D5F88000B04204D15A463146284694
:104C800000F07CF83EE0D5F88000216A20EA0106B9
:104C900026B15A463146284600F070F832E000BF8F
:104CA00000BF00BFFBF790FA009000BF00BF314883
:104CB0000078401E2F49087008460078A0B92E4899
:104CC0000088002809DD00BF00BF0098FBF780FACC
:104CD00000BF00BF00F032FF0DE000BF00BF009832
:104CE000FBF776FA00BF06E000BF00BF0098FBF7B5
:104CF0006FFA00BF00BF00BF43F6FF20A8F8000016
:104D000000205BE700BF029F0FB1BD6800E00025F7
:104D1000002D7FF47DAF00BF00BF00BFFBF754FA4A
:104D2000009000BF00BF13480078401E1149087072
:104D300000BF00BF0098FBF74BFA00BF00BF00BFE9
:104D40000AF4004008B9FEF773FC00BF00BFFBF790
:104D50003BFA009000BF00BF206A049000BF00BF74
:104D60000098FBF735FA00BF00BF0020A8F800004C
:104D7000049823E74C0100201001002070B5044680
:104D80000E46154634342665002060702070E560BC
:104D9000A078343C082816D2DFE800F004050809A2
:104DA0000706101100BF00BF00BF0DE000BF204686
:104DB00001F024FC002084F8360005E000BF042048
:104DC00084F8360000E000BF00BF204600F05BFC26
:104DD00070BD0000002400BF19E000BF00BFFBF75A
:104DE000F3F9044600BF00BF09480068401C0849A9
:104DF000086008480068401C0649086000BF00BF02
:104E00002046FBF7E5F900BF00BFFEF7A9FAE4E78B
:104E1000000100206401002010B58AB00446002083
:104E20000E4908600B2000210591CDE90704069189
:104E300008460B4909680B4A12680B4B1B68CDE901
:104E40000132CDE903103F200023084A08A1009059
:104E50000C48FEF745FE0AB010BD0000000100201E
:104E600044B0000840B000083CB00008D54D000830
:104E700075432F4F532D4949492049646C6520548F
:104E800061736B003C9200202DE9F84F04460D46FB
:104E900016461F46DDE90BABDDF82890DDF83480BF
:104EA0000020009000BF00BFFBF78EF9009000BF0C
:104EB00000BF2B4800882B49098888423EDA2848E1
:104EC0000088401C264908802748008809888842B5
:104ED00003DA2348008824490880244800680460D5
:104EE00022480068856021480068C6601F48006845
:104EF00007821E480068C0F814901C480068A0F89B
:104F000018A01A480068C0F81CB01848006840682B
:104F10001649086001201649088116480860486053
:104F2000002000F07FFC1448007818B11248007887
:104F3000124908700020A8F8000008E01048008816
:104F4000401C0F49088044F25360A8F8000000BFDD
:104F500000BF0098FBF73CF900BF00BFBDE8F88F29
:104F60001001002050B000081201002008010020AC
:104F7000D093002000930020320100203401002053
:104F8000140100203EB5594800680068584A811A4B
:104F9000904279D00FDC5749084400283ED056494A
:104FA0000844A8B155490844002860D05449084431
:104FB00000286AD13FE053480844002850D05249A5
:104FC0000844002862D0514908440028F1D110E07B
:104FD00002A8464D00902D68EB69444D2D682A8B40
:104FE000424D2D686969414D2D68A868FFF7AEFDF7
:104FF0007AE002A93D480068C0693C4DCDE9000156
:105000002D682B8B394D2D682A8A384D2D68E9681B
:10501000364D2D68A86800F035FC65E0334B1B6801
:10502000DA69324B1B68198B304B1B68986802ABEE
:1050300000F04EFE58E002A92C480068C0692B4DD4
:10504000CDE900012D682B8B284D2D682A8A274D2C
:105050002D68E968254D2D68A86801F0C9F943E07D
:1050600022490968886802A901F0D6FA3CE01F4B82
:105070001B68DA691D4B1B68198B1C4B1B689868F1
:1050800002AB01F075FB2FE007E02CE0174909683F
:10509000886802A901F0CEFD26E01D49097801EBE0
:1050A00041011C4A02EB810000F09EFD0F480068A0
:1050B00002AB0021C269184801F05AFB174800688A
:1050C000401E164908600846006858B91448006830
:1050D0000860FCF7C7FB044602AB224600211148DA
:1050E00001F046FB00E000BF00BF3EBD0C01002008
:1050F0005449434BADBAB2BE0DF90BFAF2F8F7FFC3
:105100000006F6FF00F7FDF700FFEFFF03FE0FFEBE
:1051100034010020D093002094970020A0010020AB
:105120009C01002058980020002700BF4CE000267A
:1051300048E000BF00BFFBF747F8074600BF00BFCD
:105140002248008888B90020214908810860486009
:1051500000F07AFB00BF00BF3846FBF739F800BF0C
:1051600000BFFEF765FA01262CE000BF00BF3846FD
:10517000FBF72EF800BF00BFFCF774FB0546FFF7F6
:1051800001FFFCF76FFB441B12480068A04201D2EC
:105190001048046000BF00BFFBF716F8074600BFC9
:1051A00000BF0D48006840680B4908600748008848
:1051B000401E0649088000BF00BF3846FBF708F8CC
:1051C00000BF00BF002EB4D0B1E7000010010020E6
:1051D000D0930020180100200C010020F0B589B008
:1051E00005460020314908803148006820B944F262
:1051F0005260288009B0F0BD2E480088022803DAEA
:1052000044F254602880F5E700202B4908602848C4
:1052100004682646203600270CE02848206000203D
:10522000A060E060208260612083666020342036C8
:10523000781C87B21F4800888742EEDB203C1C4860
:10524000066866601E4806601E48066000201E490B
:1052500008801E4908801E48006818B944F255604D
:105260002880C7E71B4800681B490968884203D2A9
:1052700044F256602880BDE7032000210591CDE966
:105280000705069113480068144A1268104B1B6802
:10529000CDE90301CDE9013200910B46104A11A17D
:1052A0001748FEF71DFC00BFA4E700001401002012
:1052B0004CB0000850B00008180100204E4F4E4579
:1052C000080100200C010020100100201201002024
:1052D00058B0000860B0000898B000085CB0000842
:1052E0002951000875432F4F532D494949204953EF
:1052F00052205175657565205461736B0000000084
:10530000009300200021034A1160034A11800180AC
:1053100070470000240100202801002070B50246DB
:105320000B461046114610315E1EB5B2002408E04F
:105330000160002646600681C66010301031661C90
:10534000B4B2AC42F4DB0026066046600681C6605B
:1053500070BD000010B504461048006818B945F249
:105360001E70208010BD0E48008818B945F21D70CF
:105370002080F7E70A48018808480068FFF7CEFF59
:1053800006480068074908600548008888800020B2
:10539000C8800881208000BFE4E700007CB00008DE
:1053A00074B00008C493002010B5014648894B89A9
:1053B000002B17DD0A680C4B1B6813600A4C4B6806
:1053C00023602346DB884C891B1B074CE380234664
:1053D0009B884C892344044CA38000234B818B8100
:1053E0000B604B6010BD0000C493002001810022BF
:1053F0004281828102604260704700002DE9F041E5
:105400000D46DDE90674B0F80AC0B0F80880C4455E
:1054100005DB46F2935CA4F800C0BDE8F081DFF83C
:10542000D4C0BCF804C0BCF1000F04D145F21D7C0F
:10543000A4F800C0F1E7DFF8BCC0DCF80010DFF82A
:10544000B480D1F800C0C8F800C0C446BCF804C09D
:10545000ACF1010CA8F804C0C446BCF806C00CF1BD
:10546000010CA8F806C0C446BCF808C0B8F806800D
:10547000C44507DADFF87CC0BCF806C0DFF87480EA
:10548000A8F808C0B0F80AC0BCF1000F06D101604E
:1054900041604FF0010CA0F80AC017E003F0100CB7
:1054A000BCF1000F07D1066831604FF0000CC1F865
:1054B00000C0016004E0D0F804C0C1F800C0416041
:1054C000B0F80AC00CF1010CA0F80AC0B0F80CC08A
:1054D000B0F80A80C44503DAB0F80AC0A0F80CC0DE
:1054E0004D600A81CF604FF0000CA4F800C000BFEF
:1054F00093E70000C49300200021034A1160034A8F
:1055000011800180704700002C0100203001002034
:105510002DE9F04105460C4616461F461548006821
:1055200080F8346000201349096881F83500394655
:105530001048006800F092FE6CB104F10808EC60BD
:10554000012229460B48006800F016F8294640461B
:1055500000F066F806E0002006490968C88705499A
:105560000968086303480168204600F019F8BDE89F
:10557000F0810000A401002010B5C2870163002360
:105580000AE000244C600C600C614C610C83CC611F
:10559000886020315C1CA3B29342F2DB10BD000096
:1055A00030B548B14568C1F8C05000F10804226820
:1055B00093681D6AC56113E091F83450022D02D042
:1055C000072D08D103E007A5C1F8C05007E007A5E3
:1055D000C1F8C05003E008A5C1F8C05000BF00BF2B
:1055E00030BD00005461736B205100005461736B37
:1055F0002053656D000000002000000030B507A5B5
:10560000C1F8C05000F1080422681AB193681D6AFD
:10561000C56101E001A5C56130BD000020000000AA
:10562000F0B58E6896F8375007893FB90127078192
:1056300000274F600F600160416023E007897F1CF5
:105640000781026806E0946894F83770AF4200DD85
:1056500002E05268002AF6D100BF32B900274F603D
:1056600043680B60596041600CE017682FB9116006
:1056700000270F604A60016004E013680B604A6015
:1056800059601160F0BD2DE9F0410446256BE68FAD
:105690000AE0D5F80C8008F108072946384600F0E2
:1056A0000AF82035701E86B2002EF2DC0020E0875A
:1056B0002063BDE8F08110B50489012C03D10024DA
:1056C0000460446011E00C6824B94A680024146046
:1056D00002600AE04C6824B90B6800245C604360F7
:1056E00003E00B684A685A6013600489641E0481F1
:1056F00000244C600C6010BD2DE9F84306460C46B2
:1057000017469846089D94F83600082850D2DFE8DE
:1057100000F00405080906072B2C00BF00BF00BFDE
:1057200047E000BF94F83400032807D143463A46C7
:1057300021463046009500F03FF803E0E765A4F805
:105740006080256436B12046FFF79DFF2146304634
:10575000FFF754FF204600F051FF00203434A070C2
:10576000607004F8340924E000BF94F83400032882
:1057700007D143463A4621463046009500F01CF8D2
:1057800003E0E765A4F860802564204601F0ECFBA7
:1057900036B12046FFF777FF21463046FFF72EFF50
:1057A00004203434A0700020607004F8340900E054
:1057B00000BF00BFBDE8F883F0B50446059E086B46
:1057C000CD8F0AE0C768A74204D104614261038318
:1057D000C66104E020306F1EBDB2002DF2DC00BFB8
:1057E000F0BD000070B50025074C03E005F1200076
:1057F000C5B2241D20680028F8D02068FAF7EFFC15
:105800002844C5B2284670BDDC000020002004E01A
:105810000021034A42F82010401C0228F8D37047A8
:10582000DC00002030B5420900F01F030121C3F164
:105830001F04A140034C54F822400C43014D45F88D
:10584000224030BDDC00002030B5420900F01F03CB
:105850000121C3F11F04A140034C54F822408C43A2
:10586000014D45F8224030BDDC0000200021034AF4
:105870001160034A11800180704700003801002048
:105880003C0100202DE9F04F85B007468A4693463B
:105890001C460020029000BF00BF00BFFAF794FC36
:1058A000029000BF00BF48480078401C464908707D
:1058B00000BF00BF0298FAF78BFC00BF00BF00BF1B
:1058C00007F108063089002842D104F0100010B911
:1058D0004FF0000801E04FF01008DDE90E014346EB
:1058E0005A46CDE90001514607F12000FFF786FD39
:1058F00000BF00BF00BFFAF767FC029000BF00BF07
:1059000031480078401E3049087008460078A0B938
:105910002E480088002809DD00BF00BF0298FAF772
:1059200057FC00BF00BF00F009F90DE000BF00BF49
:105930000298FAF74DFC00BF06E000BF00BF0298D6
:10594000FAF746FC00BF00BF00BF05B0BDE8F08F0E
:1059500004F4007008B1358900E00125D6F8009004
:1059600011E0D9F808000390D9F8040004900E98CB
:105970005B465246009038460399FFF7BDFEDDF8BE
:105980001090681E85B2002DEBD100BF00BF00BF94
:10599000FAF71AFC029000BF00BF0B480078401EC7
:1059A0000949087000BF00BF0298FAF711FC00BF58
:1059B00000BF00BF04F4004008B9FDF739FE002124
:1059C0000F98018000BFC0E74C01002010010020AB
:1059D00000210AE001EB4102054B03EB82000022AB
:1059E0000281026042604A1CD1B24029F2D3704762
:1059F000D093002010B5044694F83700FFF712FF4B
:105A000094F8370005490978884203D1204600F010
:105A100027F802E0204600F003F810BD3201002014
:105A200010B590F8373003EB43030C4C04EB8301C3
:105A30000B893BB901230B810023C360036108601C
:105A4000486009E00B895B1C0B810B68C360002375
:105A500003610A681061086010BD0000D093002047
:105A600010B590F8373003EB43030B4C04EB830184
:105A70000B893BB901230B810023C36003610860DC
:105A8000486008E00B895B1C0B810023C3604A68F7
:105A90000261D060486010BDD093002010B501466F
:105AA0000C8924B1012C03D0022C0CD101E000BFE1
:105AB00014E008684A6802610024C4601461D06080
:105AC0000A6048600AE008684A68C36800241C61EC
:105AD000C4600261D0600B60486000BF00BF10BDB1
